:100000000C9405070C944C070C944C070C944C076B
:100010000C944C070C944C070C944C070C944C0714
:100020000C944C070C944C070C946E2D0C94402EA1
:100030000C945F240C944C070C944C070C944C07C4
:100040000C944C070C944C070C944C070C944C07E4
:100050000C944C070C94AC240C944C070C944C0757
:100060000C944C070C944C070C944C070C944C07C4
:100070000C944C070C944C070C944C070C944C07B4
:100080000C944C070C944C070C944C070C944C07A4
:100090000C944C070C944C070C944C070C944C0794
:1000A0000C944C070C944C070C944C078D12901236
:1000B00098129D12A212A712AC12B112B612BB1264
:1000C000C012C512C712CA12CD12D012D312D61244
:1000D000D812DD12A019A019D219D2191F1A3D1A6F
:1000E0005E1B5E1B481ADD1AEE1AEE1A4E1B5E1BD3
:1000F0005E1B571BFE1BFE1B101C101C071C101C3C
:10010000101C101CFE1BFE1B0C1C101C101C0C1CBD
:10011000AD2ED42ECC2FD42ECC2F202F432FCC2F4E
:100120009A2FA92F165C1E001F002000210022001C
:10013000230024002500260027002D002E004C005F
:100140002A002B00000014001A00080015001700F8
:100150001C0018000C00120013002F0030003100AA
:100160000251000004001600070009000A000B00FD
:100170000D000E000F003300330028000000E100E6
:1001800000001D001B0006001900050011001000F2
:10019000360037003800520000050F51E000E30040
:1001A0000000E20001510000125900002C00000084
:1001B0000351500051004F000000000000000000FB
:1001C000000000000000000000000000000000002F
:1001D000000000004C002A000000000014051A0571
:1001E0000805150517051C0518050C05120549001D
:1001F0000000000000001E0000001F002000210081
:100200002200230024002500260027002D002E00B8
:1002100000000000010000001D051B050605190572
:10022000340038002F003000310000004B00E500A2
:1002300000000100010000000100010000000100B9
:1002400000002C00000013034A004E004D00000087
:100250004C053A003B003C003D003E003F004000A2
:100260004100420043004400450000002A00000015
:100270000000680069006A006B00F9002B052B077D
:100280000000000046000000000000000100000027
:100290006C006D006E006F00FA00500051005200BB
:1002A0004F00000000001303000000000000700079
:1002B00071007200730000004A004E004B004D00B8
:1002C00000000000000000000000E3000000E20069
:1002D000E000000000000000E1000000000000005D
:1002E000000000000000000000000000000000000E
:1002F0000000000000005300540025022D00000003
:1003000000000000000000000000000000000000ED
:100310000000000000002400250026002E00000040
:1003200000000000000000000000000000000000CD
:100330000000000021002200230036000000000021
:1003400000000000000000000000000000000000AD
:1003500000001E001F0020002E00E500000000002D
:100360000000000000000000000000000000270066
:10037000000001003700280000000000010001001B
:100380000100010001000100010001000100010065
:100390000100010001000100010001000000010056
:1003A0000100010001000100010001000100010045
:1003B0000100010001000100010000000100010036
:1003C0000100010001000100010001000100010025
:1003D0000100010000000100000001000100010017
:1003E0000100010001000100010001000100010005
:1003F00001000100010001000000010001000000F7
:1004000001000000010000000100010001000100E6
:1004100001000100010001000100010001000100D4
:1004200001000100010001000100010001000100C4
:1004300001000000010001000100010001000100B5
:1004400001000100010001000100010001000100A4
:100450000000010001000100010001000100010095
:100460000100010001000100010000000100000086
:100470000100010001000100010001000100010074
:100480000100010001000100010001000100000065
:100490000100010000000100000001000000010057
:1004A0000100010001000100010001000100010044
:1004B0000100010001000100010001000100010034
:1004C0000100010001000100000001000100010025
:1004D0000100010001000100010001000100010014
:1004E0000100010001000000010001000100010005
:1004F00001000100010001000100010001000100F4
:1005000000000100000001000100010001000100E5
:1005100001000100010001000100010001000100D3
:1005200001000100000001000100000001000000C6
:1005300001000000010001000100010001000100B4
:1005400001000100010001000100010001000100A3
:100550000100010001000100010001000100000094
:100560000100010001000100010001000100010083
:100570000100010001000100010001000000010074
:100580000100010001000100010001000100010063
:100590000100010001000000010000000100010055
:1005A0000100010001000100010001000100010043
:1005B0000100010001000100010000000100010034
:1005C0000000010000000100000001000100010026
:1005D0000100010001000100010001000100010013
:1005E0000100010001000100010001000100010003
:1005F00001000100000001000100010001000100F4
:1006000001000100010001000100010001000100E2
:1006100001000000010001000100010001000100D3
:1006200001000100010001000100010000000100C3
:1006300000000100010001000100010001000100B3
:1006400001000100010001000100010001000100A2
:100650000000010001000000010000000100000096
:100660000100010001000100010001000100010082
:100670000100010001000100010001000100010072
:100680000100010001000100010000000100010063
:100690000100010001000100010001000100010052
:1006A0000100010001000100000001000100010043
:1006B0000100010001000100010001000100010032
:1006C0000100000001000000010001000100010024
:1006D0000100010001000100010001000100010012
:1006E0000100010001000000010001000000010004
:1006F00000000100000001000100010001000100F4
:1007000001000100010001000100010001000100E1
:1007100001000100010001000100010001000100D1
:1007200000000100010001000100010001000100C2
:1007300001000100010001000100010001000000B2
:1007400001000100010001000100010001000100A1
:100750000100010001000100000001000000010093
:100760000100010001000100010001000100010081
:100770000100010001000100010001000000010072
:100780000100000001000000010000000100010064
:100790000100010001000100010001000100010051
:1007A0000100010001000100010001000100010041
:1007B0000100010001000000010001000100010032
:1007C0000100010001000100010001000100010021
:1007D0000100010000000100010001000100010012
:1007E0000100010001000100010001000100000002
:1007F00001000000010001000100010001000100F2
:1008000001000100010001000100010001000100E0
:1008100001000000010001000000010000000100D3
:1008200000000100010001000100010001000100C1
:1008300001000100010001000100010001000100B0
:1008400001000100010001000100010000000100A1
:100850000100010001000100010001000100010090
:100860000100010001000100010000000100010081
:100870000100010001000100010001000100010070
:100880000100010000000100000001000100010062
:100890000100010001000100010001000100010050
:1008A0000100010001000100000001000100000042
:1008B0000100000001000000010001000100010032
:1008C0000100010001000100010001000100010020
:1008D0000100010001000100010001000100010010
:1008E0000100000001000100010001000100010001
:1008F00001000100010001000100010001000100F0
:1009000000000100010001000100010001000100E0
:1009100001000100010001000100000001000000D1
:1009200001000100010001000100010001000100BF
:1009300001000100010001000100010001000000B0
:1009400001000100000001000000010000000100A2
:10095000010001000100010001000100010001008F
:10096000010001000100010001000100010001007F
:100970000100010001000100000001000100010070
:10098000010001000100010001000100010001005F
:100990000100010001000000010001000100010050
:1009A000010001000100010001000100010001003F
:1009B0000000010000000100010001000100010031
:1009C000010001000100010001000100010001001F
:1009D0000100010000000100010000000100000012
:1009E0000100000001000100010001000100000001
:1009F00000000000000000000000000000000000F7
:100A000000000000000000000000000000000000E6
:100A1000A800AA00A900BD00BE0000000000000060
:100A20000000000000000000000000000000CE5C9C
:100A3000CF5CD05CD15CD25CD35CD45CD55CD65C42
:100A4000CC5CCD5C00000000390000004700530082
:100A5000000000000000000000000000CA5CC85C4C
:100A6000C65CC45CC35C0000000000000000000025
:100A700000000000000000000000CB5CC95CC75C07
:100A8000C55C010032190A00047F3F1F6432146400
:100A90003214783C1E1E140A052223252628292AF2
:100AA0002C2D2F3032333536383A3B3D3E404243D1
:100AB0004547494A4C4E5051535557595A5C5E6010
:100AC00062646668696B6D6F71737577797B7D7F22
:100AD00081838587898A8C8E90929496989A9C9E21
:100AE0009FA1A3A5A7A8AAACAEAFB1B3B4B6B8B93D
:100AF000BBBCBEBFC1C2C3C5C6C7C9CACBCCCDCEA5
:100B0000D0D1D2D2D3D4D5D6D7D7D8D9D9DADADB87
:100B1000DBDBDCDCDCDCDCDDDDDDDDDCDCDCDCDC13
:100B2000DBDBDBDADAD9D9D8D7D7D6D5D4D3D2D252
:100B3000D1D0CECDCCCBCAC9C7C6C5C3C2C1BFBE3A
:100B4000BCBBB9B8B6B4B3B1AFAEACAAA8A7A5A3A5
:100B5000A19F9E9C9A98969492908E8C8A89878564
:100B600083817F7D7B79777573716F6D6B69686643
:100B70006462605E5C5A5957555351504E4C4A4915
:100B800047454342403E3D3B3A3836353332302FBD
:100B90002D2C2A292826252322FFAA7F5540000133
:100BA000010101010101010102020202020202022D
:100BB00002030303030303030304040404040404FF
:100BC00005050505050606060606070707070708C3
:100BD000080808090909090A0A0A0B0B0B0C0C0C76
:100BE0000D0D0D0E0E0E0F0F0F1010111111121210
:100BF00013131414151516161717181819191A1A8D
:100C00001B1B1C1D1D1E1E1F2020212222232424ED
:100C1000252626272829292A2B2C2D2D2E2F303129
:100C20003232333435363738393A3B3C3D3E3F403B
:100C30004142434445464748494A4C4D4E4F505126
:100C40005354555658595A5B5D5E5F6162646566E0
:100C500068696B6C6D6F7072737577787A7B7D7E67
:100C60008082838587888A8C8E8F91939596989AB7
:100C70009C9EA0A2A3A5A7A9ABADAFB1B3B5B7BACF
:100C8000BCBEC0C2C4C6C9CBCDCFD1D4D6D8DBDDA3
:100C9000DFE2E4E7E9EBEEF0F3F5F8FAFDFF0A0333
:100CA00044005A0036003000000010034B004200A0
:100CB0004400460061006E00730000000403090454
:100CC00009023B00020100A0FA090400000103012F
:100CD00001000921110100012240000705810308DC
:100CE000000A0904010001030000000921110100AC
:100CF0000122BC000705820320000A120110010036
:100D00000000085A446022010001020001050109A7
:100D100002A10185020901A1000509190129051592
:100D20000025019505750181029501750381010575
:100D300001093009311581257F9502750881060961
:100D4000381581257F950175088106050C0A380242
:100D50001581257F950175088106C0C005010980B0
:100D6000A101850319012AB700150126B7009501D5
:100D700075108100C0050C0901A101850419012A23
:100D8000A002150126A002950175108100C0050181
:100D90000906A1018505050719E029E715002501C8
:100DA0009508750181020507190029EF1500250135
:100DB00095F0750181020508190129059505750150
:100DC0009102950175039101C005010906A1010574
:100DD0000719E029E715002501950875018102959D
:100DE00001750881010507190029FF150026FF007C
:100DF00095067508810005081901290595057501F5
:100E00009102950175039101C00011241FBECFEF1F
:100E1000DAE0DEBFCDBF04B603FE27C080916A03CF
:100E200090916B03A0916C03B0916D038730904B50
:100E3000A740B04BD1F410926A0310926B0310924A
:100E40006C0310926D0314BE84B7877F84BF0FB606
:100E5000F894A8958091600088618093600010925A
:100E600060000FBEE0E0F8E3099511E0A0E0B1E01A
:100E7000EEEDF2E602C005900D92AE3CB107D9F757
:100E800023E0AEECB1E001C01D92AA36B207E1F753
:100E90000E94AE2A0C946D310C94000081E00895FC
:100EA00081E008950C94500708950C9454071F9303
:100EB000CF93DF9300D000D01F92CDB7DEB7498328
:100EC0005A836B833091420289819A81311114C017
:100ED000662359F0222349F00E943721182F682FEA
:100EE00089819A810E94E02003C00E940B21182F63
:100EF00069817A81812F04C00E94372169817A81BA
:100F00000F900F900F900F900F90DF91CF911F9146
:100F10000C942708FC01262F408151816281738146
:100F200084810C945707CF93DF93EC0160E00E941B
:100F30008A07BE01DF91CF910C9455070E94692268
:100F4000811102C00E9423230E9417080E9460148E
:100F50000C94460A0C94420A08950E94EC1B0E94CD
:100F6000AC072FEF84E39CE0215080409040E1F7F4
:100F700000C000000C94D2240F931F93CF93DF93F3
:100F8000EC0161E00E948A078C01BE010E945207B9
:100F90008823A9F1BE01C8010E94C113882379F1F9
:100FA000BE01C8010E940E15882349F1BE01C80187
:100FB0000E946015882319F1BE01C8010E948B169A
:100FC0008823E9F0BE01C8010E9476128823B9F097
:100FD0008A81882369F001158CE5180731F00F3DEF
:100FE0001C4531F40E9423230AC00E94AD0707C0AC
:100FF000CE01DF91CF911F910F910C944E0780E0AD
:10100000DF91CF911F910F91089508950C940508D9
:1010100081E00895CF93C82F0E940808882329F003
:10102000C1FD02C02A9A01C02A98CF910895229A40
:101030002A9A0895CF93C82F0E9406088C2F0E94E9
:101040000A08CF91089580E090E0089508952BE478
:10105000829FC0011124FC012FE0729FE00DF11D61
:101060001124E60FF11DEE0FFF1FEC5DFE4F859181
:1010700094910895880F991FFC01EC57F54F8591C5
:1010800094910895CF93DF930E9427080E945A09F4
:10109000EC018115904508F041C0C11580E4D807E6
:1010A00008F0D1C0C83ED10510F5C03ED10508F00A
:1010B000FDC0C83AD10578F4C53AD10508F0A2C000
:1010C000C130D10509F4F2C008F4EEC0C430D10536
:1010D00008F0ECC0E9C0CF3BD10508F49BC0C03C90
:1010E000D10508F4E1C0CE01805C91099EC0C11514
:1010F00090E2D90758F4C11521E0D20708F0D6C014
:10110000C03FD10508F4D0C0D065D0C0C11580E380
:10111000D80708F08EC0CE019F7087C0C11595E535
:10112000D90708F043C0C11524E5D20708F0A2C0D2
:10113000C11582E5D80708F5C11591E5D90708F072
:1011400085C0CE0174E0969587957A95E1F7837016
:101150009C2F937021E030E002C0220F331F9A953C
:10116000E2F73C68382BCF70C695C69580E2C89FE1
:10117000E0011124C22BD32B99C09E012370332789
:101180008C2F86958695C115D34508F064C0C1E0C3
:10119000D0E002C0CC0FDD1F2A95E2F720E2829F4B
:1011A000C0011124C82BD92BDC6880C0C11529E5EA
:1011B000D207A0F4C11588E5D80708F060C0C115B2
:1011C00096E5D90708F070C08C2F0E94EE098F7148
:1011D000C82FD0E0DC2FCC27D06268C0C1152AE52B
:1011E000D20708F451C0CE0190568115904208F004
:1011F0005BC08D2F8F710E94EE09DD27D0628F7149
:10120000D82B54C0C55AD0E0C65ADE4FC881D0E0B2
:10121000D0644CC0C85AD0E0CC0FDD1FC45DDE4F97
:101220000990D881C02DD46441C00E943A08EC01D5
:101230003DC0CE019927D3FF03C0EC01D86C36C066
:10124000EC01D06C33C0DF70D06A30C0DC2FCC270B
:10125000C16FD06A2BC0C1E0D0E002C0CC0FDD1F4F
:101260002A95E2F720E2829FC0011124C82BD92BD6
:10127000DA681CC0DC2FCC27C46FD06A17C0DC2F03
:10128000CC27C06FD06A12C08C2F8F700E94EE09DD
:1012900094E0D695C7959A95E1F7CF70D0E0DC2F12
:1012A000CC27D069C82B02C0C0E0D0E0CE01DF91CE
:1012B000CF9108958238910569F1B0F48133910599
:1012C00009F46DC048F48932910509F463C08A328B
:1012D000910509F469C008958533910509F455C055
:1012E00089339105B9F00895833E910569F138F489
:1012F000803E9105B1F0823E910509F10895863E48
:101300009105A9F1873E9105B9F1843E910509F057
:1013100064C023C020915B0320FD4FC021FD4DC060
:10132000089580915B0380FD44C080915C0380FF41
:1013300044C080915B0384FD42C083EE4DC0809128
:101340005B0382FF38C0F5CF80915B0382FD33C021
:1013500080915C0380FD31C0ECCF80915C0381FF04
:1013600032C080915B0384FD2AC087EE35C0809136
:101370005B0383FF26C0F5CF80915B0383FD21C013
:1013800080915C0381FD1FC0ECCF80915B0385FDE4
:101390001CC01DC080915B0385FD19C016C08091E3
:1013A0005B0386FD16C017C080915B0386FD13C0EA
:1013B00010C089E311C082EE0FC080EE0DC080E046
:1013C0000BC086EE09C084EE07C089E205C085E344
:1013D00003C08AE201C081E390E0089590915B032D
:1013E00092FF0DC0282F2871283019F4877F846060
:1013F00006C0282F2471243011F48B7F886093FF5E
:101400000DC0282F2871283119F4877E846106C009
:10141000282F2471243111F48B7E886120915C0384
:1014200020FF0DC0382F3871383019F4877F816064
:1014300006C0382F3171313011F48E7F886021FF62
:101440000DC0282F2871283119F4877E816106C0CC
:10145000282F2171213111F48E7E886194FD877EC1
:101460000895E82FF0E0EE0FFF1FE95EFC4F80814A
:1014700091810895089580EA8A95F1F70895089575
:101480000C943F0A0C94400A0C943F0A0C94440AB2
:10149000F894E82FE295EF70F0E031A1282F2F703B
:1014A00081E090E001C0880F2A95EAF7982F909587
:1014B000932391A392A1892B82A3789408950F93EB
:1014C0001F93CF93DF9380E90E94480A81E90E942D
:1014D000480A82E90E94480A83E90E94480A85E98D
:1014E0000E94480ACDE5D1E00CE611E089910E9406
:1014F000480A0C171D07D1F7EDE0F3E0A7E1B3E0D0
:10150000119211921D921D9283E0E731F807C1F705
:1015100085E00E941D0BDF91CF911F910F910C94DC
:101520009E077F928F929F92AF92BF92CF92DF924F
:10153000EF92FF920F931F93CF93DF93CCE6D1E00E
:101540008DE0A82E83E0B82E97E1E92E93E0F92EE6
:10155000712C01E010E06E018881F894E82FE2958B
:10156000EF70F0E021A18F70A80102C0440F551F59
:101570008A95E2F7CA01922F982B91A392A18095A8
:10158000892382A378940E943B0AEDE5F1E020E0F4
:1015900030E0812C912C4191A42FA295AF70B0E046
:1015A00090968C9190E04F7002C0959587954A95E2
:1015B000E2F780FD08C0C801022E02C0880F991F03
:1015C0000A94E2F702C080E090E0882A992A2F5F0F
:1015D0003F4F2F303105F9F62196F60180810E94A8
:1015E000480AF501808191818816990621F091823F
:1015F000808281E001C080E0782AF2E0AF0EB11C69
:10160000EA14FB0409F0A7CF272D45E067E173E05A
:101610008DE093E00E941E0B0E94AA07872DDF91A8
:10162000CF911F910F91FF90EF90DF90CF90BF90DF
:10163000AF909F908F907F9008950895FF920F93A1
:101640001F93CF93DF93F82E092F162FD72FC42F78
:10165000222349F081E08093D0010E94912490934D
:10166000CF018093CE018091D0018823D9F0809161
:10167000CE019091CF010E949D24069798F0EF2D06
:10168000F02FA12FBD2F80E090E04C2F50E0841769
:10169000950734F4219131912D933D930196F7CF25
:1016A0001092D001DF91CF911F910F91FF9008957B
:1016B000EF92FF920F931F93CF93DF938B01682FCD
:1016C00011110AC0442329F0E82FF0E0E256F44F4C
:1016D0006491762F862F75C0212F30E0E82FF0E03F
:1016E000442321F0E256F44FE491F0E046E0049FF9
:1016F000C0011124CFEFD0E0BE010E941C304BEAA4
:101700004603C001479F900D1124800F911D800F4B
:10171000911D982F990F890FAE01421B530B4E9FBD
:10172000D0014F9FB00D5E9FB00D11249B2F189FCD
:10173000A0011124452F55278E01041B150B0E9F68
:10174000A0010F9F500D1E9F500D11247E01E81A1D
:10175000F108E29E8001E39E100DF29E100D11240F
:10176000212F3327C21BD30BCE9F9001CF9F300D6B
:10177000DE9F300D112462307105A9F048F4611527
:10178000710569F061307105C9F48B2F752F0DC09B
:101790006430710581F058F06630710579F47E2F60
:1017A0008B2F932F0DC0832F7B2F9E2F09C08E2F41
:1017B0007B2F952F05C08E2F732F02C07E2F852F74
:1017C000692FDF91CF911F910F91FF90EF900895B6
:1017D00041E00E94580B089508950E94E80B089577
:1017E000CF93DF93762FE901682F842F0E94ED0BB2
:1017F000798368838A83DF91CF9108958091210353
:10180000282F269530E02115310519F4817082606A
:1018100005C02B32310524F081708465809321034B
:10182000089588E090E00C940E31CF92DF92EF9211
:10183000FF926B017C010E94FE0BB701A60188E0BC
:1018400090E0FF90EF90DF90CF900C942C31E1E28C
:10185000F3E083E0808311828FEF8283838314829D
:1018600060817181828193810C94150C8091210398
:1018700080FF02C08695089580E008959091250329
:10188000933018F49F5F90932503882351F0609163
:1018900021037091220380912303909124030C94DF
:1018A000150C089581E00C943E0C9091250399232A
:1018B00019F0915090932503882351F060912103F2
:1018C0007091220380912303909124030C94150CB2
:1018D000089581E00C94550C70E00C9470146091A4
:1018E00008018091210380FF0AC08091070123E055
:1018F000829FC00111248A5D9C4F0C946C0C8091D6
:10190000090190910A01891780F7E82FF0E09F0103
:10191000220F331FE20FF31FEA5DFC4F118210828A
:1019200012828F5FF0CF9091210390FF16C09091AB
:10193000090120910A01921770F4E92FF0E0DF010C
:10194000AA0FBB1FEA0FFB1FEA5DFC4F8183608378
:1019500042839F5FF0CF0C946F0C0895CF93DF9379
:1019600000D01F92CDB7DEB79091210390FF0AC03F
:101970009E012F5F3F4F0E94F00B4B8169818A814E
:101980000E94930C0F900F900F90DF91CF910895CC
:10199000CF93DF93EC01EC81F0E0E756F54F4491F3
:1019A000E1E2F3E0628181810E94AE0C8C818F5F65
:1019B0008C83DF91CF910895CF93DF93EC01E1E227
:1019C000F3E0438162818C810E94AE0C8C818F5F39
:1019D0008C83DF91CF9108950F931F93CF93DF9363
:1019E00000D01F92CDB7DEB78C018091D10181115B
:1019F0000AC09E012F5F3F4F4FEF6FEF0E94F00B29
:101A00008A818093D101F8018481813051F028F0DE
:101A1000823061F44091D1010AC08091D10140E04F
:101A200007C06091D10140E080E003C040E080E069
:101A300060E00E94930CF801848190E0019663E0DD
:101A400070E00E94303084830F900F900F90DF91F0
:101A5000CF911F910F910895AF92BF92CF92DF92D5
:101A6000EF92FF920F931F93CF93DF9300D01F92BB
:101A7000CDB7DEB7182FF62E042FE22E909121035A
:101A800090FF6DC0E92FE695AE2FB0E0AF58BE4F86
:101A90008C9180932B029E7F923061F49E012F5F88
:101AA0003F4F812F0E94F00B4B8169818A810E94F8
:101AB000930C43C0823019F4009124033EC0863059
:101AC00019F41091220339C08930D9F38931A9F56D
:101AD000E9518E2F8170D82EE695F0E0E756F44F4D
:101AE000A590B490C12CBB2460910B01C61618F5CB
:101AF0002C2D30E0A29EC001A39E900DB29E900DB1
:101B0000112470E00E941C30812FD11002C0860F7A
:101B100001C0861B90910901290F311DA901440FB5
:101B2000551F240F351F2A5D3C4F402F6F2D0E94FB
:101B3000F00BC394D9CF0E946F0C10932203F09244
:101B4000230300932403EE2051F060912103709150
:101B5000220380912303909124030E94150C0F907F
:101B60000F900F90DF91CF911F910F91FF90EF9009
:101B7000DF90CF90BF90AF900895E1E2F3E09181C4
:101B8000282F4381628188E0890F0C942C0D81E01D
:101B90000C94BD0DE1E2F3E09181282F4381628135
:101BA00088EF890F0C942C0D81E00C94CA0DE1E2B2
:101BB000F3E0628128E0620F08F46FEF282F438181
:101BC00081810C942C0D81E00C94D70DE1E2F3E0BF
:101BD000628128E0621B08F460E0282F4381818144
:101BE0000C942C0D81E00C94E60DE1E2F3E04381CE
:101BF00028E0420F08F44FEF282F628181810C9476
:101C00002C0D81E00C94F50DE1E2F3E0438128E036
:101C1000421B08F440E0282F628181810C942C0D36
:101C200081E00C94040E20E00C942C0DFF920F9395
:101C30001F93CF93DF93EC01F12C0FEF10E0609135
:101C40000B01F616F0F4809109012F2D30E0280FDA
:101C5000311DC901880F991F280F391F2A5D3C4F7C
:101C600070E0C8010E943030962F8C81409124038F
:101C700060912303F99E800D11240E94F00BF394D0
:101C8000DECF0E946F0C9A818C8190FF02C08F5F23
:101C900001C081508C83DF91CF911F910F91FF90F4
:101CA0000895BF92CF92DF92EF92FF920F931F930E
:101CB000CF93DF93FC01828180FF02C00FEF01C050
:101CC00001E010E080910B01181708F040C08091EE
:101CD0000901C12ED12CE601C80FD11DCE01880FFC
:101CE000991FC80FD91FCA5DDC4F198218821A824A
:101CF00034E0E32EF12CB12C8091D3018B0D813196
:101D000014F08F7005C087FF03C090910B01890FFD
:101D1000082E000C990BC816D90691F48091240363
:101D20008E9DA0018F9D500D112455954795559579
:101D300047959E0160912303809122030E94F00B3E
:101D4000B00EF1E0EF1AF108B9F61F5FBBCF0E94A9
:101D50006F0C8091D301013031F4811102C0809168
:101D60000B01815007C090E0019660910B0170E07B
:101D70000E9430308093D301DF91CF911F910F915A
:101D8000FF90EF90DF90CF90BF900895CF93809118
:101D9000090190910A01891770F4E82FF0E09F0182
:101DA000220F331FE20FF31FEA5DFC4F11821082F6
:101DB00012828F5FF0CFC0E060910B01C617C0F5B3
:101DC000EC2FF0E070E0CF010E943030209109014B
:101DD000820F2091D201022E000C330B90E0E2170B
:101DE000F307CCF020910601022E000C330B2E17C6
:101DF0003F078CF09C01220F331F820F931F9C0121
:101E00002A5D3C4F4091240360912303809122037B
:101E10000E94F00B0BC0FC01EE0FFF1F8E0F9F1FE7
:101E2000FC01EA5DFC4F118210821282CF5FC4CFA9
:101E30000E946F0C209105018091D201820F809346
:101E4000D20190910601920F9093060119165CF44D
:101E5000082E000C990B40910B0150E041505109A4
:101E6000841795071CF0219520930501CF910895C3
:101E70008F929F92AF92BF92CF92DF92EF92FF929A
:101E80000F931F93CF93DF938C01FC014481C42FE8
:101E9000D0E09E01DE010E9474309B01AC010E94E3
:101EA0008A306B017C01E0E2F0E0EC1BFD0BA5E564
:101EB000B0E09B01AC010E948A304B015C019F01A4
:101EC000DF010E946C309B01AC010E9495309B01A8
:101ED000AC012C0D3D1D4E1D5F1DC501B4010E94BE
:101EE0004430C22FD22F2A3228F4F3E02F9F9001E2
:101EF00011240DC025E530E02C1B3109C901880FE4
:101F0000991F280F391F37FF02C02F5F3F4F3595AC
:101F10002795C22FC095F12C85E5E82EED1A80910A
:101F20000B01F816C8F4F1FC02C08E2D01C08D2FF4
:101F3000909109012F2D30E0290F311DA901440F87
:101F4000551F240F351F2A5D3C4F4C2F60912303F2
:101F50000E94F00BF394E3CF0E946F0CF801848190
:101F6000811102C091E003C0803219F49FEF909379
:101F7000040190910401890FF8018483DF91CF91CE
:101F80001F910F91FF90EF90DF90CF90BF90AF9097
:101F90009F908F9008950F931F93CF93DF93EC0141
:101FA00000E010E080910B01282F30E002171307AA
:101FB00024F5909109019801290F311DA901440FC1
:101FC000551F240F351F2A5D3C4F869590E04C81AC
:101FD000081719071CF4442331F002C0411103C053
:101FE0004091240301C040E06091230380912203CB
:101FF0000E94F00B0F5F1F4FD5CF0E946F0C8C819A
:1020000090E00196817099278C83DF91CF911F9189
:102010000F9108958F929F92AF92BF92CF92DF92CD
:10202000EF92FF920F931F93CF93DF93FC01B28047
:10203000948081E0848300E015E05BE4A52E882491
:102040008394EE24EA94F12C7BE4C72ED12C80916A
:102050000B01081708F08FC0C02FD0E01C9FF001C3
:102060001D9FF00D1124EC52FE4F911003C01382FE
:10207000128267C02381222389F121502383348176
:10208000332319F09A2D921B01C0922F80912403C3
:102090001C9FF0011D9FF00D1124EC52FE4F899FF3
:1020A000C0011124B6010E941C306283211104C0BA
:1020B000332311F01482A38222E02B1508F441C0CF
:1020C0001C9FF0011D9FF00D1124EC52FE4F8091DA
:1020D0002203808380912303818333C00E94E930EF
:1020E0008230914074F582E08B1530F40E94E93023
:1020F000B7010E94303002C0809122031C9FF00182
:102100001D9FF00D1124EC52FE4F808322E02B1511
:1021100058F40E94E930209123032695622F70E045
:102120000E943030820F02C0809123031C9FF00177
:102130001D9FF00D1124EC52FE4F81831282A38269
:102140008482809109019E01280F311DC901880FE9
:10215000991F280F391F2A5D3C4F1C9FF0011D9FBE
:10216000F00D1124EC52FE4F4281618180810E946A
:10217000F00B0F5F6CCFDF91CF911F910F91FF900C
:10218000EF90DF90CF90BF90AF909F908F900C9486
:102190006F0CE1E2F3E080818E7F8083608171814A
:1021A000828193810E94150C10922C022FEF80E700
:1021B00092E0215080409040E1F700C000000C9474
:1021C0006F0CE1E2F3E080818E7F808310922C021D
:1021D0002FEF80E792E0215080409040E1F700C06F
:1021E00000000C946F0C60912103669570E04BE049
:1021F00050E08CE091E00E94F930892B19F481E0E5
:1022000080932C020E9491249093250280932402B3
:1022100008959091210390FF35C09170811102C003
:10222000926006C08B3210F0946502C0880F982B24
:1022300090932103662351F0609121037091220352
:1022400080912303909124030E94150C6091210337
:10225000669570E04BE050E08CE091E00E94F93030
:10226000892B19F010922C0202C00E94F31081E019
:1022700080932702409124036091230380912203DD
:102280000C94130E0895682F90912103969581E088
:10229000890F8B3208F081E00C94091181E00C94D5
:1022A0004311682F9091210396958FEF890F09F4C0
:1022B0008AE20C94091181E00C94511161E00C94B4
:1022C0000911E1E2F3E080818160808386950C94BE
:1022D0005E118091210380FD0C94C9100C94611152
:1022E00060E00C94091180912A0281112EC00E9495
:1022F0006922811104C00E9423230E94270C0E949E
:10230000110C609321037093220380932303909315
:1023100024036E7F61F40E94270C0E94110C6093CD
:1023200021037093220380932303909324030E943C
:10233000FE0B10922C028091210380FF03C0869532
:102340000E94701181E080932A020895E1E2F3E097
:1023500080818160808386950C94701110922C028C
:1023600008950F931F93CF93DF9380912C028823BE
:1023700009F49CC080912B02E0912103E695E81BB3
:10238000E0932602823049F4F0E0EB56F54FE491F9
:10239000CE2FD0E008EC1CE059C0863049F4F0E0C4
:1023A000EE56F54FE491CE2FD0E00CED1CE04EC080
:1023B000893051F4E695F0E0E157F54FE491CE2FE6
:1023C000D0E006E11EE042C08F3051F4E695F0E027
:1023D000E457F54FE491CE2FD0E001E51EE036C082
:1023E000853149F4F0E0E757F54FE491CE2FD0E086
:1023F00006EC1EE02BC08831D9F0833239F4E7E8CF
:10240000FAE0C591D4910CEE1CE020C08432A9F012
:102410008532C1F48E2F63E00E941030E92FF0E086
:10242000EC57F54FE491CE2FD0E00AE010E10EC05A
:10243000C8E2D0E008E31FE009C0C4EFD1E00BEC34
:102440001FE004C0C0EDD7E00CEE1BE08091270236
:10245000882389F0109227020E9491249E012095E2
:102460003095820F931F909325028093240210923F
:1024700029021092280280912402909125020E9444
:102480009D248C179D0790F0E0912402F091250285
:10249000CE0FDF1FD0932502C093240284E292E086
:1024A000F801DF91CF911F910F910994DF91CF91A6
:1024B0001F910F910895882311F0FA0101C0FB01CB
:1024C0000994CF93DF93C82FD62F0E94360C8C1718
:1024D00040F00E94360C8D1720F4DF91CF910C94C0
:1024E0004E118C2FDF91CF910C945E110F931F939F
:1024F000CF93FB01C281CC2309F463C08C010E94FD
:10250000B8218272F801E35CFC45E431F10508F082
:1025100059C0EA5AFF4F0C9466300E94691106C0F8
:102520004BE551E16EE471E10E945B12C0E04AC0EC
:102530004EE451E16BE571E1F7CF44ED5DE067EC0E
:102540007DE0F2CF47EC5DE064ED7DE0EDCF42EF62
:102550005DE063EE7DE0E8CF43EE5DE062EF7DE0BD
:10256000E3CF40E15EE061E07EE0DECF41E05EE0AF
:1025700060E17EE0D9CF49E65CE062E57CE0D4CF63
:1025800042E55CE069E67CE0CFCF81E017C065E022
:1025900082E010C068E086E00DC06EE089E00AC00D
:1025A00064E18FE007C067E185E104C088E106C00F
:1025B00062E289E10E946112B9CF83E20E945E115A
:1025C000B5CFC1E08C2FCF911F910F9108950E943C
:1025D0006922811102C00E9423230E94A4228093B9
:1025E0005603282F26952695269530E0263031056E
:1025F00024F087708862809356038091560380FF91
:1026000004C086958695869501C080E00C94F613EB
:1026100020915603822F869586958695482F50E007
:102620004530510554F48F5F982F990F990F990FEA
:10263000822F8770892B8093560380915603816087
:10264000809356030E94A822809156038695869512
:1026500086950C94F61380915603982F969596952F
:102660009695A1F0915E990F990F990F8770892B1C
:1026700080935603887F91E009F490E0809156039F
:1026800090FB80F9809356030E94A8228091560304
:102690008695869586950C94F6138091560380FD59
:1026A00013C0816080935603813019F489E08093D0
:1026B0005603809156030E94A82280915603869566
:1026C000869586950C94F61308958091560380FFA5
:1026D00008C08E7F809356030E94A82280E00C944D
:1026E000F61308958091560380FD0C9465130C94A5
:1026F0004D1390915603892F8695869586958F5F09
:102700008F719770863038F4880F880F880F892B67
:102710008093560302C09093560380915603887F9E
:1027200091E009F490E08091560390FB80F980934A
:1027300056030E94A8228091560386958695869519
:102740000C94F613863008F085E09091560397704C
:10275000282F220F220F220F922B90935603987F3F
:1027600021E009F420E09091560320FB90F990932A
:1027700056030C94F6130E94A213809156030C94F6
:10278000A8229C01FB018281882349F12E3BFCE5B4
:102790003F07C9F040F42C3BECE53E0769F02D3BC8
:1027A0003C4561F00895203C9CE5390791F070F0BC
:1027B000213C3C4589F0089585E001C080E00E94FD
:1027C000BB1380E008950E942B13FBCF0E940813D7
:1027D000F8CF0E947213F5CF0E947913F2CF81E0F7
:1027E0000895269A2E9808952E980895CF92DF92F4
:1027F000EF92FF92CF93C82F863050F4811109C019
:10280000809180008F7D809380000E94F41306C029
:10281000C5E0809180008062809380002C2F30E0A2
:10282000AFEFBFEF0E94743025E030E040E050E0B1
:102830000E944430B42FA32F922F8827492F5A2F5C
:102840006B2F7727CA014C3724E1520728F469E03F
:1028500070E00E941C3029C0DB01CA018A50974DEC
:10286000AF4FBF4F6627782F892F9A2F25EF38E279
:1028700041E050E00E94443069017A01CA01B90187
:102880000E9400309B01AC01C701B6010E940030DC
:10289000BB27A92F982F872F009721E0A207B1050A
:1028A00011F0BC0102C06FEF7FEF70938B0060935B
:1028B0008A00CF91FF90EF90DF90CF900895089518
:1028C0000E94F11382E28093800089E1809381006D
:1028D0008FEF9FEF90938700809386000C94E71210
:1028E0006A9A2EB12B7F3EB134604FB7F894FC0149
:1028F000CB01880F991F680F791F6E0F7F1FE61796
:10290000F70789F0819198E03EB9000000C087FF89
:102910002EB9880F000000C000C000C02EB900C052
:102920009A9591F7ECCF4FBF8FE594E00197F1F7BF
:1029300000C0000008950F931F93CF93DF93C42F1F
:10294000D22FFC0182818823C9F040932F020E947C
:10295000912490932E0280932D0280E28C0F883078
:1029600008F057C0C77081E001C0880FCA95EAF728
:10297000DF91CF911F910F910C945C1980912F02E0
:10298000481330C080912D0290912E020E949D2408
:10299000883C910538F510E21D0FCD17B9F080E2A3
:1029A0008C0F883040F4C77081E001C0880FCA9551
:1029B000EAF70E946319183028F581E09D2F97707F
:1029C00001C0880F9A95EAF70E945C19802F0E9437
:1029D00049191830F0F4D77081E001C0880FDA95FA
:1029E000EAF70AC080E28C0F883098F4C77081E063
:1029F00001C0880FCA95EAF7DF91CF911F910F911F
:102A00000C946319802FDF91CF911F910F910C943B
:102A10004919DF91CF911F910F9108950F939C0158
:102A2000CB01243F4CE5340731F188F4293DFCE526
:102A30003F07D9F02A3D4CE5340779F1283D3C4564
:102A4000A9F506E221EE41EE68ED7CE52BC0263FBC
:102A5000FCE53F07E1F0A8F0273F3C4539F507E2E8
:102A600025EE46EE67EF7CE51DC007E225EE45EE5C
:102A700069ED7CE517C006E221EE40EE64EF7CE5EF
:102A800011C007E225EE44EE65EF7CE50BC006E2DF
:102A900021EE42EE66EF7CE505C008E221E045EE5E
:102AA0006AED7CE50E949B1480E008C0FC018281F5
:102AB000882319F010922F0201C081E00F91089530
:102AC000CF93DF93EC01FB018281882309F41FC1BE
:102AD000C230FCE5DF0708F41BC1C6319CE5D9070D
:102AE00038F09E012B5F3C452930310508F010C1BC
:102AF0000E94862290935C0380935B03C031ECE5D7
:102B0000DE0709F4C3C008F041C0C8308CE5D8071F
:102B100009F49AC0F0F4C430ECE5DE0709F487C08C
:102B200068F4C2308CE5D80709F477C0C330DC45BF
:102B300009F0E3C080915B03826076C0C630ECE5AB
:102B4000DE0709F46EC008F07BC080915B038860EB
:102B50006BC0CC308CE5D80709F485C068F4CA3066
:102B6000ECE5DE0709F474C008F079C00E94EC1BA4
:102B700080915B03806858C0CE308CE5D80709F49B
:102B800076C008F07FC080915B038BC0CC3FECE542
:102B9000DE0709F44FC018F5C3318CE5D80709F4F6
:102BA0007DC078F4C131ECE5DE0709F473C0C231B1
:102BB000DC4509F0A2C00E94EC1B80915B038F777B
:102BC00033C0C5318CE5D80709F472C008F486C05B
:102BD000CB3FDC4509F091C080915C033EC0C1153C
:102BE000FDE5DF0709F45FC058F4CE3F9CE5D90747
:102BF00009F444C008F43FC080915C0382602DC09A
:102C0000C230FDE5DF0709F475C008F45DC0C330CC
:102C1000DD4509F072C080E06EC080915B03816089
:102C200003C080915B03806180935B0366C08091E9
:102C30005B0311C080915C03826080935C035DC084
:102C400080915B038062F0CF80915B038064ECCF66
:102C500080915B0388608460E7CF8160EECF8091D4
:102C60005B038E7FE1CF80915B038D7FDDCF809111
:102C70005B03877FD9CF80915C0318C080915C0390
:102C80008D7FDBCF80915B038F7ECECF80915B0306
:102C90008F7DCACF80915B038F7BC6CF80915B0312
:102CA000877F8B7FC1CF80915C038D7F8E7FC5CF67
:102CB00080915B0382FB222720F991E0922790FB11
:102CC00082F990FB83F9B0CF80915C03982F9095A7
:102CD00091708E7F892B90FB81F9AFCF0E94EC1B06
:102CE00080915B0387FB222720F991E0922790FBDC
:102CF00087F99ACF81E00E94252380915B03909110
:102D00005C030E9497220E94EC1B80E001C081E0DE
:102D1000DF91CF910895CF93DF9386319C4541F5A4
:102D2000EB010E94B821982F8A81209117013091E0
:102D30001801882379F09A7A81E009F480E0809381
:102D40003002911102C069E201C065E3C9010E942D
:102D5000C0230AC080913002811102C069E201C023
:102D600065E3C9010E94CB230E94062280E001C0D6
:102D700081E0DF91CF9108959093360280933502E0
:102D80000895E0913502F0913602309721F00190DC
:102D9000F081E02D099480E00895E0913502F091F2
:102DA0003602309799F020912B01222359F020917F
:102DB0005B0327FF07C0DC012C9111962C93119720
:102DC00025E02C930280F381E02D09940895E09191
:102DD0003502F0913602309739F022E0DC012C9375
:102DE0000480F581E02D09940895209133023091FB
:102DF00034022817390771F090933402809333021C
:102E0000E0913502F0913602309721F00680F7818B
:102E1000E02D099408952091310230913202281753
:102E2000390771F09093320280933102E0913502BC
:102E3000F0913602309721F00084F185E02D09945D
:102E4000089585B7806885BF85B7806885BF089578
:102E500081E008950C94281708950C942C170C9475
:102E60002C170C942F170C942C170C9433170C94CC
:102E70002C170E9421170E9437170C9435170E94B7
:102E800088240E945F0A0E9442250E94E7120E9445
:102E900073110C9431177F928F929F92AF92BF92D1
:102EA000CF92DF92EF92FF920F931F93CF93DF9316
:102EB000CDB7DEB72A970FB6F894DEBF0FBECDBFF1
:102EC0000E942D170E942C170E94910A0E942A1717
:102ED000811111C08FEF89838A831B820E94912404
:102EE0008160782F9D838C8349815A816B818D818C
:102EF0000E9403184FC048E3A42E42E0B42E00E025
:102F000010E0702E802F0E94310A6C01F501819033
:102F100091905F01882699268114910431F40F5F06
:102F20001F4F0530110569F7D5CF8091DA0281FD79
:102F30000E943A0A80E0EE24E394F12C94012E21C1
:102F40003F21232B09F18E837F82CE20DF2081E079
:102F5000CD2809F480E088870E9491248160782F31
:102F60009A8789874E815F8168858A850E940318C8
:102F7000000F111FF801E85CFD4F80819181E82668
:102F8000F926F182E08206C08F5FEE0CFF1C8F30C5
:102F9000A9F6C5CF0E94B1110E945F140E941328A8
:102FA0000E94C116909137028917C9F00E94C1167C
:102FB000809337022A960FB6F894DEBF0FBECDBFBE
:102FC000DF91CF911F910F91FF90EF90DF90CF9005
:102FD000BF90AF909F908F907F900C941A082A9684
:102FE0000FB6F894DEBF0FBECDBFDF91CF911F911A
:102FF0000F91FF90EF90DF90CF90BF90AF909F9098
:103000008F907F900895CF93DF93CDB7DEB72B9746
:103010000FB6F894DEBF0FBECDBF4F8358876987C8
:103020007A878B87DE01119686E0FD0111928A95E1
:10303000E9F785E0FE01379601900D928A95E1F758
:1030400049815A816B817C818D819E810E94A51E60
:103050002B960FB6F894DEBF0FBECDBFDF91CF9198
:103060000895FC01808191810E9479210895CF9378
:10307000882309F4A4C0C82F8238C1F40E94C11665
:1030800081FD9DC069E380911701909118010E9414
:10309000C0230E9406222FEF81EE94E02150804051
:1030A0009040E1F700C0000069E319C0833801F5E2
:1030B0000E94C11680FD83C063E580911701909145
:1030C00018010E94C0230E9406222FEF81EE94E097
:1030D000215080409040E1F700C0000063E58091FE
:1030E0001701909118010E94CB23CF910C940622D6
:1030F0008438C1F40E94C11682FD61C067E48091EA
:103100001701909118010E94C0230E9406222FEF00
:1031100081EE94E0215080409040E1F700C0000033
:1031200067E4DDCF8CEF8C0F813AD0F46C2F809167
:103130001701909118010E944023882349F06C2FB9
:1031400080911701909118010E94CB230E940622C2
:103150006C2F80911701909118010E94C023C5CF58
:1031600080E28C0F883048F4C77081E001C0880F7E
:10317000CA95EAF70E94BB21B8CFEBE5EC0FE3302C
:1031800040F4F0E0E653FE4F808190E0CF910C9444
:10319000F516E8E5EC0FE73150F4F0E0EE0FFF1F15
:1031A000E456FE4F80819181CF910C940B17C03F64
:1031B00030F08C2F0E940827CF910C94F527CF91E7
:1031C0000895882309F464C0823879F40E94C116F6
:1031D00081FF5EC069E380911701909118010E9400
:1031E000C0230E94062269E310C08338B1F40E9414
:1031F000C11680FF4DC063E58091170190911801C1
:103200000E94C0230E94062263E5809117019091DD
:1032100018010E94CB230C940622843879F40E9472
:10322000C11682FF35C067E48091170190911801A3
:103230000E94C0230E94062267E4E7CF9CEF980F0C
:10324000913A10F4682FE1CF90E2980F983050F443
:10325000877091E001C0990F8A95EAF7892F0E9443
:10326000C121D9CF9BE5980F933020F480E090E006
:103270000C94F51698E5980F973120F480E090E0D3
:103280000C940B17803F20F00E9470270C94F527B8
:103290000895CF93C82F0E943718C93349F42FEFF0
:1032A00087EE93E0215080409040E1F700C000009D
:1032B0008C2FCF910C94E118882321F00E94BB2120
:1032C0000C9406220895882321F00E94C1210C94B9
:1032D00006220895CF92DF92EF92FF920F931F93F1
:1032E000CF93DF937C01062FC72FFC011581129528
:1032F0001F70D281D1110E94D8210E94B121882350
:1033000099F0DD2389F08C2F807F803421F080E2DA
:10331000800F883048F082E00E9450220E94B12144
:1033200091E0D82ED92601C0D12CCC2EC2948FE0AA
:10333000C8228C2D90E0FC01E659FF4F0C946630BA
:103340008C2F807FCF70882311F0C295C07FDD2342
:1033500099F0CC2309F48DC180E2800F883010F001
:10336000011104C08C2F0E94BB2103C08C2F0E942E
:10337000CB210E9406227DC1802F0E94E118CC2320
:1033800009F49CC180E2800F883010F0011104C064
:103390008C2F0E94C12103C08C2F0E94D1210E943A
:1033A00006228CC18C2F807FCF70803211F0C295A5
:1033B000C07F002319F00130C9F022C0DD2371F075
:1033C000112341F0113031F40E94EB218C2B0E942B
:1033D000F32174C10E94EB218C2B1DC0112319F025
:1033E000113009F46BC10E94FC2125C0DD2321F0BE
:1033F000163008F063C10EC0153008F05FC11BC065
:10340000DD2361F0112331F0F701858180FF31C1A7
:103410008F7085838C2F0E945C1950C1112359F045
:10342000093309F037C1FFEF27EE83E0F150204068
:103430008040E1F72DC18C2F0E9463193FC18C2F72
:1034400086958695837019F0813061F037C1DD2350
:1034500021F0802F9C2F937002C080E090E00E94AA
:10346000F51634C1DD2321F0802F9C2F937002C00C
:1034700080E090E00E940B1729C1802FDD2319F016
:103480000E94082702C00E9470270E94F5271EC1D3
:103490008C2F837009F045C0D11114C1402F429583
:1034A00046954770440F440F602F6F70862F90E051
:1034B000A0E0B0E0042E04C0880F991FAA1FBB1F14
:1034C0000A94D2F704FF10C00FE010E020E030E0D3
:1034D00004C0000F111F221F331F4A95D2F7009519
:1034E00010952095309503C000E010E09801C69536
:1034F000C695C370BC01CD01602B712B822B932B21
:10350000C23049F058F4C13019F00E94F61FDAC0F9
:103510000E94E41FD7C00E940820D4C00E94E21F6E
:10352000D1C0DD2319F08C2F817001C086958823CE
:1035300009F4C8C0402F429546954770440F440F88
:10354000602F6F70862F90E0A0E0B0E0042E04C0E2
:10355000880F991FAA1FBB1F0A94D2F704FF10C03F
:103560000FE010E020E030E004C0000F111F221F28
:10357000331F4A95D2F7009510952095309503C0DA
:1035800000E010E09801C695C695C370BC01CD015E
:10359000602B712B822B932BC23049F058F4C13031
:1035A00019F00E94BB208EC00E94A9208BC00E94EF
:1035B000CD2088C00E941C2085C0CF70DD2339F04B
:1035C0008C2F0E944220802F0E945C197BC0802F8C
:1035D0000E9463198C2F0E94632074C0023F01F186
:1035E00028F4003F41F0013FA1F03FC0033FF9F054
:1035F000043F39F13AC0DD2341F0153008F05EC0D8
:103600008C2F8F710E94882059C0163008F056C048
:10361000F7CFDD2339F08C2F8F710E9442204EC0EE
:10362000DD23C9F38C2F8F710E94632047C0DD23F7
:1036300029F08C2F8F710E942D2040C00E942820DD
:103640003DC0DD2349F0CF718C2F0E94422063E002
:103650008C2F0E943B2232C081E00E945022123007
:1036600068F182E00E94502229C0DD2331F011234D
:1036700091F2802F0E94371821C0112399F209334B
:1036800049F49FEFE7EEF3E09150E040F040E1F7BE
:1036900000C00000802F0E94E11810C04C2F4F7016
:1036A000602FC7010E9423080E94531F0FC04C2F98
:1036B0004F70602FC7010E94260808C088EF8C0D4C
:1036C000843020F40E94C1160E941A08DD20C9F03F
:1036D0000E94AD2180FD15C0F70112820E94A72132
:1036E0000E944220C7010E94A21B0E94A721DF91D5
:1036F000CF911F910F91FF90EF90DF90CF900C949E
:103700006320DF91CF911F910F91FF90EF90DF9099
:10371000CF9008950F931F93CF93DF93EC016881AF
:1037200079818A810E9484218C010E94DF200E947D
:10373000D01FB801CE010E946A19DF91CF911F916D
:103740000F910895CF93DF93EC01988189812B81AC
:103750003C81232B31F08F3F31F481E09F3F19F4FE
:1037600003C081E001C080E080FD19C0CE010E944D
:10377000BC0781110CC00E94B121882381F08A818D
:10378000882369F082E0DF91CF910C945022CE0122
:103790000E948A1BCE01DF91CF910C949307DF9199
:1037A000CF9108950E94D8210E94E8210E9406220C
:1037B0000E9426290E94F52780E090E00E94F516DD
:1037C00080E090E00C940B17809117019091180104
:1037D0000E94D6230C94D21B0E94C8210C94E41B97
:1037E000E92FE295EF704E2F50E0FA013297EE305C
:1037F000F105B0F4E658FF4F0C946630803F91F02D
:1038000018F4883E68F40EC0843F51F40BC0883E23
:1038100048F0813F29F406C093FB882780F908957A
:1038200080E0089581E008950E9479210E94F01BB4
:103830000895CF93DF9300D000D01F92CDB7DEB7AD
:103840000F900F900F900F900F90DF91CF910895F0
:10385000CF93DF9300D000D000D0CDB7DEB726964F
:103860000FB6F894DEBF0FBECDBFDF91CF910895A4
:103870001F93CF93DF93C091430216E080914402DF
:10388000C81799F0D0E01C9FF0011D9FF00D112486
:10389000EB5BFD4F40815181628173818481958111
:1038A0000E94281C2196C770E9CFDF91CF911F910C
:1038B000089540917502509176026091770270915F
:1038C00078028091790290917A020C94281C0F93CF
:1038D0001F93CF93DF9380917A0282958F7009F0C6
:1038E0005DC080917702882309F458C0809143021B
:1038F000109144026091750270917602C091780235
:10390000D091790291E06F3F09F090E0292F06E015
:10391000811709F443C0209721F07F3F21F030E068
:1039200003C031E001C0322F90E030FD34C0089F69
:10393000F001099FF00D1124DF01AB5BBD4F119623
:103940003C911197371327C03C91361324C012962F
:103950003C91129731111FC013964D915C911497B1
:103960004C1B5D0B483C5105B0F480917A028F707E
:10397000806180937A02E65BFD4F80818F70806169
:10398000808385E792E00E94A21BDF91CF911F9177
:103990000F910C94381C01968770BACFDF91CF91AC
:1039A0001F910F9108959F92AF92BF92CF92DF9295
:1039B000EF92FF920F931F93CF93DF93CDB7DEB7B4
:1039C00061970FB6F894DEBF0FBECDBF8C0185E0C6
:1039D000F801DE011D9601900D928A95E1F7F8013C
:1039E00040815181E2809091750260917602209130
:1039F0007802309179022115310531F06F3F31F4B1
:103A000081E09F3F19F403C081E001C080E0F82FFE
:103A1000F1709F2E80FD46C1F801A380B48085E738
:103A2000C82E82E0D82EF0907702F501E21BF30B4E
:103A3000FF2009F4DFC080917A02E83CF10508F02C
:103A40009BC0282F207F09F052C0561313C0491382
:103A500011C0FE2CE1100EC08F70806180937A023D
:103A60000E94591CC6010E94A21B80917A02F80193
:103A7000858358C1AB2831F05F3F31F481E04F3F7F
:103A800019F403C081E001C080E080FD03C081E043
:103A90008E2502C080E090E0F82FF170FF2E80FFAD
:103AA0001CC0809143022091440236E0821709F441
:103AB00017C190E0389FF001399FF00D1124EB5BA6
:103AC000FD4F6181561306C06081461303C06281B9
:103AD000E61203C001968770E9CFFE2CEE2009F4B0
:103AE00021C180917A02816080937A025AC0561374
:103AF00006C0491304C0E11002C0F8019FC04D8701
:103B00005E878D859E850E94141C882379F1EE20A6
:103B100069F120917A02822F82958F7090E002974E
:103B200074F0809175029091760298878F83198640
:103B3000BB86AA862C87CE0107960E94A21B86E030
:103B4000F801A5E7B2E001900D928A95E1F70E9495
:103B5000671C0E94591C0DC0561729F14D875E87BE
:103B60008D859E850E94141C81112CC0C8010E9465
:103B7000A21BFF24F394D6C0282F207F69F77A2D4B
:103B8000B98AA88A6E2D89890E94191C85E792E05E
:103B90000E94A21B86E0F60111928A95E9F70E9425
:103BA000591CF12CBFC04913D9CFE110D7CFF80170
:103BB0008583C8010E94A21B86E0F60111928A95B6
:103BC000E9F7B0C0EE2091F220917A02822F82951F
:103BD0008F7090E002970CF4B2CF809175029091B3
:103BE00076029A8389831B82BD82AC822E83CE01AA
:103BF0000196A3CFE83CF10508F047C0FE2CEE206B
:103C000009F4B4CF561330C049132EC020917A0264
:103C100020FD21C0822F82958F70482F50E04115E2
:103C20005105C9F0F80125834F30510541F08F5FF0
:103C3000982F9295907F822F8F70892B8583C80152
:103C40000E94A21B86E0F801A5E7B2E001900D9268
:103C50008A95E1F742C086E0F801A5E7B2E001905D
:103C60000D928A95E1F75EC04D875E878D859E85B2
:103C70000E94141C811163CF80917A02816080932D
:103C80007A02C8010E94A21B4DC07A2DB98AA88A67
:103C90006E2D89890E94191C86E0F60111928A9581
:103CA000E9F71BC0EE2009F461CF4D875E878D8553
:103CB0009E850E94141CF82E882309F457CF86E0B5
:103CC000F801A5E7B2E001900D928A95E1F785E74A
:103CD00092E00E9431180E94671C0E94591C22C069
:103CE0004D875E878D859E850E947921292F22959B
:103CF0002F70223028F49F7039F0811105C00BC05D
:103D0000243028F49F7049F4805E883020F0C80188
:103D10000E94A21B9F2CF92C05C0F8019581907F71
:103D200099F7F9CF8F2D61960FB6F894DEBF0FBECD
:103D3000CDBFDF91CF911F910F91FF90EF90DF905A
:103D4000CF90BF90AF909F9008951F93CF93DF9334
:103D5000CDB7DEB72C970FB6F894DEBF0FBECDBF40
:103D60004F83588769877A878B879C87CE01079610
:103D70000E94D31C8823D1F09F8188852A853B85AA
:103D8000232B31F08F3F31F481E09F3F19F403C0C2
:103D900081E001C080E080FD47C04F815885698582
:103DA0007A858B859C850E94281C3EC086E0FE019A
:103DB0003796DE01119601900D928A95E1F7FF8109
:103DC000E8856A857B856115710531F0EF3F31F437
:103DD00081E0FF3F19F403C081E001C080E080FD75
:103DE00023C02091440230E0C901019687709927D1
:103DF0004091430250E084179507F1F1F983EA837B
:103E00007D836C8396E0929FD001939FB00D112427
:103E1000AB5BBD4FFE01319601900D929A95E1F793
:103E2000809344020E94381C16E0809143029091D6
:103E30004402891771F1189FC00111248B5B9D4FBB
:103E40000E94D31C882329F1E09143021E9FF001B8
:103E50001124EB5BFD4F408151816281738184812C
:103E600095810E94281C8091430290E00196877002
:103E7000992780934302D9CF0E94EC1B10924402F1
:103E800010924302E5E7F2E086E0DF011D928A9599
:103E9000E9F72C960FB6F894DEBF0FBECDBFDF91C9
:103EA000CF911F910895EF92FF920F931F93CF939D
:103EB000DF938C01892B09F46CC0F12CEE24E39480
:103EC000E8012196F8018491843740F4843008F0A9
:103ED00051C0813081F0823019F15BC0853709F41F
:103EE00044C0A8F19CE7980F903708F052C08F7734
:103EF0000E94E11841C00E5F1F4FFE01849190E2C5
:103F0000980F983050F48770FE2D01C0FF0F8A95EE
:103F1000EAF78F2F0E94DB2114C00E9437182DC0B2
:103F20000E5F1F4FFE01849190E2980F983060F46D
:103F30008770FE2D01C0FF0F8A95EAF78F2F0E9430
:103F4000E1210E94062219C00E94E11816C00E5FEE
:103F50001F4FFE01C491CC2381F08FE99FE00197B0
:103F6000F1F700C00000C150F6CF0E5F1F4FFE01F9
:103F7000F49003C00E9437188E018F2D882309F416
:103F80009FCFEFE9FFE03197F1F700C000008150CB
:103F9000F5CFDF91CF911F910F91FF90EF90089592
:103FA000089508950C94D11F0C94D21F0E94D41F21
:103FB0006093B1027093B2028093B3029093B40203
:103FC0000C94D21B0C94D61F0F931F930091B10237
:103FD0001091B2022091B3023091B402602B712B88
:103FE000822B932B1F910F910C94D61F0F931F932D
:103FF0000091B1021091B2022091B3023091B4024B
:1040000060237123822393231F910F910C94D61F59
:104010000F931F930091B1021091B2022091B3024D
:104020003091B40260277127822793271F910F9147
:104030000C94D61F0C94D11F0E941A206093AD02DD
:104040007093AE028093AF029093B0020C94D21B97
:1040500060E070E0CB010C941C200F931F9341E0B3
:1040600050E060E070E08A019B0104C0000F111F66
:10407000221F331F8A95D2F7C901B8011F910F91F2
:104080000C941C200F931F9341E050E060E070E01F
:1040900004C0440F551F661F771F8A95D2F7809181
:1040A000AD029091AE02A091AF02B091B0028A0130
:1040B0009B01082B192B2A2B3B2BC901B8011F91FF
:1040C0000F910C941C200F931F9341E050E060E08F
:1040D00070E004C0440F551F661F771F8A95D2F702
:1040E00040955095609570958091AD029091AE028B
:1040F000A091AF02B091B0028A019B01082319235D
:104100002A233B23C901B8011F910F910C941C2055
:104110000F931F9341E050E060E070E004C0440F53
:10412000551F661F771F8A95D2F78091AD02909137
:10413000AE02A091AF02B091B0028A019B010827A4
:1041400019272A273B27C901B8011F910F910C9409
:104150001C200F931F930091AD021091AE0220918D
:10416000AF023091B002602B712B822B932B1F91E9
:104170000F910C941C200F931F930091AD0210918E
:10418000AE022091AF023091B002602371238223EE
:1041900093231F910F910C941C200F931F93009158
:1041A000AD021091AE022091AF023091B0026027B3
:1041B0007127822793271F910F910C941C2008953B
:1041C0002FE0929F800D1124E82FE695E695E69565
:1041D000877051E001C0550F8A95EAF785E0E89FA6
:1041E000F0011124E558FD4F20E030E070E04081FF
:1041F000CB01022E02C0969587950A94E2F7817052
:10420000819584278523842781932F5F3F4F253015
:10421000310569F708952FE0929F800D1124682FD2
:10422000669566956695982F977085E0689FB001B2
:10423000112440E050E080E0FB01E40FF51FE55859
:10424000FD4F208130E0092E02C0369527950A9453
:10425000E2F721703327042E01C0220F0A94EAF7F7
:10426000822B4F5F5F4F4530510531F70895BF9264
:10427000CF92DF92EF92FF920F931F93CF93DF9332
:104280008C01C090AD02D090AE02E090AF02F090F1
:10429000B0028091B1029091B202A091B302B091AC
:1042A000B402C82AD92AEA2AFB2ACFE1D0E0D701F2
:1042B000C6010C2E04C0B695A795979587950A94CC
:1042C000D2F780FD04C0219790F7B12C07C0BC2E17
:1042D000B8018C2F0E9442080197A9F38B2DDF9122
:1042E000CF911F910F91FF90EF90DF90CF90BF90F3
:1042F0000895CF93DF93EC010E943721BE010E9405
:104300004208DF91CF9108951F93CF93DF93EB0184
:1043100090914202992321F0CB010E94792113C090
:10432000882349F0CB010E943721182F682FCE0136
:104330000E94E02004C0CB010E940B21182FBE0177
:10434000812F0E944208DF91CF911F9108958091A3
:10435000B50285958595859508958091B5028770FC
:1043600008959091B502977081E009F480E0089576
:104370008091D90208959091D902892B8093D90216
:10438000089580959091D90289238093D902089548
:104390001092D90208959091D802892B8093D80267
:1043A000089580959091D80289238093D80208952A
:1043B0001092D80208959091D702892B8093D7024A
:1043C000089580959091D70289238093D70208950C
:1043D0001092D70208958091B602089508950C9422
:1043E000EE210C94EF219091B602981721F0809362
:1043F000B6020C94F12108958091B602882329F029
:104400001092B60280E00C94F1210895E09117011A
:10441000F09118018091D9028083E0911701F09109
:10442000180190818091D802892B8083E091170137
:10443000F091180190818091D702892B808380911F
:10444000B602882381F0E0911701F0911801908164
:10445000892B808380911701909118010E942A2353
:1044600081110E94FC2180911701909118010C94F8
:10447000CD160C94EE2198E0899F90011124262BF3
:104480002093B5020E9442208091B50285958595C2
:1044900085950C9439221092B50280E00C94392253
:1044A0002091B502809582238093B502982F977052
:1044B00079F430E0482F082E000C550B24173507EF
:1044C00039F08595859585950E9463200C944B2243
:1044D000089580E090E00E94143121E08C3E9E4FD0
:1044E00009F020E0822F089582E090E00C940631DC
:1044F000682F82E090E00C941A3183E090E00C94F5
:104500000631682F83E090E00C941A31CF9384E059
:1045100090E00E940631C82F81E290E00E940631AF
:104520002C2F30E0A901582BCA01CF910895CF93C9
:10453000C92F682F84E090E00E941A316C2F81E22D
:1045400090E0CF910C941A3186E090E00C94063103
:10455000682F86E090E00C941A31AB01BC018FE02B
:1045600090E00C942C31AB01BC0183E190E00C9401
:104570002C3160E070E0CB010C94B32260E070E07D
:10458000CB010E94AD220C94B9226CEE7EEF80E04C
:1045900090E00E94383160E082E090E00E941A31A1
:1045A00060E083E090E00E941A311092B102109214
:1045B000B2021092B3021092B40260E084E090E084
:1045C0000E941A3160E081E290E00E941A3160E0BE
:1045D00085E090E00E941A3160E086E090E00E9461
:1045E0001A316FEF87E090E00E941A3140E050E00E
:1045F000BA0188E090E00E942C3160E08DE090E00C
:104600000E941A3140E050E0BA0188E190E00E9437
:104610002C3160E087E190E00E941A3140E050E0E8
:10462000BA018CE190E00E942C3160E080E290E0E1
:104630000E941A3140E050E0BA0188E190E00E9407
:104640002C310C94BE220C94C522682F8EE090E091
:104650000C941A31FC01329680912B01882331F0A1
:1046600080915B0387FF02C09EE101C096E080E07D
:10467000915028F021912223D9F38F5FF9CF08952B
:10468000662351F120912B012223E9F020915B0355
:1046900027FF19C0462F4695469546954E31E0F4C2
:1046A000677021E030E002C0220F331F6A95E2F705
:1046B000FC01E40FF11D828190E02823392381E081
:1046C000232B69F409C0FC013296089621916217E8
:1046D00029F0E817F907D1F780E0089581E00895FF
:1046E0009C01FC0132969FEF80E04191461789F0D2
:1046F0009F3F19F4411101C0982F8F5F8630A9F7B1
:104700009F3F39F0F901E90FF11D97FDFA9562839A
:10471000089508959C012A5F3F4FFC014281461392
:1047200001C01282019682179307B9F70895262FC8
:104730002695269526952E3168F4FC01E20FF11D91
:10474000677021E030E001C0220F6A95EAF78281AC
:10475000282B22830895262F2695269526952E31DF
:1047600070F4FC01E20FF11D677021E030E001C040
:10477000220F6A95EAF720958281282322830895E3
:1047800020912B01222329F020915B0327FD0C941B
:1047900097230C94702320912B01222329F0209140
:1047A0005B0327FD0C94AB230C948A2320912B01EF
:1047B000FC013296222331F080915B0387FF02C017
:1047C0008EE101C086E0DF011D928A95E9F7089528
:1047D00008950C94E8230C94E823CF930E94EB23D4
:1047E0000E94910A0E94E923C0E08C2F0E94310AA6
:1047F000892B29F4CF5FC530C1F780E001C081E08B
:10480000CF9108950C94E8230C9402240E94042470
:1048100080916103843009F43CC01092DB0220E4F3
:1048200088E190E00FB6F894A895809360000FBEE1
:104830002093600080E00E94F61380E00E941A0836
:104840000E94AE118091DC0281110AC081E0809348
:10485000DC028091210381708093DD020E94E110CF
:104860000E94042483B7817F846083BF83B7816003
:1048700083BF7894889583B78E7F83BF0FB6F894F3
:10488000A89580916000886180936000109260001C
:104890000FBE08950C94E8230E94EC1B0E94E712BF
:1048A0000E94C1160E941A081092DC028091DD025B
:1048B00081110E94A6110E94F3100C944A241F92A9
:1048C0000F920FB60F9211248F939F93AF93BF93C4
:1048D0008091DB02811113C080915703909158039E
:1048E000A0915903B0915A034196A11DB11D809327
:1048F000570390935803A0935903B0935A03BF9161
:10490000AF919F918F910F900FBE0F901F901895B0
:1049100082E084BD93E095BD9AEF97BD80936E00D1
:1049200008952FB7F8948091570390915803A09160
:104930005903B0915A032FBF08959C014FB7F894C3
:104940008091570390915803A0915903B0915A0355
:104950004FBF821B930B089578941F920F920FB64E
:104960000F9211248F939F93AF93BF93809157031E
:1049700090915803A0915903B0915A030196A11D3B
:10498000B11D8093570390935803A0935903B0939C
:104990005A03BF91AF919F918F910F900FBE0F90CF
:1049A0001F90189581E08093E00080E28093D8000A
:1049B0001092C9008FE19EE40197F1F700C000005A
:1049C00087E090EBDC0180936A0390936B03A093E4
:1049D0006C03B0936D039CE088E10FB6F894A89542
:1049E000809360000FBE90936000FFCFAF92BF92A4
:1049F000CF92DF92EF92FF920F931F93CF93C0E07D
:104A0000CC24C394D12CE82EF12C8C2F0E94310A97
:104A10005C0100E010E0C601002E02C0880F991F63
:104A20000A94E2F78A219B21892B31F40F5F1F4FF3
:104A30000F30110581F70AC0602F7C2F80E00E94A3
:104A40002708E816F90691F781E004C0CF5FC5306A
:104A5000E1F680E0CF911F910F91FF90EF90DF90F2
:104A6000CF90BF90AF900895CF93C82F8CE20E9453
:104A7000F624882321F08C2FCF910C94F62480E02B
:104A8000CF910895CF930E946922811102C00E94A4
:104A90002323C5E6C15049F00E94910A8FE39CE9A7
:104AA0000197F1F700C00000F5CF89E20E9434259C
:104AB00081112AC18AE20E94342581110E94232398
:104AC00085E00E94342581110E94D2240E94742224
:104AD0008093DA0287E00E9434258823A9F18BE1D4
:104AE0000E943425882351F08091DA0281FB22272D
:104AF00020F991E0922790FB81F90EC08EE00E9490
:104B00003425882361F08091DA0282FB222720F984
:104B100091E0922790FB82F98093DA0215C080E140
:104B20000E9434259091DA02882341F093FB2227DA
:104B300020F981E0822780FB93F904C0892F8095BA
:104B400080FB90F99093DA028091DA020E94782239
:104B50000E94862290935C0380935B0380EE0E9408
:104B60003425882341F080915B03982F909590FB2A
:104B700080F980935B0389E30E943425882359F0F0
:104B800080915B0381FB222720F991E0922790FB23
:104B900081F980935B0382EE0E943425882359F0CB
:104BA00080915B0382FB222720F991E0922790FB02
:104BB00082F980935B0386EE0E943425882359F0A6
:104BC00080915B0383FB222720F991E0922790FBE1
:104BD00083F980935B0383EE0E943425882359F088
:104BE00080915B0384FB222720F991E0922790FBC0
:104BF00084F980935B0385E30E943425882359F070
:104C000080915B0385FB222720F991E0922790FB9E
:104C100085F980935B0381E30E943425882359F052
:104C200080915B0386FB222720F991E0922790FB7D
:104C300086F980935B0381E10E943425882359F033
:104C400080915B0387FB222720F991E0922790FB5C
:104C500087F980935B0380915B0390915C030E94D2
:104C6000972287E20E943425C82F8EE10E943425C6
:104C70008111C2608FE10E9434258111C46080E2FD
:104C80000E9434258111C86081E20E94342581117F
:104C9000C06182E20E9434258111C06283E20E94D9
:104CA00034258111C06484E20E943425882311F0E8
:104CB000C06802C0CC2329F08C2F0E9481226C2F67
:104CC00003C00E947D22682F70E080E090E00E9487
:104CD000E21F6091AD027091AE028091AF0290919F
:104CE000B0020E941A208FE00E943425882319F018
:104CF00081E00E94252385E10E943425882321F04C
:104D000080E0CF910C942523CF9108958091E40207
:104D100080FF0BC060911E0185E0689FB0011124E7
:104D200075956795759567952BC081FF09C0609152
:104D30001E0185E0689FB00111247595679520C01C
:104D400082FF07C060911E0185E0689FB0011124B9
:104D500017C09091E3029923D1F060911D0196173D
:104D600088F720911E0185E0289F90011124929FD1
:104D7000A001939F500D112470E0CA010E943030B1
:104D80006038710540F46115710519F406C065E0DD
:104D900070E0862F08958FE7089581E0089580914F
:104DA000E40280FF08C060911A0170E07595679574
:104DB0007595679521C081FF06C060911A0170E06A
:104DC0007595679519C082FF04C060911A0170E063
:104DD00010C09091E202992399F060911901961701
:104DE000A0F780911A01899FC001112470E00E94F0
:104DF00030306038710540F46115710519F406C052
:104E000061E070E0862F08958FE7089581E00895AE
:104E1000803F21F40E948626819504C0813F29F4B9
:104E20000E9486268093E8020895823F21F40E9422
:104E30008626819504C0833F29F40E9486268093AC
:104E4000E7020895893F19F40E94CF2605C08A3FE2
:104E500031F40E94CF2681958093E90208958B3F1B
:104E600021F40E94CF26819504C08C3F29F40E9432
:104E7000CF268093EA020895843F21F48091E602D0
:104E8000816017C0853F21F48091E602826011C0E5
:104E9000863F21F48091E60284600BC0873F21F4B5
:104EA0008091E602886005C0883F31F48091E60277
:104EB00080618093E60208958D3F21F48091E402A1
:104EC00081600BC08E3F21F48091E402826005C0B6
:104ED0008F3F29F48091E40284608093E402089576
:104EE000803F39F48091E80287FF6AC01092E8029F
:104EF00067C0813F29F48091E8021816BCF360C0B6
:104F00009091E702823F29F497FF5AC01092E7027E
:104F100057C0833F19F41916CCF352C09091E9029F
:104F2000893F31F419160CF04BC01092E90248C0C9
:104F30008A3F19F497FF44C0F8CF8B3F39F4809132
:104F4000EA0287FF3DC01092EA023AC08C3F29F482
:104F50008091EA021816BCF333C0843F21F480919B
:104F6000E6028E7F17C0853F21F48091E6028D7F97
:104F700011C0863F21F48091E6028B7F0BC0873FF2
:104F800021F48091E602877F05C0883F31F480914B
:104F9000E6028F7E8093E60213C08D3F21F480915C
:104FA000E4028E7F0BC08E3F21F48091E4028D7F5E
:104FB00005C08F3F29F48091E4028B7F8093E40247
:104FC0008091E702811106C08091E802811102C040
:104FD0001092E3028091E902811106C08091EA02F9
:104FE000811102C01092E20208950E949124209142
:104FF000E702211104C02091E802222321F09093BE
:10500000E1028093E0022091E902211104C0209185
:10501000EA02222321F09093DF028093DE0285EEE4
:1050200092E00C94E716EF92FF920F931F93CF93A9
:10503000DF9300D000D000D0CDB7DEB786E0E5EE3C
:10504000F2E0DE01119601900D928A95E1F7E09071
:10505000E702F090E8020091E9021091EA02109252
:10506000E7021092E8021092E9021092EA02E110BF
:1050700003C0FF2009F45DC08091E0029091E1023D
:105080000E949D24AC019091E302992339F0209174
:105090001F0130E02417350758F04BC02091200144
:1050A0008AE0289F900111242417350718F041C089
:1050B0009F3F19F09F5F9093E302EE2061F00E9402
:1050C00086261E1414F09FEF01C091E0989F902D4A
:1050D00011249093E702FF2061F00E9486261F149E
:1050E00014F09FEF01C091E0989F902D11249093B0
:1050F000E8023091E7023323E1F02091E802222315
:10510000C1F045EB3403C0011124992319F09093A9
:10511000E70203C081E08093E70235EB2303C0017F
:105120001124992319F09093E80203C081E0809341
:10513000E802011103C0112309F45DC08091DE0271
:105140009091DF020E949D24AC019091E20299238C
:1051500039F020911B0130E02417350758F04BC07F
:1051600020911C018AE0289F900111242417350703
:1051700018F041C09F3F19F09F5F9093E202002317
:1051800061F00E94CF26101614F09FEF01C091E04D
:10519000989F902D11249093E902112361F00E94B1
:1051A000CF26111614F09FEF01C091E0989F902D2B
:1051B00011249093EA023091E9023323E1F0209127
:1051C000EA022223C1F045EB3403C00111249923E4
:1051D00019F09093E90203C081E08093E90235EB76
:1051E0002303C0011124992319F09093EA0203C00C
:1051F00081E08093EA028091E70281110BC08091E7
:10520000E802811107C08091E902811103C08091F9
:10521000EA0281110E94F527EB82FC820D831E8336
:1052200086E0FE013196A5EEB2E001900D928A95DE
:10523000E1F726960FB6F894DEBF0FBECDBFDF9123
:10524000CF911F910F91FF90EF900895E5EEF2E05E
:1052500086E0DF011D928A95E9F71092E302109231
:10526000E2021092E402089580910B030895CF9317
:10527000DF9300D01F92CDB7DEB7909161039430D9
:1052800019F589837B836A8382E08093E9008FEF3D
:105290009091E800815095FD06C095ED9A95F1F743
:1052A00000008111F5CF8091E80085FF0DC040E03E
:1052B00050E063E070E0CE0101960E94622B809185
:1052C000E8008E778093E8000F900F900F90DF91A9
:1052D000CF910895BC0184E00C943729BC0183E090
:1052E0000C94372922E02093E9002FEF3091E80059
:1052F000215035FD06C035ED3A95F1F7000021113A
:10530000F5CF2091E80025FF0BC040E050E066E0BB
:1053100070E00E94622B8091E8008E778093E80015
:105320000895CF93DF9320912B01222339F0209110
:105330005B0327FF03C060E222E002C068E021E0D7
:105340002093E9002FEF3091E800215035FD06C091
:1053500035ED3A95F1F700002111F5CF2091E800E5
:1053600025FF1DC0EC0180912B01811105C040E09B
:1053700050E068E070E003C070E040E050E0CE0133
:105380000E94622B8091E8008E778093E80080E293
:10539000FE01ABEEB2E001900D928A95E1F7DF914C
:1053A000CF91089580916003811109C00E94F32C70
:1053B0000E94502D8091E20084608093E200089565
:1053C000109260030895089508950C944C2442E0CF
:1053D00061EC81E00E946C2C42E261EC82E00C9472
:1053E0006C2C80916303833009F460C030F4813009
:1053F00071F0823009F499C008958A3009F485C0AB
:105400008B3009F46BC0893009F0A7C020C08091AF
:105410006203813A09F0A1C08091E800877F809300
:10542000E8008091660390916703892B21F460E284
:105430008BEE92E003C060E080E090E070E00E94BC
:10544000AD2B8091E8008B778093E80008958091E0
:105450006203813209F081C08091660390916703F5
:10546000029708F07AC08091E800877F8093E80077
:105470008091E80082FD05C0809161038111F8CF21
:105480006CC02091F3008091F20090E0922B029783
:1054900029F48091F1008B7F813021F48091F1001B
:1054A00080930B038091E8008B7753C08091620357
:1054B000813A09F052C08091660390916703892B6D
:1054C00009F04BC08091E800877F8093E8008091CD
:1054D000E80080FFFCCF80912B0136C080916203F1
:1054E0008132D9F58091660390916703892BA9F5E4
:1054F0008091E800877F8093E8000E94A12C809132
:10550000640380932B010C94EC1B80916203813225
:1055100021F58091E800877F8093E8000E94A12C0C
:105520008091650380930C03089580916203813A12
:10553000A1F48091E800877F8093E8008091E800E3
:1055400080FFFCCF80910C038093F1008091E800F4
:105550008E778093E8000C94A12C089584B7877F00
:1055600084BF0FB6F894A8958091600088618093FD
:105570006000109260000FBE90E080E80FB6F894D3
:1055800080936100909361000FBE0E9439170E94C2
:10559000F32C0E94502D8091E20084608093E20001
:1055A00078940E94E52F0E943F1781E291E00E94CB
:1055B000BC1680916103853069F40E9406248091B5
:1055C0005F038823B1F30E94ED23882391F30E94A7
:1055D0004C2BEFCF0E944B170E942D170E942C17C7
:1055E000E8CF0C94F32A292F332723303105C9F053
:1055F00060F42130310581F02230310509F044C0DA
:105600008BE390E020EC3CE043C021323105E1F037
:105610002232310549F138C082E190E02BEF3CE0C5
:1056200037C099278130910549F028F0029761F53C
:10563000EEE9FCE005C0ECEBFCE002C0EAEAFCE0CD
:10564000849190E09F0124C06115710541F06130A3
:105650007105D1F489E090E02BEE3CE019C089E0BF
:1056600090E022ED3CE014C06115710541F061301D
:10567000710551F48CEB90E02DE03DE009C080E431
:1056800090E029EC3DE004C080E090E020E030E0D4
:10569000FA0131832083089580E189BD82E189BDCB
:1056A00009B400FEFDCF8091D8008F7D8093D80093
:1056B0008091E00082608093E0008091E00081FDB5
:1056C000FCCF0895CF92DF92EF92FF920F931F933A
:1056D000CF93DF93EC018B017A010E94C02C8111E2
:1056E00033C0E114F10439F0F70180819181081B86
:1056F000190BC80FD91FC12CD12C0115110519F197
:105700008091E80085FD16C08091E8008E77809337
:10571000E800E114F10449F0F70180819181C80E9D
:10572000D91ED182C08285E00FC00E94C02C882380
:1057300021F30AC089918093F10001501109FFEF14
:10574000CF1ADF0ADACF80E0DF91CF911F910F915E
:10575000FF90EF90DF90CF900895209168033091F3
:1057600069032617370748F06115710539F4209150
:10577000E8002E772093E80001C0B901FC0120E089
:105780006115710579F1809161038823F1F185300C
:10579000F1F18091E80083FD3CC08091E80082FD3A
:1057A0002EC08091E80080FFEBCF2091F300809124
:1057B000F20090E0922B6115710551F0883091054F
:1057C00038F421912093F100615071090196F3CFD3
:1057D00021E0089709F020E08091E8008E7780931F
:1057E000E800CECF2111CFCF0AC08091610388237A
:1057F00061F0853061F08091E80083FD0AC08091FE
:10580000E80082FFF2CF80E0089582E0089583E00F
:10581000089581E008952091680330916903261767
:10582000370748F06115710539F42091E8002E77AB
:105830002093E80001C0B901FC0120E06115710569
:1058400091F180916103882309F440C0853009F407
:105850003FC08091E80083FD3DC08091E80082FD5B
:105860002FC08091E80080FFE9CF2091F300809164
:10587000F20090E0922B6115710559F08830910586
:1058800040F424912093F100319661507109019602
:10589000F2CF21E0089709F020E08091E8008E77B0
:1058A0008093E800CBCF2111CCCF0AC08091610357
:1058B000882361F0853061F08091E80083FD0AC0A3
:1058C0008091E80082FFF2CF80E0089582E00895A1
:1058D00083E0089581E00895982F973068F59093BC
:1058E000E900981739F07091EC002091ED0050918B
:1058F000F00003C0242F762F50E021FD02C09F5FEF
:10590000ECCF3091EB003E7F3093EB003091ED0017
:105910003D7F3093ED003091EB0031603093EB0030
:105920007093EC002093ED005093F0002091EE0076
:1059300027FDE5CF80E008958F708093E90081E036
:1059400008958091620387FF11C08091E80082FD75
:1059500005C0809161038111F8CF11C08091E800EA
:105960008B770BC080916103882349F08091E80018
:1059700080FFF8CF8091E8008E778093E80008954B
:105980002091E4003091E50095E64091EC00842FF1
:10599000817040FF23C08091E80080FD1DC0809190
:1059A0006103882399F0853099F08091EB0085FDA3
:1059B00011C04091E4005091E5002417350729F308
:1059C000915011F09A01E1CF84E0089582E00895AA
:1059D00083E0089581E0089580E008954091E80013
:1059E00042FFDDCF08950E94612D0E94692DE0EEF7
:1059F000F0E0808181608083E8EDF0E080818F7746
:105A0000808319BCA7EDB0E08C918E7F8C93808150
:105A10008F7E80831092600308950F931F93CF931E
:105A2000DF930E94612D0E94692DC8EDD0E088812E
:105A30008F77888388818068888388818F7D888339
:105A400019BC1092610310925D0310925F031092D3
:105A50005E0300EE10E0F80180818B7F80838881F7
:105A60008160888342E060E080E00E946C2CE1EE7F
:105A7000F0E080818E7F8083E2EEF0E080818160C3
:105A80008083808188608083F80180818E7F80831D
:105A9000888180618883DF91CF911F910F91089554
:105AA000E8EDF0E080818F7E8083E7EDF0E080819B
:105AB0008160808384E082BF81E0809360030C94E6
:105AC0000D2DE8EDF0E080818E7F80831092E20062
:105AD00008951092DA001092E10008951F920F923B
