:100000000C9424050C9468050C9483050C946805E5
:100010000C9468050C9468050C9468050C946805AC
:100020000C9468050C9406140C9499230C946805A0
:100030000C9468050C9468050C9468050C9468058C
:100040000C9468050C9468050C9468050C9468057C
:100050000C946805011204120C12111216121B12D4
:10006000201225122A122F12341239123B123E127C
:100070004112441247124A124C1251127113731357
:1000800078137B137E13811384139F199F19D11941
:10009000D1191E1A521B521B521B3C1AD11AE21ABA
:1000A000E21A421B521B521B4B1BEE1BEE1B001C89
:1000B000001CF71B001C001C001CEE1BEE1BFC1B95
:1000C000001C001CFC1B165C14001A000800150024
:1000D00017001C0018000C00120013002A002B430C
:1000E00004001600070009000A000B000D000E00B6
:1000F0000F0033002842E1001D001B00060019001C
:100100000500110010003600370052000F510000AA
:10011000E000E300E200015101512C002C001259D3
:10012000500051004F00350014051A05080515054B
:1001300017051C0518050C051205490001001E00D5
:100140001F0020002100220023002400250026009B
:1001500027002D002E0001001D051B0506071907AD
:10016000340038002F00300031004B001303000032
:10017000010001000100010001002C002C00010021
:100180004A004E004D000100010001000100010085
:100190000100010001000100010001000100010057
:1001A0000100010001000100010001000100010047
:1001B0000100010001000005010001000100010033
:1001C0000100010001000100010038000F53000F81
:1001D000000A0007000DE000E00003630363000D68
:1001E0000007000A000F4C05680069006A006B00F8
:1001F000F9002B052B070000460009062A00010024
:100200006C006D006E006F00FA005000510052004B
:100210004F000000130300007000710072007300B3
:1002200000004A004E004B004D000000000000009E
:10023000075501000100E000E000E100E1000000DE
:1002400000000000000001000100010001000100A9
:100250000100010001000100010001000100010096
:100260000100010001000100010001000100010086
:100270000100010001000100010001000100010076
:100280000100010001000100010001000100010066
:10066000010001000100A800AA00A900BE00BD0011
:10067000C35CCA5CCB5CCC5CCD5CC45CC55C3A0042
:100680003B003C003D003E003F0040004100420076
:1006900043004400450039004700530000000000BB
:1006A000C95CC85C1350125011501050010000007A
:1006B000CE5CCF5CD05CC65CC65CC75CC75CD45CFF
:1006C000D55CD15C010032190A00047F3F1F6432FF
:1006D00014643214783C1E1E140A05222325262891
:1006E000292A2C2D2F3032333536383A3B3D3E40C7
:1006F00042434547494A4C4E5051535557595A5C0D
:100700005E6062646668696B6D6F71737577797B23
:100710007D7F81838587898A8C8E90929496989A22
:100720009C9E9FA1A3A5A7A8AAACAEAFB1B3B4B637
:10073000B8B9BBBCBEBFC1C2C3C5C6C7C9CACBCC92
:10074000CDCED0D1D2D2D3D4D5D6D7D7D8D9D9DA65
:10075000DADBDBDBDCDCDCDCDCDDDDDDDDDCDCDCDA
:10076000DCDCDBDBDBDADAD9D9D8D7D7D6D5D4D302
:10077000D2D2D1D0CECDCCCBCAC9C7C6C5C3C2C1D7
:10078000BFBEBCBBB9B8B6B4B3B1AFAEACAAA8A734
:10079000A5A3A19F9E9C9A98969492908E8C8A89EC
:1007A000878583817F7D7B79777573716F6D6B69C9
:1007B00068666462605E5C5A5957555351504E4C9E
:1007C0004A4947454342403E3D3B3A38363533324D
:1007D000302F2D2C2A292826252322FFAA7F554099
:1007E00000000000000000000000000101020304FE
:1007F0000506080A0C0F1114181C2024292E333961
:100800003F464C535B626A7179818A929AA2AAB27E
:10081000B9C1C8CFD5DCE1E7EBF0F4F7FAFCFDFE97
:10082000FFFEFDFCFAF7F4F0EBE7E1DCD5CFC8C141
:10083000B9B2AAA29A928A8179716A625B534C46D4
:100840003F39332E2924201C1814110F0C0A0806D6
:100850000504030201010000000000000000000088
:100860000001010101010101010102020202020273
:100870000202020303030303030303040404040446
:10088000040405050505050606060606070707070D
:100890000708080808090909090A0A0A0B0B0B0CC2
:1008A0000C0C0D0D0D0E0E0E0F0F0F10101111115F
:1008B00012121313141415151616171718181919E0
:1008C0001A1A1B1B1C1D1D1E1E1F20202122222345
:1008D0002424252626272829292A2B2C2D2D2E2F86
:1008E00030313232333435363738393A3B3C3D3E9D
:1008F0003F404142434445464748494A4C4D4E4F8C
:1009000050515354555658595A5B5D5E5F6162644D
:10091000656668696B6C6D6F7072737577787A7BDA
:100920007D7E8082838587888A8C8E8F9193959631
:10093000989A9C9EA0A2A3A5A7A9ABADAFB1B3B551
:10094000B7BABCBEC0C2C4C6C9CBCDCFD1D4D6D82D
:10095000DBDDDFE2E4E7E9EBEEF0F3F5F8FAFDFFCB
:1009600009023B00020100A032090400000103015A
:10097000010009210101000122400007058103084F
:100980000001090401000103000000092101010028
:100990000122320007058303080001120110010043
:1009A000000008504B40000002010200010A034A07
:1009B000004A0034003000000016034B0050007263
:1009C0000065007000750062006C00690063000043
:1009D000000403090405010980A101850319012A06
:1009E000B700150126B700950175108100C0050CF0
:1009F0000901A101850419012AA002150126A002FE
:100A0000950175108100C005010906A101050719AE
:100A1000E029E7150025019508750181029501750A
:100A20000881030507190029FF150026FF00950618
:100A300075088100050819012905950575019102C0
:100A4000950175039103C00011241FBECFE5D8E0C6
:100A5000DEBFCDBF04B603FE24C08091DD029091BD
:100A6000DE02A091DF02B091E0028730904BA740F8
:100A7000B04BB9F41092DD021092DE021092DF0248
:100A80001092E00214BE84B7877F84BF0FB6F8943B
:100A9000A89581B5886181BD11BC0FBEE0E0F8E387
:100AA000099511E0A0E6B0E0ECEEF0E502C005909B
:100AB0000D92A432B107D9F722E0A4E2B1E001C05F
:100AC0001D92AD3DB207E1F70E94FA230C94742801
:100AD0000C940000A82FB92F80E090E041E050EA8C
:100AE000609530E009C02D9182279795879510F089
:100AF00084279527305EC8F36F5FA8F30895EADF77
:100B00008D939D930895CF93CFB7CF93C395839B38
:100B1000E9F7839B0EC0839B0CC0839B0AC0839B19
:100B200008C0839B06C0C091B402C395C093B402B1
:100B3000A6C0DF93C091B302DD27C554DD4F839B70
:100B400002C0DF91E6CF2F930F931F9300B32FEFD7
:100B500003FB20F94F933F9310B34FEF012703FBA3
:100B600021F93BE031C04E7F012F10B3216028C036
:100B7000102F4D7F2260000000B329C04B7F2460FE
:100B8000012F000010B32BC010B3477F28602AC08C
:100B90004F7E00B320612CC04F7D10B320622FC068
:100BA0004F7B00B3206432C0422700B349934FEF1C
:100BB0000000102713FB20F910B31C70C9F1297F26
:100BC00091F2012703FB21F900B3237F89F2315011
:100BD00058F1102713FB22F910B3277E79F2012771
:100BE00003FB23F92F7C81F200B3102713FB24F9B8
:100BF0002F7971F200C010B3012703FB25F92F7381
:100C000059F200C000B3102713FB26F9223040F23E
:100C100000C010B3012703FB27F9243028F64F77D3
:100C2000206810B30000F9CF10E81ABF00271CC0DD
:100C30003B503195C31BD04010E81ABF0881033CDC
:100C400011F10B3401F12091B0021981110F12132F
:100C5000EDCF4A81441F093669F10D3211F0013E92
:100C600029F74F7009F0042F0093B9023F914F917B
:100C70001F910F912F91DF91CAB7C7FD47CFCF9139
:100C8000CFBFCF9118952091B902222379F310910B
:100C9000B702112309F044C034300AF443C0309342
:100CA000B7022093B2021091B3023BE0311B3093A4
:100CB000B30238C00091B702013094F50AE54F70D5
:100CC00049F43091850034FD2FC000938500CDE8B4
:100CD000D2E02EC0433059F0443091F03091980268
:100CE00034FD22C000939802C9E9D2E021C03091BE
:100CF000D10234FD19C00093D102C2EDD2E018C078
:100D00003091A40234FD10C00093A402C5EAD2E0E1
:100D10000FC02795A8F45150A9F4220F0000F9CF75
:100D20004AE503C042ED01C0432FC4E1D0E032E008
:100D300011B31C60939A11BB02B320E41CE05F93D3
:100D4000012756E002BB279520F4515021F4220FD1
:100D5000F9CF012756E000003B5A02BBD0F227959D
:100D600028F4515029F4220F0000F9CF012756E052
:100D7000279502BB20F4515021F4220FF9CF01270F
:100D800056E02991332302BB21F6037F1091B8026C
:100D9000110FC651D04002BB11F01093B00210E801
:100DA0001ABF086011B3137F402F437F5F9100C0CB
:100DB00000C002BB11BB42BB59CF81E0089581E066
:100DC00008950C94DF0608950C94E3061F93CF93C7
:100DD000DF9300D000D01F92CDB7DEB749835A838E
:100DE0006B833091630189819A81311114C066232C
:100DF00059F0222349F00E942721182F682F89815A
:100E00009A810E94D02003C00E94FB20182F698184
:100E10007A81812F04C00E94272169817A810F90F5
:100E20000F900F900F900F90DF91CF911F910C9426
:100E3000A607FC01262F4081518162817381848144
:100E40000C94E606CF93DF93EC0160E00E94190753
:100E5000BE01DF91CF910C94E4060E9459228111CA
:100E600002C00E9409230E9471140C94BF090C94C3
:100E7000BB0908950E94DC1B0E9439072FEB87E213
:100E800099E0215080409040E1F700C000000C94B0
:100E9000BF230F931F93CF93DF93EC0161E00E9478
:100EA00019078C01BE010E94E1068823A9F1BE0149
:100EB000C8010E946213882379F1BE01C8010E9413
:100EC0001415882349F1BE01C8010E9466158823C4
:100ED00019F1BE01C8010E9491168823E9F0BE01F4
:100EE000C8010E94EA118823B9F08A81882369F039
:100EF00001158CE5180731F00F3D1C4531F40E94B7
:100F000009230AC00E943A0707C0CE01DF91CF91A2
:100F10001F910F910C94DD0680E0DF91CF911F911E
:100F20000F91089508950C94920781E008950C9410
:100F30009507CF93C82F0E9493078C2F0E94970785
:100F4000CF91089580E090E00895089520E3829F76
:100F5000C0011124FC012CE0729FE00DF11D112451
:100F6000E60FF11DEE0FFF1FEA53FF4F859194919D
:100F70000895880F991FFC01EA53F94F85919491C8
:100F80000895CF93DF930E94A6070E94D308EC0137
:100F90008115904508F043C0C11580E4D80708F0DA
:100FA000CBC0C03ED10528F5C03CD10508F0B3C088
:100FB000C83AD10578F4C53AD10508F0A4C0C130CB
:100FC000D10509F4ECC008F4E8C0C430D10508F03C
:100FD000E6C0E3C0CF3BD10508F0DFC0C85AD0E07F
:100FE000CC0FDD1FCA57DF4F0990D881C02DD464C4
:100FF000D6C0C11590E2D90750F4C11521E0D2073F
:1010000008F0CDC0C83ED10508F4C9C0C6C0C1159E
:1010100080E3D80708F086C0CE019F707FC0C1155D
:1010200095E5D90708F043C0C11524E5D20708F0BB
:101030009AC0C11582E5D80708F5C11591E5D90711
:1010400008F07DC0CE0174E0969587957A95E1F71A
:1010500083709C2F937021E030E002C0220F331F79
:101060009A95E2F73C68382BCF70C695C69580E21A
:10107000C89FE0011124C22BD32B91C09E01237085
:1010800033278C2F86958695C115D34508F05CC013
:10109000C1E0D0E002C0CC0FDD1F2A95E2F720E2CC
:1010A000829FC0011124C82BD92BDC6878C0C115E0
:1010B00029E5D207A0F4C11588E5D80708F058C083
:1010C000C11596E5D90708F068C08C2F0E94670902
:1010D0008F71C82FD0E0DC2FCC27D06260C0C11543
:1010E0002AE5D20708F449C0CE01905681159042F6
:1010F00008F053C08D2F8F710E946709DD27D062E1
:101100008F71D82B4CC0C55AD0E0CC54DF4FC8816A
:10111000D0E0D06444C0CE01805C91090E94B90740
:10112000EC013DC0CE019927D3FF03C0EC01D86C80
:1011300036C0EC01D06C33C0DF70D06A30C0DC2F19
:10114000CC27C16FD06A2BC0C1E0D0E002C0CC0F69
:10115000DD1F2A95E2F720E2829FC0011124C82BEF
:10116000D92BDA681CC0DC2FCC27C46FD06A17C01B
:10117000DC2FCC27C06FD06A12C08C2F8F700E94DA
:10118000670994E0D695C7959A95E1F7CF70D0E0BE
:10119000DC2FCC27D069C82B02C0C0E0D0E0CE0144
:1011A000DF91CF9108958238910569F1B0F48133D0
:1011B000910509F46DC048F48932910509F463C0C2
:1011C0008A32910509F469C008958533910509F4BF
:1011D00055C089339105B9F00895833E910569F1B1
:1011E00038F4803E9105B1F0823E910509F10895F1
:1011F000863E9105A9F1873E9105B9F1843E91059E
:1012000009F064C023C020918B0220FD4FC021FD56
:101210004DC0089580918B0280FD44C080918C0266
:1012200080FF44C080918B0284FD42C083EE4DC09C
:1012300080918B0282FF38C0F5CF80918B0282FDB6
:1012400033C080918C0280FD31C0ECCF80918C0244
:1012500081FF32C080918B0284FD2AC087EE35C0A9
:1012600080918B0283FF26C0F5CF80918B0283FD96
:1012700021C080918C0281FD1FC0ECCF80918B0238
:1012800085FD1CC01DC080918B0285FD19C016C054
:1012900080918B0286FD16C017C080918B0286FD5F
:1012A00013C010C089E311C082EE0FC080EE0DC0E4
:1012B00080E00BC086EE09C084EE07C089E205C05D
:1012C00085E303C08AE201C081E390E00895909134
:1012D0008B0292FF0DC0282F2871283019F4877FC8
:1012E000846006C0282F2471243011F48B7F88601D
:1012F00093FF0DC0282F2871283119F4877E84614F
:1013000006C0282F2471243111F48B7E886120912E
:101310008C0220FF0DC0382F3871383019F4877FC8
:10132000816006C0382F3171313011F48E7F8860B2
:1013300021FF0DC0282F2871283119F4877E816183
:1013400006C0282F2171213111F48E7E886194FD11
:10135000877E0895E82FF0E0EE0FFF1FE659FD4F5E
:10136000808191810895089588E78A95F1F708951D
:1013700008950C94B8090C94B9090C94B8090C940C
:10138000BD09F894E82FE295EF70F0E031A9282F1D
:101390002F7081E090E001C0880F2A95EAF7982F1E
:1013A0009095932391AB92A9892B82AB7894089561
:1013B0000F931F93CF93DF9380E60E94C10981E6CC
:1013C0000E94C10983E60E94C10984E60E94C10906
:1013D000C7EBD0E003EC10E089910E94C1090C1723
:1013E0001D07D1F7109263021092620210926B02F5
:1013F00010926A02109265021092640210926D02BD
:1014000010926C02109267021092660210926F02A4
:1014100010926E021092690210926802109271028C
:101420001092700284E00E94A70ADF91CF911F9171
:101430000F910C942D077F928F929F92AF92BF9243
:10144000CF92DF92EF92FF920F931F93CF93DF9390
:10145000C3ECD0E082E6A82E82E0B82E9AE6E92E10
:1014600092E0F92E712C01E010E06E018881F89471
:10147000E82FE295EF70F0E021A98F70A80102C07B
:10148000440F551F8A95E2F7CA01922F982B91AB12
:1014900092A98095892382AB78940E94B409E7EBE6
:1014A000F0E020E030E0812C912C4191A42FA29516
:1014B000AF70B0E0D0968C9190E04F7002C09595DF
:1014C00087954A95E2F780FD08C0C801022E02C048
:1014D000880F991F0A94E2F702C080E090E0882A02
:1014E000992A2F5F3F4F2C303105F9F62196F601EE
:1014F00080810E94C109F501808191818816990639
:1015000021F09182808281E001C080E0782AF2E0BF
:10151000AF0EB11CEA14FB0409F0A7CF272D44E05D
:101520006AE672E082E692E00E94A80A0E9437070B
:10153000872DDF91CF911F910F91FF90EF90DF905A
:10154000CF90BF90AF909F908F907F900895089517
:10155000FF920F931F93CF93DF93F82E092F162F2F
:10156000D72FC42F222349F081E0809326010E94C7
:101570007E23909325018093240180912601882366
:10158000D9F080912401909125010E948A23069729
:1015900098F0EF2DF02FA12FBD2F80E090E04C2F81
:1015A00050E08417950734F4219131912D933D93A8
:1015B0000196F7CF10922601DF91CF911F910F91E5
:1015C000FF900895EF92FF920F931F93CF93DF93B5
:1015D0008B01682F11110AC0442329F0E82FF0E095
:1015E000E05AF74F6491762F862F75C0212F30E097
:1015F000E82FF0E0442321F0E05AF74FE491F0E0C7
:1016000046E0049FC0011124CFEFD0E0BE010E944C
:1016100017274BEA4603C001479F900D1124800F06
:10162000911D800F911D982F990F890FAE01421BBC
:10163000530B4E9FD0014F9FB00D5E9FB00D1124F4
:101640009B2F189FA0011124452F55278E01041BA5
:10165000150B0E9FA0010F9F500D1E9F500D1124C2
:101660007E01E81AF108E29E8001E39E100DF29ED1
:10167000100D1124212F3327C21BD30BCE9F9001B5
:10168000CF9F300DDE9F300D112462307105A9F01F
:1016900048F46115710569F061307105C9F48B2F4B
:1016A000752F0DC06430710581F058F066307105FA
:1016B00079F47E2F8B2F932F0DC0832F7B2F9E2F9E
:1016C00009C08E2F7B2F952F05C08E2F732F02C040
:1016D0007E2F852F692FDF91CF911F910F91FF9062
:1016E000EF90089541E00E94E20A089508950E9453
:1016F000720B0895CF93DF93762FE901682F842F23
:101700000E94770B798368838A83DF91CF91089554
:1017100080917202282F269530E02115310519F4A9
:101720008170826005C02B32310524F081708465A0
:1017300080937202089588E090E00C940928CF927B
:10174000DF92EF92FF926B017C010E94880BB70140
:10175000A60188E090E0FF90EF90DF90CF900C948E
:101760002628E2E7F2E083E0808311828FEF828314
:101770008383148260817181828193810C949F0B99
:101780008091720280FF02C08695089580E00895DE
:1017900090917602933018F49F5F9093760288239D
:1017A00051F0609172027091730280917402909175
:1017B00075020C949F0B089581E00C94C80B9091D6
:1017C0007602992319F0915090937602882351F074
:1017D000609172027091730280917402909175020F
:1017E0000C949F0B089581E00C94DF0B70E00C9437
:1017F0008314609168008091720280FF0AC080911A
:10180000670023E0829FC001112489589D4F0C94EA
:10181000F60B8091690090916A00891780F7E82F94
:10182000F0E09F01220F331FE20FF31FE958FD4F35
:101830001182108212828F5FF0CF9091720290FF1E
:1018400016C09091690020916A00921770F4E92FF8
:10185000F0E0DF01AA0FBB1FEA0FFB1FE958FD4FA5
:101860008183608342839F5FF0CF0C94F90B0895CE
:10187000CF93DF9300D01F92CDB7DEB79091720265
:1018800090FF0AC09E012F5F3F4F0E947A0B4B8151
:1018900069818A810E941D0C0F900F900F90DF913B
:1018A000CF910895CF93DF93EC01EC81F0E0E55206
:1018B000F94F4491E2E7F2E0628181810E94380CA5
:1018C0008C818F5F8C83DF91CF910895CF93DF93CD
:1018D000EC01E2E7F2E0438162818C810E94380CE6
:1018E0008C818F5F8C83DF91CF9108950F931F932D
:1018F000CF93DF9300D01F92CDB7DEB78C018091DC
:10190000270181110AC09E012F5F3F4F4FEF6FEFFC
:101910000E947A0B8A8180932701F80184818130AB
:1019200051F028F0823061F4409127010AC0809183
:10193000270140E007C06091270140E080E003C03C
:1019400040E080E060E00E941D0CF801848190E09E
:10195000019663E070E00E942B2784830F900F9024
:101960000F90DF91CF911F910F910895AF92BF9289
:10197000CF92DF92EF92FF920F931F93CF93DF935B
:1019800000D01F92CDB7DEB7182FF62E042FE22E0F
:101990009091720290FF6DC0E92FE695AE2FB0E0F6
:1019A000A953BF4F8C9180934A019E7F923061F47E
:1019B0009E012F5F3F4F812F0E947A0B4B816981DF
:1019C0008A810E941D0C43C0823019F40091750277
:1019D0003EC0863019F41091730239C08930D9F3B2
:1019E0008931A9F5E9518E2F8170D82EE695F0E066
:1019F000E552F84FA590B490C12CBB2460916B00C8
:101A0000C61618F52C2D30E0A29EC001A39E900DA5
:101A1000B29E900D112470E00E941727812FD110E3
:101A200002C0860F01C0861B90916900290F311DED
:101A3000A901440F551F240F351F29583D4F402F32
:101A40006F2D0E947A0BC394D9CF0E94F90B10938B
:101A50007302F092740200937502EE2051F06091CF
:101A600072027091730280917402909175020E94CB
:101A70009F0B0F900F900F90DF91CF911F910F91BF
:101A8000FF90EF90DF90CF90BF90AF900895E2E786
:101A9000F2E09181282F4381628188E0890F0C94C4
:101AA000B60C81E00C94470DE2E7F2E09181282F1B
:101AB0004381628188EF890F0C94B60C81E00C940D
:101AC000540DE2E7F2E0628121E1620F08F46FEF6A
:101AD000282F438181810C94B60C81E00C94610D18
:101AE000E2E7F2E0628121E1621B08F460E0282F66
:101AF000438181810C94B60C81E00C94700DE2E777
:101B0000F2E0438121E1420F08F44FEF282F628178
:101B100081810C94B60C81E00C947F0DE2E7F2E039
:101B2000438121E1421B08F440E0282F628181813A
:101B30000C94B60C81E00C948E0D20E00C94B60C45
:101B4000FF920F931F93CF93DF93EC01F12C0FEFD4
:101B500010E060916B00F616F0F4809169002F2D73
:101B600030E0280F311DC901880F991F280F391F38
:101B700029583D4F70E0C8010E942B27962F8C8179
:101B80004091750260917402F99E800D11240E94AB
:101B90007A0BF394DECF0E94F90B9A818C8190FF2F
:101BA00002C08F5F01C081508C83DF91CF911F9164
:101BB0000F91FF900895AF92BF92CF92DF92EF9274
:101BC000FF920F931F93CF93DF93FC01828180FFDD
:101BD00002C00FEF01C001E010E045E0A42E8091AB
:101BE0006B00181708F043C080916900C12ED12CFA
:101BF000E601C80FD11DCE01880F991FC80FD91F4C
:101C0000C958DD4F198218821A8234E0E32EF12C74
:101C1000B12C809129018B0D86302CF06A2D0E9409
:101C20000927892F05C087FF03C090916B00890F9A
:101C3000082E000C990BC816D90691F480917502F4
:101C40008E9DA0018F9D500D11245595479555955A
:101C500047959E0160917402809173020E947A0BF5
:101C6000B00EF1E0EF1AF108A1F61F5FB8CF0E94A5
:101C7000F90B80912901013031F4811102C080916A
:101C80006B00815007C090E0019660916B0070E09E
:101C90000E942B2780932901DF91CF911F910F91F3
:101CA000FF90EF90DF90CF90BF90AF900895CF93CB
:101CB0008091690090916A00891770F4E82FF0E034
:101CC0009F01220F331FE20FF31FE958FD4F1182CE
:101CD000108212828F5FF0CFC0E060916B00C61758
:101CE000C0F5EC2FF0E070E0CF010E942B2720918F
:101CF0006900820F20912801022E000C330B90E026
:101D0000E217F307CCF020916600022E000C330B93
:101D10002E173F078CF09C01220F331F820F931F59
:101D20009C0129583D4F4091750260917402809149
:101D300073020E947A0B0BC0FC01EE0FFF1F8E0F87
:101D40009F1FFC01E958FD4F118210821282CF5F64
:101D5000C4CF0E94F90B2091650080912801820F69
:101D60008093280190916600920F90936600191657
:101D70005CF4082E000C990B40916B0050E0415030
:101D80005109841795071CF0219520936500CF9188
:101D900008958F929F92AF92BF92CF92DF92EF926F
:101DA000FF920F931F93CF93DF938C01FC0144812B
:101DB000C42FD0E09E01DE010E946F279B01AC0181
:101DC0000E9485276B017C01E0E2F0E0EC1BFD0B3B
:101DD000A5E5B0E09B01AC010E9485274B015C01A9
:101DE0009F01DF010E9467279B01AC010E949027A1
:101DF0009B01AC012C0D3D1D4E1D5F1DC501B401A5
:101E00000E943F27C22FD22F2A3228F4F3E02F9FBF
:101E1000900111240DC025E530E02C1B3109C901CA
:101E2000880F991F280F391F37FF02C02F5F3F4FC0
:101E300035952795C22FC095F12C85E5E82EED1A32
:101E400080916B00F816C8F4F1FC02C08E2D01C021
:101E50008D2F909169002F2D30E0290F311DA901A0
:101E6000440F551F240F351F29583D4F4C2F6091AB
:101E700074020E947A0BF394E3CF0E94F90BF801ED
:101E80008481811102C091E003C0803219F49FEF78
:101E90009093640090916400890FF8018483DF912E
:101EA000CF911F910F91FF90EF90DF90CF90BF9057
:101EB000AF909F908F9008950F931F93CF93DF93D0
:101EC000EC0100E010E080916B00282F30E0021759
:101ED000130724F5909169009801290F311DA9017C
:101EE000440F551F240F351F29583D4F869590E00C
:101EF0004C81081719071CF4442331F002C041112A
:101F000003C04091750201C040E06091740280916D
:101F100073020E947A0B0F5F1F4FD5CF0E94F90BFF
:101F20008C8190E00196817099278C83DF91CF910D
:101F30001F910F9108958F929F92AF92BF92CF926F
:101F4000DF92EF92FF920F931F93CF93DF93FC01E9
:101F5000B280948081E0848300E015E05BE4A52EEC
:101F600088248394EE24EA94F12C7BE4C72ED12CB0
:101F700080916B00081708F08FC0C02FD0E01C9F25
:101F8000F0011D9FF00D1124E65DFE4F911003C07E
:101F90001382128267C02381222389F12150238377
:101FA0003481332319F09A2D921B01C0922F809116
:101FB00075021C9FF0011D9FF00D1124E65DFE4F80
:101FC000899FC0011124B6010E9417276283211145
:101FD00004C0332311F01482A38222E02B1508F4ED
:101FE00041C01C9FF0011D9FF00D1124E65DFE4FC6
:101FF00080917302808380917402818333C00E9438
:10200000E4278230914074F582E08B1530F40E9411
:10201000E427B7010E942B2702C0809173021C9F06
:10202000F0011D9FF00D1124E65DFE4F808322E03C
:102030002B1558F40E94E427209174022695622FF4
:1020400070E00E942B27820F02C0809174021C9FB7
:10205000F0011D9FF00D1124E65DFE4F8183128279
:10206000A3828482809169009E01280F311DC901DD
:10207000880F991F280F391F29583D4F1C9FF001C9
:102080001D9FF00D1124E65DFE4F4281618180812C
:102090000E947A0B0F5F6CCFDF91CF911F910F9150
:1020A000FF90EF90DF90CF90BF90AF909F908F9078
:1020B0000C94F90BE2E7F2E080818E7F80836081EF
:1020C0007181828193810E949F0B10924B012FEBB3
:1020D00084ED91E0215080409040E1F700C0000085
:1020E0000C94F90B60917202669570E04BE050E041
:1020F0008CE690E00E94F427892B19F481E080930C
:102100004B010E947E2390934401809343010895E4
:102110009091720290FF35C09170811102C092605F
:1021200006C08B3210F0946502C0880F982B9093F4
:102130007202662351F06091720270917302809175
:102140007402909175020E949F0B609172026695D5
:1021500070E04BE050E08CE690E00E94F427892B81
:1021600019F010924B0102C00E94721081E080931E
:1021700046014091750260917402809173020C9443
:102180009D0D0895682F90917202969581E0890FB8
:102190008B3208F081E00C94881081E00C94C2101E
:1021A000682F9091720296958FEF890F09F48AE259
:1021B0000C94881081E00C94D01061E00C9488108D
:1021C000E2E7F2E080818160808386950C94DD10E7
:1021D0008091720280FD0C945A100C94E01060E023
:1021E0000C9488108091490181112EC00E945922BF
:1021F000811104C00E9409230E94B10B0E949B0B15
:1022000060937202709373028093740290937502CC
:102210006E7F61F40E94B10B0E949B0B609372026F
:102220007093730280937402909375020E94880BDE
:1022300010924B018091720280FF03C086950E942C
:10224000EF1081E08093490108950F931F93CF937E
:10225000DF9380914B01882309F49CC080914A014F
:10226000E0917202E695E81BE0934501823049F463
:10227000F0E0E952F94FE491CE2FD0E002E51CE006
:1022800059C0863049F4F0E0EC52F94FE491CE2F7A
:10229000D0E006E61CE04EC0893051F4E695F0E04F
:1022A000EF52F94FE491CE2FD0E000EA1DE042C09A
:1022B0008F3051F4E695F0E0E253F94FE491CE2FE0
:1022C000D0E00BED1DE036C0853149F4F0E0E55378
:1022D000F94FE491CE2FD0E007E51EE02BC0883106
:1022E000D9F0833239F4E9ECF6E0C591D49106E7F0
:1022F0001CE020C08432A9F08532C1F48E2F63E047
:102300000E94FD26E92FF0E0EA53F94FE491CE2F29
:10231000D0E00BE91FE00EC0C8E2D0E009EC1EE0FF
:1023200009C0C4EFD1E00CE51FE004C0C0EDD7E068
:1023300006E71BE080914601882389F01092460150
:102340000E947E239E0120953095820F931F9093CB
:1023500044018093430110924801109247018091FB
:102360004301909144010E948A238C179D0790F0AD
:10237000E0914301F0914401CE0FDF1FD09344015F
:10238000C093430183E491E0F801DF91CF911F9165
:102390000F910994DF91CF911F910F910895882398
:1023A00011F0FA0101C0FB010994CF93DF93C82F0C
:1023B000D62F0E94C00B8C1740F00E94C00B8D17C7
:1023C00020F4DF91CF910C94CD108C2FDF91CF9121
:1023D0000C94DD100F931F93CF93FB01C281CC238C
:1023E00009F463C08C010E94A8218272F801E35CA9
:1023F000FC45E431F10508F059C0E65DFF4F0C944F
:1024000061270E94E81006C04AED50E16DEC70E1D2
:102410000E94CF11C0E04AC04DEC50E16AED70E17E
:10242000F7CF4EE55DE061E57DE0F2CF41E55DE0AF
:102430006EE57DE0EDCF4CE75DE06DE67DE0E8CF59
:102440004DE65DE06CE77DE0E3CF4AE95DE06BE8F7
:102450007DE0DECF4BE85DE06AE97DE0D9CF43EF78
:102460005BE06CED7BE0D4CF4CED5BE063EF7BE0B9
:10247000CFCF81E017C065E082E010C068E086E061
:102480000DC06EE089E00AC064E18FE007C067E13B
:1024900085E104C088E106C062E289E10E94D511AD
:1024A000B9CF83E20E94DD10B5CFC1E08C2FCF9170
:1024B0001F910F9108958091860286958695869545
:1024C00008958091860281FD07C082608093860214
:1024D0000E948E220C94F51308958091860281FF4C
:1024E00007C08D7F809386020E948E220C94FF137A
:1024F00008958091860281FD0C946D120C946112F6
:102500008091860286958170089580917700089564
:102510000E945922811102C00E9409230E948A222E
:1025200080938602282F26952695269530E02D301B
:10253000310524F087708066809386028091860240
:1025400080FF04C086958695869501C080E00C9436
:10255000CA1320918602822F869586958695482FEC
:1025600050E04C30510554F48F5F982F990F990F1C
:10257000990F822F8770892B809386028091860223
:102580008160809386020E948E22809186028695C9
:10259000869586950C94CA1380918602982F9695FD
:1025A00096959695A1F0915E990F990F990F877066
:1025B000892B80938602887F91E009F490E08091D6
:1025C000860290FB80F9809386020E948E22809181
:1025D00086028695869586950C94CA13809186020C
:1025E00080FD13C0816080938602813019F489E0F8
:1025F00080938602809186020E948E2280918602BC
:102600008695869586950C94CA13089580918602C6
:1026100080FF08C08E7F809386020E948E2280E019
:102620000C94CA1308958091860280FD0C940613C1
:102630000C94EE1290918602892F86958695869548
:102640008F5F8F7197708D3038F4880F880F880FE7
:10265000892B8093860202C0909386028091860225
:10266000887F91E009F490E08091860290FB80F9E8
:10267000809386020E948E2280918602869586959E
:1026800086950C94CA138D3008F08CE090918602E8
:102690009770282F220F220F220F922B90938602E1
:1026A000987F21E009F420E09091860220FB90F9C8
:1026B000909386020C94CA130E9443138091860261
:1026C0000C948E22FC01DB0112968C918823F9F088
:1026D000EC5BFC45E730F105D8F4E25CFF4F0C946D
:1026E00061278CE001C080E00E945C1380E00895C7
:1026F0000E94CC12FBCF0E94A912F8CF0E941313A4
:10270000F5CF0E941A13F2CF0E947912EFCF81E029
:1027100008958C9A9498089594980895CF92DF9292
:10272000EF92FF928C3724E1920728F469E070E081
:102730000E94172729C0A0E0B0E08A50974DAF4F04
:10274000BF4F6627782F892F9A2F25EF38E241E077
:1027500050E00E943F2769017A01CA01B9010E9435
:10276000ED269B01AC01C701B6010E94ED26BB27F7
:10277000A92F982F872F009721E0A207B10511F00C
:10278000BC0102C06FEF7FEFCB01FF90EF90DF90B5
:10279000CF900895CF93C82F8D3040F4811107C09A
:1027A0008FB58F7D8FBD0E948C1304C0CCE08FB598
:1027B00080628FBD2C2F30E0AFEFBFEF0E946F27FC
:1027C0002CE030E040E050E00E943F27B42FA32FE0
:1027D000922F8827892F9A2FAB2FBB270E948E1309
:1027E00099BD88BDCF910895089510924D01109222
:1027F0004C0110924E0189B7846089BF089589B752
:102800008B7F89BF0E945B120C94CA131F920F9298
:102810000FB60F9211242F933F934F935F936F93B3
:102820007F938F939F93AF93BF93CF93EF93FF9338
:102830000E94851240914C0150914D014F5F5F4FB6
:1028400094EF899F90011124CA01B9010E941727B2
:1028500090934D0180934C01B901660F672F661F5D
:10286000770B71950E9417276F7780914E01823008
:1028700019F4603441F404C0813029F46F3719F43D
:1028800089B78B7F89BFE62FF0E0E052F84FC49103
:102890000E945B12282F41E051E0C49FC001C59FF8
:1028A000900D11246CE070E00E941727269FC00154
:1028B000279F900D11240E948E1399BD88BDFF9112
:1028C000EF91CF91BF91AF919F918F917F916F9138
:1028D0005F914F913F912F910F900FBE0F901F90DE
:1028E00018950E94891382E28FBD89E18EBD8FEF1A
:1028F0009FEF97BD86BD0E9488120E9480128111B1
:102900000C94F51308950F931F93CF93DF938C01CD
:10291000EB0180914F01811105C00E94C21681E038
:1029200080934F01AE01440F551F4C0F5D1F24E6ED
:1029300030E0B80180EBDF91CF911F910F910C94A3
:102940004C170F931F93CF93DF93C42FD22FFC010B
:1029500082818823C9F0409352010E947E23909384
:1029600051018093500180E28C0F883008F057C0ED
:10297000C77081E001C0880FCA95EAF7DF91CF9157
:102980001F910F910C945B1980915201481330C034
:1029900080915001909151010E948A23883C9105B9
:1029A00038F510E21D0FCD17B9F080E28C0F88309A
:1029B00040F4C77081E001C0880FCA95EAF70E9411
:1029C0006219183028F581E09D2F977001C0880F9B
:1029D0009A95EAF70E945B19802F0E9448191830D7
:1029E000F0F4D77081E001C0880FDA95EAF70AC0E9
:1029F00080E28C0F883098F4C77081E001C0880FA6
:102A0000CA95EAF7DF91CF911F910F910C9462194B
:102A1000802FDF91CF911F910F910C944819DF9176
:102A2000CF911F910F9108950F939C01CB01243FEB
:102A30004CE5340731F188F4293DFCE53F07D9F036
:102A40002A3D4CE5340779F1283D3C45A9F506E2DD
:102A500021EE41EE68ED7CE52BC0263FFCE53F070B
:102A6000E1F0A8F0273F3C4539F507E225EE46EEB8
:102A700067EF7CE51DC007E225EE45EE69ED7CE5DC
:102A800017C006E221EE40EE64EF7CE511C007E2DC
:102A900025EE44EE65EF7CE50BC006E221EE42EE4A
:102AA00066EF7CE505C008E221E045EE6AED7CE5D5
:102AB0000E94A11480E008C0FC018281882319F0E3
:102AC0001092520101C081E00F910895CF93DF93DE
:102AD000EC01FB018281882309F41FC1C230FCE5AF
:102AE000DF0708F41BC1C6319CE5D90738F09E0109
:102AF0002B5F3C452930310508F010C10E946C2243
:102B000090938C0280938B02C031ECE5DE0709F4D0
:102B1000C3C008F041C0C8308CE5D80709F49AC09A
:102B2000F0F4C430ECE5DE0709F487C068F4C23085
:102B30008CE5D80709F477C0C330DC4509F0E3C061
:102B400080918B02826076C0C630ECE5DE0709F426
:102B50006EC008F07BC080918B0288606BC0CC3067
:102B60008CE5D80709F485C068F4CA30ECE5DE07C7
:102B700009F474C008F079C00E94DC1B80918B02BC
:102B8000806858C0CE308CE5D80709F476C008F0CC
:102B90007FC080918B028BC0CC3FECE5DE0709F44F
:102BA0004FC018F5C3318CE5D80709F47DC078F41F
:102BB000C131ECE5DE0709F473C0C231DC4509F030
:102BC000A2C00E94DC1B80918B028F7733C0C5317D
:102BD0008CE5D80709F472C008F486C0CB3FDC4509
:102BE00009F091C080918C023EC0C115FDE5DF0760
:102BF00009F45FC058F4CE3F9CE5D90709F444C0FE
:102C000008F43FC080918C0282602DC0C230FDE587
:102C1000DF0709F475C008F45DC0C330DD4509F075
:102C200072C080E06EC080918B02816003C0809191
:102C30008B02806180938B0266C080918B0211C0F1
:102C400080918C02826080938C025DC080918B02A7
:102C50008062F0CF80918B028064ECCF80918B02F8
:102C600088608460E7CF8160EECF80918B028E7F99
:102C7000E1CF80918B028D7FDDCF80918B02877FAA
:102C8000D9CF80918C0218C080918C028D7FDBCFD0
:102C900080918B028F7ECECF80918B028F7DCACFA9
:102CA00080918B028F7BC6CF80918B02877F8B7F39
:102CB000C1CF80918C028D7F8E7FC5CF80918B029A
:102CC00082FB222720F991E0922790FB82F990FB6A
:102CD00083F9B0CF80918C02982F909591708E7F60
:102CE000892B90FB81F9AFCF0E94DC1B80918B0276
:102CF00087FB222720F991E0922790FB87F99ACF52
:102D000081E00E940B2380918B0290918C020E94A3
:102D10007D220E94DC1B80E001C081E0DF91CF9129
:102D20000895CF93DF9386319C4541F5EB010E94D6
:102D3000A821982F8A8120917800309179008823EA
:102D400079F09A7A81E009F480E08093530191113F
:102D500002C069E201C065E3C9010E9452230AC0B2
:102D600080915301811102C069E201C065E3C9018C
:102D70000E9454230E94F62180E001C081E0DF918F
:102D8000CF91089511B887E080B985B3836085BB82
:102D900086B7846086BF86B7816086BF86B7806449
:102DA00086BF0895EF92FF920F931F93CF93DF9307
:102DB000182FEB0116BE84EA86BF0E947E237C0199
:102DC00006B607FC0EC0CF3F8FEFD807C9F30E94AD
:102DD0007E238E199F098C179D0790F38EEF9FEF2E
:102DE00028C081B1887F883039F081B1887F8031F7
:102DF00019F08FEF9FEF1DC013B984E886BF0E94C2
:102E00007E238C0106B607FC0CC0CF3F8FEFD8079E
:102E1000C9F30E947E23801B910B8C179D0790F3B2
:102E2000DDCF81B1887F883111F0803411F780E0E7
:102E300090E0DF91CF911F910F91FF90EF90089557
:102E40000F931F93CF93DF93EB0183B984E886BF81
:102E50000E947E238C0106B607FC0EC0CF3F8FEF89
:102E6000D807C9F30E947E23801B910B8C179D0706
:102E700090F38EEF9FEF0BC021B1287F81E090E0AF
:102E8000283211F480E090E0919581959109DF91CD
:102E9000CF911F910F910895CF92DF92EF92FF9201
:102EA0000F931F93CF93DF936B018A017901B901CF
:102EB0000E94D216E6010C0D1D1DC017D10759F452
:102EC00024E926BFDF91CF911F910F91FF90EF90E2
:102ED000DF90CF90089597FDF3CFB70189910E94BD
:102EE0002017EBCF90935901809358010895E091FA
:102EF0005801F0915901309721F00190F081E02DB7
:102F0000099480E00895E0915801F09159013097BB
:102F100021F00280F381E02D09940895209156015B
:102F2000309157012817390771F09093570180931A
:102F30005601E0915801F0915901309721F0068037
:102F4000F781E02D099408952091540130915501A5
:102F50002817390771F09093550180935401E0913F
:102F60005801F0915901309721F00084F185E02D4E
:102F70000994089584B7806884BF84B7806884BF4B
:102F8000089581E008950C94C11708950C94C51715
:102F90000C94C5170C94C8170C94C5170C94CC1737
:102FA0000C94C5170E94BA170E94D0170C94CE1724
:102FB0000E9477230E94D8090E94D8230E94881279
:102FC0000E94F2100C94CA177F928F929F92AF9238
:102FD000BF92CF92DF92EF92FF920F931F93CF9306
:102FE000DF93CDB7DEB72A970FB6F894DEBF0FBEDA
:102FF000CDBF0E94C6170E94C5170E941B0A0E94DF
:10300000C317811111C08FEF89838A831B820E94AD
:103010007E238160782F9D838C8349815A816B81C7
:103020008D810E949A184FC04BE5A42E41E0B42E2A
:1030300000E010E0702E802F0E94AA096C01F501BB
:10304000819091905F01882699268114910431F432
:103050000F5F1F4F0430110569F7D5CF8091CF0165
:1030600081FD0E94B30980E0EE24E394F12C9401E9
:103070002E213F21232B09F18E837F82CE20DF205A
:1030800081E0CD2809F480E088870E947E2381605A
:10309000782F9A8789874E815F8168858A850E940B
:1030A0009A18000F111FF801E55AFE4F8081918197
:1030B000E826F926F182E08206C08F5FEE0CFF1C45
:1030C0008C30A9F6C5CF0E9425110E94F4130E94EE
:1030D000771790915A018917C9F00E94771780934A
:1030E0005A012A960FB6F894DEBF0FBECDBFDF910E
:1030F000CF911F910F91FF90EF90DF90CF90BF90F5
:10310000AF909F908F907F900C9499072A960FB65E
:10311000F894DEBF0FBECDBFDF91CF911F910F910D
:10312000FF90EF90DF90CF90BF90AF909F908F90E7
:103130007F900895CF93DF93CDB7DEB72B970FB66F
:10314000F894DEBF0FBECDBF4F83588769877A875B
:103150008B87DE01119686E0FD0111928A95E9F7D1
:1031600085E0FE01379601900D928A95E1F749813D
:103170005A816B817C818D819E810E94951E2B9648
:103180000FB6F894DEBF0FBECDBFDF91CF9108958B
:10319000FC01808191810E9469210895CF93882349
:1031A00009F448C0C82F8CEF8C0F813AD0F46C2FF3
:1031B00080917800909179000E941C23882349F027
:1031C0006C2F80917800909179000E9454230E9486
:1031D000F6216C2F80917800909179000E94522303
:1031E0000CC080E28C0F883058F4C77081E001C0B9
:1031F000880FCA95EAF70E94AB21CF910C94F62173
:10320000EBE5EC0FE33040F4F0E0E05EFE4F808150
:1032100090E0CF910C948E17C85AC73158F4EC2F18
:10322000F0E0EE0FFF1FEE50FF4F80819181CF91B4
:103230000C94A417CF910895882349F1682F8CEF3F
:10324000860F813A38F480917800909179000E943D
:1032500054230CC080E2860F883050F4677081E000
:1032600001C0880F6A95EAF70E94B1210C94F621FB
:103270008BE5860F833020F480E090E00C948E176D
:10328000685A673120F480E090E00C94A417089508
:10329000CF93C82F0E94CE18C93349F42FEF8DEE7B
:1032A00092E0215080409040E1F700C000008C2F58
:1032B000CF910C941C19882321F00E94AB210C940F
:1032C000F6210895882321F00E94B1210C94F62163
:1032D0000895CF92DF92EF92FF920F931F93CF93B7
:1032E000DF937C01062FC72FFC01158112951F70FB
:1032F000D281D1110E94C8210E94A121882399F076
:10330000DD2389F08C2F807F803421F080E2800FD4
:10331000883048F082E00E9440220E94A12191E082
:10332000D82ED92601C0D12CCC2EC2948FE0C82231
:103330008C2D90E0FC01EB5BFF4F0C9461278C2FF0
:10334000807FCF70882311F0C295C07FDD2399F074
:10335000CC2309F482C180E2800F883010F0011183
:1033600004C08C2F0E94AB2103C08C2F0E94BB2174
:103370000E94F62172C1802F0E941C19CC2309F4EF
:1033800091C180E2800F883010F0011104C08C2FB1
:103390000E94B12103C08C2F0E94C1210E94F621FE
:1033A00081C18C2F807FCF70803211F0C295C07F99
:1033B000002319F00130C9F022C0DD2371F0112380
:1033C00041F0113031F40E94DB218C2B0E94E3216B
:1033D00069C10E94DB218C2B1DC0112319F0113013
:1033E00009F460C10E94EC2125C0DD2321F01630D4
:1033F00008F058C10EC0153008F054C11BC0DD23C1
:1034000061F0112331F0F701858180FF26C18F70B3
:1034100085838C2F0E945B1945C1112359F0093314
:1034200009F02CC1FFEF2DEE82E0F15020408040EA
:10343000E1F722C18C2F0E94621934C18C2F86952E
:103440008695837019F0813061F02CC1DD2321F065
:10345000802F9C2F937002C080E090E00E948E1716
:1034600029C1DD2321F0802F9C2F937002C080E0C2
:1034700090E00E94A4171EC18C2F837009F045C0F4
:10348000D11114C1402F429546954770440F440F07
:10349000602F6F70862F90E0A0E0B0E0042E04C093
:1034A000880F991FAA1FBB1F0A94D2F704FF10C0F0
:1034B0000FE010E020E030E004C0000F111F221FD9
:1034C000331F4A95D2F7009510952095309503C08B
:1034D00000E010E09801C695C695C370BC01CD010F
:1034E000602B712B822B932BC23049F058F4C130E2
:1034F00019F00E94E61FDAC00E94D41FD7C00E94B4
:10350000F81FD4C00E94D21FD1C0DD2319F08C2F28
:10351000817001C08695882309F4C8C0402F429568
:1035200046954770440F440F602F6F70862F90E0D0
:10353000A0E0B0E0042E04C0880F991FAA1FBB1F93
:103540000A94D2F704FF10C00FE010E020E030E052
:1035500004C0000F111F221F331F4A95D2F7009598
:1035600010952095309503C000E010E09801C695B5
:10357000C695C370BC01CD01602B712B822B932BA0
:10358000C23049F058F4C13019F00E94AB208EC00F
:103590000E9499208BC00E94BD2088C00E940C20F0
:1035A00085C0CF70DD2339F08C2F0E943220802F10
:1035B0000E945B197BC0802F0E9462198C2F0E9491
:1035C000532074C0023F01F128F4003F41F0013F55
:1035D000A1F03FC0033FF9F0043F39F13AC0DD23C9
:1035E00041F0153008F05EC08C2F8F710E9478205A
:1035F00059C0163008F056C0F7CFDD2339F08C2FB4
:103600008F710E9432204EC0DD23C9F38C2F8F7141
:103610000E94532047C0DD2329F08C2F8F710E9418
:103620001D2040C00E9418203DC0DD2349F0CF710D
:103630008C2F0E94322063E08C2F0E942B2232C0FC
:1036400081E00E944022123068F182E00E94402214
:1036500029C0DD2331F0112391F2802F0E94CE1872
:1036600021C0112399F2093349F49FEFEDEEF2E006
:103670009150E040F040E1F700C00000802F0E9430
:103680001C1910C04C2F4F70602FC7010E94A20759
:103690000E94431F0FC04C2F4F70602FC7010E9424
:1036A000A50708C088EF8C0D843020F40E9477179E
:1036B0000E949907DD20C9F00E949D2180FD15C060
:1036C000F70112820E9497210E943220C7010E94B6
:1036D000961B0E949721DF91CF911F910F91FF9030
:1036E000EF90DF90CF900C945320DF91CF911F91FA
:1036F0000F91FF90EF90DF90CF9008950F931F935D
:10370000CF93DF93EC01688179818A810E947421D3
:103710008C010E94CF200E94C01FB801CE010E94E0
:103720006919DF91CF911F910F910895CF93DF9386
:10373000EC01988189812B813C81232B31F08F3FD3
:1037400031F481E09F3F19F403C081E001C080E0C3
:1037500080FD19C0CE010E94490781110CC00E9452
:10376000A121882381F08A81882369F082E0DF919A
:10377000CF910C944022CE010E947E1BCE01DF919E
:10378000CF910C942207DF91CF9108950E94C82118
:103790000E94D8210E94F62180E090E00E948E17BE
:1037A00080E090E00C94A4178091780090917900CB
:1037B0000E9456230C94C61B0E94B8210C94D41B63
:1037C000E92FE295EF704E2F50E0FA013297EE307C
:1037D000F105B0F4EB5AFF4F0C946127803F91F054
:1037E00018F4883E68F40EC0843F51F40BC0883E44
:1037F00048F0813F29F406C093FB882780F908959B
:1038000080E0089581E008950E9469210E94E01BF4
:103810000895CF93DF9300D000D01F92CDB7DEB7CD
:103820000F900F900F900F900F90DF91CF91089510
:10383000CF93DF9300D000D000D0CDB7DEB726966F
:103840000FB6F894DEBF0FBECDBFDF91CF910895C4
:103850001F93CF93DF93C091640116E080916501BF
:10386000C81799F0D0E01C9FF0011D9FF00D1124A6
:10387000EA59FE4F40815181628173818481958133
:103880000E94181C2196C770E9CFDF91CF911F913C
:10389000089540919601509197016091980170911F
:1038A000990180919A0190919B010C94181C0F939F
:1038B0001F93CF93DF9380919B0182958F7009F0C6
:1038C0005DC080919801882309F458C080916401FB
:1038D000109165016091960170919701C0919901D5
:1038E000D0919A0191E06F3F09F090E0292F06E016
:1038F000811709F443C0209721F07F3F21F030E089
:1039000003C031E001C0322F90E030FD34C0089F89
:10391000F001099FF00D1124DF01AA59BE4F119645
:103920003C911197371327C03C91361324C012964F
:103930003C91129731111FC013964D915C911497D1
:103940004C1B5D0B483C5105B0F480919B018F707E
:10395000806180939B01E559FE4F80818F7080616B
:10396000808386E991E00E94961BDF91CF911F91A1
:103970000F910C94281C01968770BACFDF91CF91DC
:103980001F910F9108959F92AF92BF92CF92DF92B5
:10399000EF92FF920F931F93CF93DF93CDB7DEB7D4
:1039A00061970FB6F894DEBF0FBECDBF8C0185E0E6
:1039B000F801DE011D9601900D928A95E1F7F8015C
:1039C00040815181E2809091960160919701209110
:1039D000990130919A012115310531F06F3F31F491
:1039E00081E09F3F19F403C081E001C080E0F82F1F
:1039F000F1709F2E80FD46C1F801A380B48086E956
:103A0000C82E81E0D82EF0909801F501E21BF30B4F
:103A1000FF2009F4DFC080919B01E83CF10508F02C
:103A20009BC0282F207F09F052C0561313C04913A2
:103A300011C0FE2CE1100EC08F70806180939B013D
:103A40000E94491CC6010E94961B80919B01F801AF
:103A5000858358C1AB2831F05F3F31F481E04F3F9F
:103A600019F403C081E001C080E080FD03C081E063
:103A70008E2502C080E090E0F82FF170FF2E80FFCD
:103A80001CC0809164012091650136E0821709F421
:103A900017C190E0389FF001399FF00D1124EA59C9
:103AA000FE4F6181561306C06081461303C06281D8
:103AB000E61203C001968770E9CFFE2CEE2009F4D0
:103AC00021C180919B01816080939B015AC0561354
:103AD00006C0491304C0E11002C0F8019FC04D8721
:103AE0005E878D859E850E94041C882379F1EE20D7
:103AF00069F120919B01822F82958F7090E002974F
:103B000074F0809196019091970198878F83198620
:103B1000BB86AA862C87CE0107960E94961B86E05C
:103B2000F801A6E9B1E001900D928A95E1F70E94B3
:103B3000571C0E94491C0DC0561729F14D875E87FE
:103B40008D859E850E94041C81112CC0C8010E9495
:103B5000961BFF24F394D6C0282F207F69F77A2D77
:103B6000B98AA88A6E2D89890E94091C86E991E08C
:103B70000E94961B86E0F60111928A95E9F70E9451
:103B8000491CF12CBFC04913D9CFE110D7CFF801A0
:103B90008583C8010E94961B86E0F60111928A95E2
:103BA000E9F7B0C0EE2091F220919B01822F82951F
:103BB0008F7090E002970CF4B2CF809196019091B3
:103BC00097019A8389831B82BD82AC822E83CE01AA
:103BD0000196A3CFE83CF10508F047C0FE2CEE208B
:103BE00009F4B4CF561330C049132EC020919B0165
:103BF00020FD21C0822F82958F70482F50E0411503
:103C00005105C9F0F80125834F30510541F08F5F10
:103C1000982F9295907F822F8F70892B8583C80172
:103C20000E94961B86E0F801A6E9B1E001900D9292
:103C30008A95E1F742C086E0F801A6E9B1E001907B
:103C40000D928A95E1F75EC04D875E878D859E85D2
:103C50000E94041C811163CF80919B01816080933D
:103C60009B01C8010E94961B4DC07A2DB98AA88A73
:103C70006E2D89890E94091C86E0F60111928A95B1
:103C8000E9F71BC0EE2009F461CF4D875E878D8573
:103C90009E850E94041CF82E882309F457CF86E0E5
:103CA000F801A6E9B1E001900D928A95E1F786E965
:103CB00091E00E94C8180E94571C0E94491C22C013
:103CC0004D875E878D859E850E946921292F2295CB
:103CD0002F70223028F49F7039F0811105C00BC07D
:103CE000243028F49F7049F4805E883020F0C801A9
:103CF0000E94961B9F2CF92C05C0F8019581907F9E
:103D000099F7F9CF8F2D61960FB6F894DEBF0FBEED
:103D1000CDBFDF91CF911F910F91FF90EF90DF907A
:103D2000CF90BF90AF909F9008951F93CF93DF9354
:103D3000CDB7DEB72C970FB6F894DEBF0FBECDBF60
:103D40004F83588769877A878B879C87CE01079630
:103D50000E94C31C8823D1F09F8188852A853B85DA
:103D6000232B31F08F3F31F481E09F3F19F403C0E2
:103D700081E001C080E080FD47C04F8158856985A2
:103D80007A858B859C850E94181C3EC086E0FE01CA
:103D90003796DE01119601900D928A95E1F7FF8129
:103DA000E8856A857B856115710531F0EF3F31F457
:103DB00081E0FF3F19F403C081E001C080E080FD95
:103DC00023C02091650130E0C901019687709927D1
:103DD0004091640150E084179507F1F1F983EA837B
:103DE0007D836C8396E0929FD001939FB00D112448
:103DF000AA59BE4FFE01319601900D929A95E1F7B6
:103E0000809365010E94281C16E0809164019091C6
:103E10006501891771F1189FC00111248A599E4FBD
:103E20000E94C31C882329F1E09164011E9FF001C8
:103E30001124EA59FE4F408151816281738184814E
:103E400095810E94181C8091640190E00196877012
:103E5000992780936401D9CF0E94DC1B10926501E1
:103E600010926401E6E9F1E086E0DF011D928A9597
:103E7000E9F72C960FB6F894DEBF0FBECDBFDF91E9
:103E8000CF911F910895EF92FF920F931F93CF93BD
:103E9000DF938C01892B09F46CC0F12CEE24E394A0
:103EA000E8012196F8018491843740F4843008F0C9
:103EB00051C0813081F0823019F15BC0853709F43F
:103EC00044C0A8F19CE7980F903708F052C08F7754
:103ED0000E941C1941C00E5F1F4FFE01849190E2A9
:103EE000980F983050F48770FE2D01C0FF0F8A950F
:103EF000EAF78F2F0E94CB2114C00E94CE182DC04C
:103F00000E5F1F4FFE01849190E2980F983060F48D
:103F10008770FE2D01C0FF0F8A95EAF78F2F0E9450
:103F2000D1210E94F62119C00E941C1916C00E5FF3
:103F30001F4FFE01C491CC2381F087EB9BE00197DA
:103F4000F1F700C00000C150F6CF0E5F1F4FFE0119
:103F5000F49003C00E94CE188E018F2D882309F49F
:103F60009FCFE7EBFBE03197F1F700C000008150F5
:103F7000F5CFDF91CF911F910F91FF90EF900895B2
:103F8000089508950C94C11F0C94C21F0E94C41F71
:103F90006093BE017093BF018093C0019093C101F3
:103FA0000C94C61B0C94C61F0F931F930091BE0167
:103FB0001091BF012091C0013091C101602B712B84
:103FC000822B932B1F910F910C94C61F0F931F935D
:103FD0000091BE011091BF012091C0013091C1013B
:103FE00060237123822393231F910F910C94C61F8A
:103FF0000F931F930091BE011091BF012091C0014A
:104000003091C10160277127822793271F910F915B
:104010000C94C61F0C94C11F0E940A206093BA0121
:104020007093BB018093BC019093BD010C94C61B9F
:1040300060E070E0CB010C940C200F931F9341E0E3
:1040400050E060E070E08A019B0104C0000F111F86
:10405000221F331F8A95D2F7C901B8011F910F9112
:104060000C940C200F931F9341E050E060E070E04F
:1040700004C0440F551F661F771F8A95D2F78091A1
:10408000BA019091BB01A091BC01B091BD018A0120
:104090009B01082B192B2A2B3B2BC901B8011F911F
:1040A0000F910C940C200F931F9341E050E060E0BF
:1040B00070E004C0440F551F661F771F8A95D2F722
:1040C00040955095609570958091BA019091BB0193
:1040D000A091BC01B091BD018A019B010823192365
:1040E0002A233B23C901B8011F910F910C940C2086
:1040F0000F931F9341E050E060E070E004C0440F74
:10410000551F661F771F8A95D2F78091BA0190914B
:10411000BB01A091BC01B091BD018A019B010827A0
:1041200019272A273B27C901B8011F910F910C9429
:104130000C200F931F930091BA011091BB012091A5
:10414000BC013091BD01602B712B822B932B1F91F1
:104150000F910C940C200F931F930091BA011091B2
:10416000BB012091BC013091BD01602371238223EA
:1041700093231F910F910C940C200F931F93009188
:10418000BA011091BB012091BC013091BD016027A3
:104190007127822793271F910F910C940C2008956B
:1041A0002CE0929F800D1124E82FE695E695E69588
:1041B000877051E001C0550F8A95EAF785E0E89FC6
:1041C000F0011124E456FE4F20E030E070E0408121
:1041D000CB01022E02C0969587950A94E2F7817072
:1041E000819584278523842781932F5F3F4F253036
:1041F000310569F708952CE0929F800D1124682FF6
:10420000669566956695982F977085E0689FB001D2
:10421000112440E050E080E0FB01E40FF51FE4567C
:10422000FE4F208130E0092E02C0369527950A9472
:10423000E2F721703327042E01C0220F0A94EAF717
:10424000822B4F5F5F4F4530510531F70895BF9284
:10425000CF92DF92EF92FF920F931F93CF93DF9352
:104260008C01C090BA01D090BB01E090BC01F090ED
:10427000BD018091BE019091BF01A091C001B0919C
:10428000C101C82AD92AEA2AFB2ACFE1D0E0D70106
:10429000C6010C2E04C0B695A795979587950A94EC
:1042A000D2F780FD04C0219790F7B12C07C0BC2E37
:1042B000B8018C2F0E94C1070197A9F38B2DDF91C4
:1042C000CF911F910F91FF90EF90DF90CF90BF9013
:1042D0000895CF93DF93EC010E942721BE010E9435
:1042E000C107DF91CF9108951F93CF93DF93EB0127
:1042F00090916301992321F0CB010E94692113C0A1
:10430000882349F0CB010E942721182F682FCE0166
:104310000E94D02004C0CB010E94FB20182FBE01B8
:10432000812F0E94C107DF91CF911F910895809145
:10433000C20185958595859508958091C201877004
:1043400008959091C201977081E009F480E008958A
:104350008091CE0108959091CE01892B8093CE015A
:10436000089580959091CE0189238093CE01089580
:104370001092CE0108959091CD01892B8093CD01AB
:10438000089580959091CD0189238093CD01089562
:104390001092CD0108959091CC01892B8093CC018E
:1043A000089580959091CC0189238093CC01089544
:1043B0001092CC0108958091C301089508950C9442
:1043C000DE210C94DF219091C301981721F0809396
:1043D000C3010C94E12108958091C301882329F041
:1043E0001092C30180E00C94E1210895E0917800DF
:1043F000F09179008091CE018083E0917800F09176
:10440000790090818091CD01892B8083E0917800A3
:10441000F091790090818091CC01892B80838091EB
:10442000C301882381F0E0917800F09179009081B8
:10443000892B808380917800909179000E941023CD
:1044400081110E94EC2180917800909179000C9468
:1044500083170C94DE2198E0899F90011124262B6C
:104460002093C2010E9432208091C20185958595DA
:1044700085950C9429221092C20180E00C94292287
:104480002091C201809582238093C201982F97705A
:1044900079F430E0482F082E000C550B241735070F
:1044A00039F08595859585950E9453200C943B2283
:1044B000089580E090E00E940F2821E08C3E9E4FFE
:1044C00009F020E0822F089582E090E00C9401280A
:1044D00083E090E00C940128CF9384E090E00E9468
:1044E0000128C82F81E290E00E9401282C2F30E0A3
:1044F000A901582BCA01CF910895CF93C92F682FD6
:1045000084E090E00E9415286C2F81E290E0CF912A
:104510000C94152886E090E00C940128682F86E022
:1045200090E00C941528AB01BC018FE090E00C9456
:104530002628AB01BC0183E190E00C94262860E0C2
:1045400070E0CB010C94992260E070E0CB010E94F6
:1045500093220C949F226CEE7EEF80E090E00E940C
:10456000322860E082E090E00E94152860E083E05D
:1045700090E00E9415281092BE011092BF01109287
:10458000C0011092C10160E084E090E00E94152813
:1045900060E081E290E00E94152860E085E090E014
:1045A0000E94152860E086E090E00E9415286FEFD9
:1045B00087E090E00E94152840E050E0BA0188E0D2
:1045C00090E00E94262860E08DE090E00E9415288F
:1045D00040E050E0BA0188E190E00E94262860E0C7
:1045E00087E190E00E94152840E050E0BA018CE19C
:1045F00090E00E94262860E080E290E00E9415286A
:1046000040E050E0BA0188E190E00E9426280C9436
:10461000A4220C94AB22682F8EE090E00C94152815
:10462000FC01329697E080E0915029F021912223FD
:10463000D9F38F5FF9CF0895662349F0FC013296D4
:1046400008962191621729F0E817F907D1F780E061
:10465000089581E008959C01FC0132969FEF80E06F
:104660004191461789F09F3F19F4411101C0982FDD
:104670008F5F8630A9F79F3F39F0F901E90FF11DEF
:1046800097FDFA956283089508959C012A5F3F4F34
:10469000FC014281461301C01282019682179307E2
:1046A000B9F708950C942B230C944523029626E029
:1046B000FC0111922A95E9F7089508950C945D2361
:1046C0000C945D23CF930E9460230E941B0A0E94DA
:1046D0005E23C0E08C2F0E94AA09892B29F4CF5FAA
:1046E000C430C1F780E001C081E0CF9108958BE034
:1046F00083BF8BEB8CBF82E089BF08952FB7F894FE
:104700008091870290918802A0918902B0918A02DB
:104710002FBF08959C014FB7F89480918702909124
:104720008802A0918902B0918A024FBF821B930B2D
:10473000089578941F920F920FB60F9211248F93C1
:104740009F93AF93BF938091870290918802A0912D
:104750008902B0918A020196A11DB11D8093870242
:1047600090938802A0938902B0938A02BF91AF917F
:104770009F918F910F900FBE0F901F90189560E042
:1047800081E090E00E94382887E090EBDC01809384
:10479000DD029093DE02A093DF02B093E0029CE082
:1047A00088E10FB6F894A89581BD0FBE91BDFFCFEB
:1047B0000E945922811102C00E9409230E94642292
:1047C0008093CF010E946C2290938C0280938B0285
:1047D0000E946822682F70E080E090E00E94D21F63
:1047E0006091BA017091BB018091BC019091BD01B3
:1047F0000C940A200F931F93CF93DF930E947E2384
:104800008C010E94D2170E94D2268B9A80E08150A0
:1048100041F0A895E7EBFBE03197F1F700C000000D
:10482000F6CF8B9878940E94D8170E94F5240E94A6
:104830007217FFEB24ED31E0F15020403040E1F7FA
:1048400000C00000C0E0DCE08091B402882331F0B9
:104850001092B4020E947E238C0107C0C8010E94FE
:104860008A230697A8F4C11113C00E94DB2580910A
:10487000BA02882329F08091980284FD0E94E417EF
:104880000E949C240E94C6170E94C517C0E0DCCF7E
:104890000E946223811102C0C1E0D6CFF89491B387
:1048A000939A892F8C6081BB82B38D2782BB8FE561
:1048B000EAEEF0E08150E040F040E1F700C0000097
:1048C00082B38D2782BB91BB93987894E5CF80917A
:1048D000610208950895CF93DF9300D01F92CDB762
:1048E000DEB79091D201981307C02091D00130918A
:1048F000D1012617370791F08093D2017093D1012F
:104900006093D00189837B836A838091D10284FF85
:1049100005C063E0CE0101960E94D7250F900F904D
:104920000F90DF91CF910895BC0184E00C946B242B
:10493000BC0183E00C946B24CF93DF93CAE0D0E0FA
:104940008091980284FF18C08091DE019091DF0170
:104950009817E1F028E0829FC001112468E080529E
:104960009E4F0E94D3258091DE0190E001968F70CA
:1049700099278093DE010AC00E94DB2587EB9BE02C
:104980000197F1F700C000002197D1F6DF91CF9198
:104990000895CF93DF93EC01A091DF01B0E0CD014A
:1049A00001968F7099272091DE01281779F093E006
:1049B000AA0FBB1F9A95E1F7A052BE4F98E0FE01E7
:1049C00001900D929A95E1F78093DF010E94DB251B
:1049D0000E949C2488E0FE01A6EDB1E001900D92BA
:1049E0008A95E1F7DF91CF9108958AE790E00895E5
:1049F000FC01808180768032A1F58181813061F473
:104A000084819581892B69F586ED91E09093B602BA
:104A10008093B50288E00895823041F480E692E008
:104A20009093B6028093B50281E008958A3021F414
:104A300083818093600215C0893099F482819381CB
:104A40008115924081F484819581892B61F481E004
:104A50008093D501868197819093D4018093D3016F
:104A600002C080E008958FEF08952091D301309126
:104A7000D401232B71F02091D501213051F4FC0198
:104A80008081809361021092D4011092D30181E061
:104A900008958FEF08950895FC0193819330D9F024
:104AA00068F4913081F0923009F059C080E699E0C5
:104AB0009093B6028093B5028BE30895913249F149
:104AC0009232B9F14CC08BE999E09093B602809391
:104AD000B50282E108958281813099F050F08230F0
:104AE000F1F58DEA99E09093B6028093B5028AE0E1
:104AF000089581ED99E09093B6028093B50284E029
:104B0000089589EB99E09093B6028093B50286E10F
:104B100008958281882329F0813009F58BE899E096
:104B200002C082E799E09093B6028093B50289E0D3
:104B3000089584819581009751F0019781F485ED66
:104B400099E09093B6028093B50282E3089587E0DE
:104B50009AE09093B6028093B50280E4089580E0D5
:104B600008951F93CF93DF93162FEA01288124FF26
:104B700005C0398128E82327298302C02AE5288334
:104B8000212FFC01CE010296DC0131913D93215091
:104B90001216DCF3612F0E947F051C5F1883DF91E2
:104BA000CF911F91089548E952E00C94B12541ED51
:104BB00052E00C94B125CF93DF936091B70263501C
:104BC00067FD93C08091B302CCE0D0E0C81BD1094F
:104BD000C554DD4F8091B202803120F4CE010E9495
:104BE0004B2581C08D3209F06EC0683009F07BC062
:104BF00083EC80938D028AE5809385001092B10248
:104C00008881807621F0CE010E94F82449C09A81E3
:104C1000109296028981811106C01092970226E9AE
:104C200032E082E038C0853019F49093B80230C089
:104C30008630A1F48B81813041F0823031F08330B5
:104C400021F0813211F0823221F4CE010E944C25F4
:104C500001C080E090E49093B10222C0883089F0D6
:104C6000893019F49093BA0213C08A3069F08B30FE
:104C700079F48BE4809399028093D2028093A50209
:104C800007C02AEB32E002C026E932E081E003C02F
:104C900026E932E080E03093B6022093B50209C0E5
:104CA0008F3F39F4988197FD8E8190E89093B102FF
:104CB00007C09F81911104C09E81981708F4892F25
:104CC0008093840010C08091B10287FF0CC0CE0198
:104CD0000E9435258F3F21F48EE18093850003C02B
:104CE0008111109284001092B7028091850084FF98
:104CF0004CC0809184008F3F09F447C0C82F893091
:104D000008F0C8E08C1B8093840090918D0288E8A5
:104D1000892780938D02CC2359F18091B50290911F
:104D2000B6022091B10226FF12C0ADE8B2E02C2FEE
:104D3000AC014D585240FA01EA0FFB1FE491119665
:104D4000EC931197215011962111F5CF08C0EEE890
:104D5000F2E0DC012C2F3D9131932150E1F70196D7
:104D60002FEF2C0F820F911D9093B6028093B50206
:104D70006C2F8EE892E00E947F05CC5FCC3019F05A
:104D80008FEF80938400C093850084E190B39C7082
:104D900031F48150D9F71092B8021092B002DF912D
:104DA000CF910895CF93DF9385B7886085BF8BB788
:104DB00080688BBFC8E9D2E08BE48983A1EDB2E0C3
:104DC00011968C931197E4EAF2E081838AE5888357
:104DD0008C938083DF91CF910895DB018F939F9314
:104DE0000E948527BF91AF91A29F800D911DA39F27
:104DF000900DB29F900D11240895991B79E004C085
:104E0000991F961708F0961B881F7A95C9F7809509
:104E1000089587FB082E062687FD819567FD61951D
:104E20000E94FD260EF4919507FC81950895AA1B1A
:104E3000BB1B51E107C0AA1FBB1FA617B70710F085
:104E4000A61BB70B881F991F5A95A9F780959095B7
:104E5000BC01CD01089597FB072E16F4009407D0EE
:104E600077FD09D00E94172707FC05D03EF49095E6
:104E700081959F4F0895709561957F4F0895A1E2A8
:104E80001A2EAA1BBB1BFD010DC0AA1FBB1FEE1FC4
:104E9000FF1FA217B307E407F50720F0A21BB30B0F
:104EA000E40BF50B661F771F881F991F1A9469F78B
:104EB00060957095809590959B01AC01BD01CF01E7
:104EC0000895EE0FFF1F0590F491E02D09940E94C4
:104ED0006F27332312F48A1B9B0B0C948027A29F0D
:104EE000B001B39FC001A39F700D811D1124911DBE
:104EF000B29F700D811D1124911D08950E946F278E
:104F0000B7FF0895821B930B08950E946F27A59FFA
:104F1000900DB49F900DA49F800D911D11240895B4
:104F2000B7FF0C9485270E948527821B930B089559
:104F30008F929F92AF92BF92CF92DF92EF92FF92A9
:104F4000CF93DF93EC01688179818A819B81611520
:104F500071058105910521F464E279ED8BE597E017
:104F60002DE133EF41E050E00E94552849015A01FC
:104F70009B01AC01A7EAB1E40E9485276B017C018B
:104F8000ACEEB4EFA50194010E949327DC01CB01A4
:104F90008C0D9D1DAE1DBF1DB7FF03C00197A1095C
:104FA000B04888839983AA83BB839F77DF91CF9191
:104FB000FF90EF90DF90CF90BF90AF909F908F9039
:104FC00008950E949827089580E690E00E9498270F
:104FD0000895A0E0B0E08093600090936100A093FA
:104FE0006200B09363000895FC014150504030F0DE
:104FF00001900616D1F73197CF0108958827992798
:105000000895E199FECF9FBB8EBBE09A99278DB39F
:105010000895A6E1B0E044E050E00C944728A8E1F0
:10502000B0E042E050E00C944728262FE199FECFF3
:105030009FBB8EBBE09A01970DB2021631F02DBBDB
:105040000FB6F894E29AE19A0FBE08950396272FBF
:105050000E9416280E941528252F0E941628242F0A
:105060000C9416280196272F0E9416280C941528B8
:10507000262FE199FECF9FBB8EBB2DBB0FB6F894B8
:10508000E29AE19A0FBE01960895DC01CB01FC0182
:10509000E199FECF06C0FFBBEEBBE09A31960DB2A0
:1050A0000D9241505040B8F70895052E97FB1EF41D
:1050B00000940E946C2857FD07D00E943F2707FCF0
:1050C00003D04EF40C946C28509540953095219562
:1050D0003F4F4F4F5F4F0895909580957095619524
:0C50E0007F4F8F4F9F4F0895F894FFCF33
:1050EC0001000000010102000500050501191A1B51
:1050FC001C1D1E1F20212206C4016724C9246A24FA
:10510C0098249424FF5AE200E900EA00B500B600A6
:10511C00B700CD008301CC008A01920194012102D9
:10512C00230224022502260227022A02B300B4001D
:10513C006F0070008182833435363794959697933F
:10514C0092919060616364000102020202060606FD
:10515C000909090909090F0F0F0F0F0F151515185C
:10516C00191919191919191919192324252525255E
:10517C002525E200E900EA00B500B600B700CD0035
:10518C008301CC008A0192019401210223022402A2
:10519C002502260227022A02B300B4006F00700019
:0451AC008182830079
:00000001FF
