:100000000C9459050C94A0050C94A0050C94A00523
:100010000C94A0050C94A0050C94A0050C94A005CC
:100020000C94A0050C94A0050C94F11F0C942D1FAA
:100030000C94F6220C94A0050C94A0050C94A00539
:100040000C94A0050C94A0050C94A0050C94A0059C
:100050000C94A0050C948B220C94A0050C94A00584
:100060000C94A0050C94A0050C94A0050C94A0057C
:100070000C94A0050C94A0050C94A0050C94A0056C
:100080000C94A0050C94A0050C94A0050C94A0055C
:100090000C94A0050C94A0050C94A0050C94A0054C
:1000A0000C94A0050C94A0050C94A005E8100D116B
:1000B000121117111C11211126112B11301135119C
:1000C0003A114111441147114A114D115011531168
:1000D00056115B11EE11EE11281228127B129712A5
:1000E00029142914A2128013911391132A192A1981
:1000F0003D193D1933193D193D193D192A192A1980
:1001000038193D193D193819481D6F1D051F6F1D00
:10011000051FB71DDA1D051FC91EDC1E0763423609
:10012000B79BD8A71A39685618AEBAAB558C1D3C88
:10013000B7CC5763BD6DEDFD753EF6177231BF004C
:100140000000803F05A84CCDB2D44EB93836A90284
:100150000C50B9918688083CA6AAAA2ABE000000C5
:10016000803F0001010101010101010102020202BF
:100170000202020202030303030303030304040451
:10018000040404040505050505060606060607071A
:1001900007070708080808090909090A0A0A0B0BD2
:1001A0000B0C0C0C0D0D0D0E0E0E0F0F0F10101171
:1001B00011111212131314141515161617171818F7
:1001C00019191A1A1B1B1C1D1D1E1E1F202021225F
:1001D00022232424252626272829292A2B2C2D2DA5
:1001E0002E2F30313232333435363738393A3B3CC2
:1001F0003D3E3F404142434445464748494A4C4DB5
:100200004E4F50515354555658595A5B5D5E5F617D
:100210006264656668696B6C6D6F70727375777810
:100220007A7B7D7E8082838587888A8C8E8F91936E
:100230009596989A9C9EA0A2A3A5A7A9ABADAFB195
:10024000B3B5B7BABCBEC0C2C4C6C9CBCDCFD1D47A
:10025000D6D8DBDDDFE2E4E7E9EBEEF0F3F5F8FA20
:10026000FDFFFFAA7F5540165C14001A0008001518
:100270000017001C002B4304001600070009000AA9
:10028000000B00E1001D001B000600190005001115
:1002900000E000E300E200000001512C0000001823
:1002A000000C00120013004C002A0000000D000E8C
:1002B000000F003300284200000000100036003715
:1002C0000052000F51000000000000125950005170
:1002D000004F0000000000350014051A0508051540
:1002E0000517051C051E001F002000210022002309
:1002F00000240001001D051B0506071907340038FE
:1003000000010001000100000001002C00000018A5
:10031000050C05120549000100010000002500261A
:100320000027002D002E00000000002F00300031BB
:10033000004B00130300000000000001004A004EC3
:10034000004D00000000000100010001000100015B
:100350000001000100010001000100010001000195
:100360000001000005010001000100010001000181
:1003700000000F000A00070000E000036300000116
:100380000001000100010001000100000001000166
:100390000001000100010000000000010001000157
:1003A0000038000F53000000000000000D0007009F
:1003B0000A000F000000004C05680069006A006B2D
:1003C00000F9002B0501006C006D006E006F00FA53
:1003D0000050000000700071007200730000004ABD
:1003E000000755010001000000E000E10000002BC3
:1003F0000700000000460009062A000000510052D4
:10040000004F0000001303000000004E004B004DA1
:1004100000000000000000000000000000000000DC
:1004200000000000000000010001000100010001C7
:1004300000010001000100010001000100010001B4
:1004400000010001000100010001000100010001A4
:100450000001000100010000000100010000000196
:100460000001000100010001000100000001000185
:100470000001000100010000000000010001000176
:100480000001000100000000000000010001000167
:100490000001000000000001000100010001000156
:1004A0000001000100010001000100010001000144
:1004B0000001000100010001000100010001000134
:1004C0000001000100010000000100010000000126
:1004D0000001000100010001000100000001000115
:1004E0000001000100010000000000010001000106
:1004F00000010001000000000000000100010001F7
:1005000000010000000000010001000100010001E5
:1005100000010001000100010001000100010001D3
:1005200000010001000100010001000100010001C3
:1005300000010001000100000001000100000001B5
:1005400000010001000100010001000000010001A4
:100550000001000100010000000000010001000195
:100560000001000100000000000000010001000186
:100570000001000000000001000100010001000175
:100580000001000100010001000100010001000163
:100590000001000100010001000100010001000153
:1005A0000001000100010000000100010000000145
:1005B0000001000100010001000100000001000134
:1005C0000001000100010000000000010001000125
:1005D0000001000100000000000000010001000116
:1005E0000001000000000001000100010001000105
:1005F00000010001000100010001000100010001F3
:1006000000010001000100010001000100010001E2
:1006100000010001000100000001000100000001D4
:1006200000010001000100010001000000010001C3
:1006300000010001000100000000000100010001B4
:1006400000010001000000000000000100010001A5
:100650000001000000000001000100010001000194
:100660000001000100010001000100010001000182
:100670000001000100010001000100010001000172
:100680000001000100010000000100010000000164
:100690000001000100010001000100000001000153
:1006A0000001000100010000000000010001000144
:1006B0000001000100000000000000010001000135
:1006C0000001000000000001000100010001000124
:1006D0000001000100010001000100010001000112
:1006E0000001000100010001000100010001000102
:1006F00000010001000100000001000100000001F4
:1007000000010001000100010001000000010001E2
:1007100000010001000100000000000100010001D3
:1007200000010001000000000000000100010001C4
:1007300000010000000000010001000100010001B3
:1007400000010001000100010001000100010001A1
:100750000001000100010001000100010001000191
:100760000001000100010000000100010000000183
:100770000001000100010001000100000001000172
:100780000001000100010000000000010001000163
:100790000001000100000000000000010001000154
:1007A0000001000000000001000100010001000143
:1007B0000001000100010001000100010001000131
:1007C0000001000100010001000100010001000121
:1007D0000001000100010000000100010000000113
:1007E0000001000100010001000100000001000102
:1007F00000010001000100000000000100010001F3
:1008000000010001000000000000000100010001E3
:1008100000010000000000010001000100010001D2
:1008200000010001000100010001000100010001C0
:1008300000010001000100010001000100010001B0
:1008400000010001000100000001000100000001A2
:100850000001000100010001000100000001000191
:100860000001000100010000000000010001000182
:100870000001000100000000000000010001000173
:100880000001000000000001000100010001000162
:100890000001000100010001000100010001000150
:1008A0000001000100010001000100010001000140
:1008B0000001000100010000000100010000000132
:1008C0000001000100010001000100000001000121
:1008D0000001000100010000000000010001000112
:1008E0000001000100000000000000010001000103
:1008F00000010000000000005CA800AA00A900BEE2
:1009000000BD00C35C3A003B003C003D003E003FA0
:100910000040003900470053000000C95CC85C007B
:1009200000CE5CCF5CD05C0000C65CC75C0000CA37
:100930005CCB5CCC5CCD5CC45CC55C00004100421F
:100940000043004400450000000000135012501105
:100950005010500100000000000000D15CD35CD4B6
:100960005CD55C0000000032190A00047F3F1F6460
:100970003214643214783C1E1E140A050501090263
:10098000A10185020901A100050919012905150028
:100990002501950575018102950175038101050108
:1009A000093009311581257F9502750881060938BE
:1009B0001581257F950175088106050C0A380215F9
:1009C00081257F950175088106C0C005010980A1B8
:1009D00001850319012AB700150126B70095017595
:1009E000108100C0050C0901A101850419012AA08C
:1009F00002150126A002950175108100C0050109AC
:100A000006A101050719E029E715002501950875DC
:100A10000181029501750881010507190029FF155B
:100A20000026FF00950675088100050819012905B3
:100A3000950575019102950175039101C009023B6D
:100A400000020100A0FA09040000010301010009ED
:100A500021110100012240000705810308000A0955
:100A6000040100010300000009211101000122819D
:100A7000000705820320000A12011001000000088F
:100A80004D4D58042100010200010A0354004700A3
:100A900034007800000016034D00790074006800EF
:100AA0006F0073004D0061006E006E0000000403D3
:100AB000090411241FBECFEFDAE0DEBFCDBF04B6BC
:100AC00003FE27C080918D0290918E02A0918F022B
:100AD000B09190028730904BA740B04BD1F4109268
:100AE0008D0210928E0210928F021092900214BE0C
:100AF00084B7877F84BF0FB6F894A8958091600073
:100B0000886180936000109260000FBEE0E0F8E31F
:100B1000099511E0A0E0B1E0E6E9F3E502C0059037
:100B20000D92A838B107D9F722E0A8E8B1E001C0DA
:100B30001D92AD38B207E1F70E9468150C94C929DF
:100B40000C9400000895AF92BF92CF92DF92EF9283
:100B5000FF920F931F93CF93DF93E82EF62EE901B8
:100B6000E42FF0E0611106C0EE59FE4FE4914E2FE4
:100B70002E2F71C0062F10E0EE59FE4F4491F42F36
:100B8000C42ED12C26E0829FC00111242FEF30E02B
:100B9000B9010E947F295BEA5603C001579F900D5F
:100BA00011248E0D911D8E0D911D582F550F580F2C
:100BB000D901A01BB10BAC9DC001AD9D900DBC9D9A
:100BC000900D1124E92FF59ED0011124AB2FBB27E6
:100BD0007901EA1AFB0AEC9CD001ED9CB00DFC9C5B
:100BE000B00D11245901A51AB108A09E7001A19E53
:100BF000F00CB09EF00C1124EF2CFF242E193F09AD
:100C00002C9D80012D9D100D3C9D100D1124212F38
:100C10006230710591F048F461157105E1F06130C1
:100C20007105B9F4242F4B2F16C06430710569F09B
:100C300040F06630710579F00CC0242F492FE12F68
:100C40000AC0492FEF2F2B2F06C0292FE42F412F49
:100C500002C0292FEB2F49832883EA83DF91CF91AC
:100C60001F910F91FF90EF90DF90CF90BF90AF90CA
:100C700008959091D20192FF0DC0282F287128303D
:100C800019F4877F846006C0282F2471243011F462
:100C90008B7F886093FF0DC0282F2871283119F4AD
:100CA000877E846106C0282F2471243111F48B7E45
:100CB00088612091D30120FF0DC0382F3871383062
:100CC00019F4877F816006C0382F3171313011F4FB
:100CD0008E7F886021FF0DC0282F2871283119F4DC
:100CE000877E816106C0282F2171213111F48E7E0B
:100CF000886194FD877E08951F93CF93DF93CDB7CE
:100D0000DEB767970FB6F894DEBF0FBECDBF4B8B33
:100D10005C8B6D8B7E8B8F8B86E09E01235F3F4FBC
:100D2000D901E82F1D92EA95E9F795E0FE01739647
:100D3000D90101900D929A95E1F7F901DE0117961C
:100D400001900D928A95E1F7CE0107960E94411914
:100D500081113EC086E0FE013796DE0111960190BA
:100D60000D928A95E1F7FF81E8856A857B8561159B
:100D7000710531F0EF3F31F481E0FF3F19F403C01A
:100D800081E001C080E080FD23C020912A0230E094
:100D9000C90101968770992740915B0250E0841742
:100DA000950779F1F983EA837D836C8396E0929FBE
:100DB000D001939FB00D1124A55DBD4FFE0131966A
:100DC00001900D929A95E1F780932A020E940B25DB
:100DD00016E080915B0290912A028917F9F0189F22
:100DE000C0011124855D9D4F0E9441198823B1F0F7
:100DF00080915B0290E001968770992780935B0257
:100E0000E8CF0E940D1B10922A0210925B02E4E2CE
:100E1000F2E086E0DF011D928A95E9F767960FB64A
:100E2000F894DEBF0FBECDBFDF91CF911F91089523
:100E30002091C2013091C3012817390771F09093B6
:100E4000C3018093C201E091D501F091D6013097A2
:100E500021F00084F185E02D099408952091C001CE
:100E60003091C1012817390771F09093C101809327
:100E7000C001E091D501F091D601309721F00680B4
:100E8000F781E02D09940895E091D501F091D60104
:100E9000309721F00190F081E02D099480E00895D1
:100EA0000F931F93CF93DF93C42FD22FFC01828126
:100EB0008823C9F04093C4010E94C0229093BF01CF
:100EC0008093BE0180E28C0F883008F05EC0C7704E
:100ED00081E001C0880FCA95EAF7DF91CF911F9199
:100EE0000F910C94231B8091C40148133EC0809144
:100EF000BE019091BF010E94B122883C9105A8F5E6
:100F000010E21D0FCD17B9F080E28C0F883040F44D
:100F1000C77081E001C0880FCA95EAF70E94181BCC
:100F2000183048F481E09D2F977001C0880F9A9582
:100F3000EAF70E94231B802F0E94941B093349F477
:100F4000FFEF27EE83E0F15020408040E1F700C042
:100F50000000802F0E942D1B1830B8F4D77081E05C
:100F600001C0880FDA95EAF70AC080E28C0F88305A
:100F700060F4C77081E001C0880FCA95EAF7DF917D
:100F8000CF911F910F910C94181BDF91CF911F915E
:100F90000F910895882311F0FA0101C0FB01099413
:100FA0006091FF01669570E04BE050E084E091E0D5
:100FB0000E94BC29892B19F481E08093E7010E94EB
:100FC000C0229093E1018093E00108958091FF0198
:100FD00080FF0AC0529A8BB18B7F9BB194602FB770
:100FE000F894EEE8F1E00BC0EEE8F1E01182108237
:100FF0001282339631E0E03AF307C1F7EBCF31E0EC
:10100000E03AF30789F0319148E09BB9000000C055
:1010100037FF8BB9330F000000C000C000C08BB990
:1010200000C04A9591F7EBCF2FBF8FE594E0019771
:10103000F1F700C0000008958F929F92AF92BF9287
:10104000CF92DF92EF92FF920F931F93CF93DF9394
:10105000FC01B280948081E08483C0EAD1E00EE894
:1010600011E08BE4A82E88248394EE24EA94F12CDA
:101070002BE4C22ED12C911003C01B821A824AC0CD
:101080002B81222311F121502B833C81332319F032
:101090009A2D921B01C0922F80910202899FC0015C
:1010A0001124B6010E947F296A83211104C03323D1
:1010B00011F01C82AB8222E02B1560F180910002BE
:1010C000888380910102898325C00E946125823036
:1010D000914004F582E08B1530F40E946125B70140
:1010E0000E94932902C080910002888322E02B1580
:1010F00058F40E946125209101022695622F70E02C
:101100000E949329820F02C08091010289831A8272
:10111000AB828C8298014A81698188810E94A305F3
:1011200025960D5F1F4F81E0CE3BD80709F0A3CF76
:10113000DF91CF911F910F91FF90EF90DF90CF90B3
:10114000BF90AF909F908F900C94E607EF92FF9224
:101150000F931F93CF93DF938C01CEE8D1E0E12C66
:10116000F12CF8018481F3E0EF16F1041CF48823DC
:1011700039F002C0811104C09E014091020202C0F8
:101180009E0140E060910102809100020E94A3054F
:101190008FEFE81AF80A239696E0E916F10409F7AA
:1011A0000E94E607F801848190E0019681709927FA
:1011B0008483DF91CF911F910F91FF90EF9008955D
:1011C0008F929F92AF92BF92CF92DF92EF92FF9257
:1011D0000F931F93CF93DF93EC014C81042F10E00A
:1011E0009801D8010E940D269B01AC010E94D825D0
:1011F0006B017C01E0E2F0E0E01BF10BA5E5B0E063
:101200009B01AC010E94D8254B015C019F01DF01CD
:101210000E94AD299B01AC010E94E3259B01AC011A
:101220002C0D3D1D4E1D5F1DC501B4010E94EB2517
:10123000822FF22E99E2921728F093E0299F9001D5
:1012400011240DC025E530E0281B3109C901880FA4
:10125000991F280F391F37FF02C02F5F3F4F359569
:101260002795122F10959EE8C92E91E0D92E00E007
:1012700085E5E82EEF1801FD02C08E2D01C08F2DEF
:101280009601412F609101020E94A3050F5F83E048
:10129000C80ED11C063079F70E94E6078C818111B7
:1012A00002C091E003C0803219F49FEF90931101C6
:1012B00090911101890F8C83DF91CF911F910F9134
:1012C000FF90EF90DF90CF90BF90AF909F908F9066
:1012D00008950F931F93CF93DF93CEE8D1E0FE01E3
:1012E000118210821282339681E0E03AF807C1F74A
:1012F00000E010E080918C01082E000C990B08177B
:10130000190794F080911001082E000C990B80179A
:10131000910754F09E014091020260910102809178
:1013200000020E94A30503C0198218821A820F5F6F
:101330001F4F239606301105E9F60E94E6078091BB
:101340000F0190918C01980F90938C0120911001C6
:10135000280F20931001121614F495301CF081957B
:1013600080930F01DF91CF911F910F910895BF924C
:10137000CF92DF92EF92FF920F931F93CF93DF9361
:10138000FC01828180FF03C0DD24DA9402C0DD24E9
:10139000D3940EE811E0C0E0D0E026E0B22EF801D0
:1013A00011821082128294E0E92EF12CC12C8091DE
:1013B0008B018C0D87302CF06B2D0E947129892FA9
:1013C00002C087FD8A5F082E000C990BC817D90749
:1013D00091F4809102028E9DA0018F9D500D1124E9
:1013E00055954795559547959801609101028091D3
:1013F00000020E94A305CD0CF1E0EF1AF108B9F646
:1014000021960D5F1F4FC630D10549F60E94E607B1
:1014100080918B0191E0D91206C0811102C085E054
:1014200007C0815005C090E00196BE010E9493293B
:1014300080938B01DF91CF911F910F91FF90EF90DF
:10144000DF90CF90BF900895EF92FF921F93CF93BC
:10145000DF93EC018EE8E82E81E0F82E10E08C811D
:1014600097014091020260910102810F0E94A30541
:10147000165D83E0E80EF11C1C3F89F70E94E60729
:101480009A818C8190FF02C08F5F01C081508C8354
:10149000DF91CF911F91FF90EF9008959091FF0100
:1014A00090FF0CC0EEE8F1E08183608342833396C5
:1014B00091E0E03AF907C1F70C94E60708950F931D
:1014C0001F93CF93DF9300D01F92CDB7DEB78C016F
:1014D00080918D0181110AC09E012F5F3F4F4FEF18
:1014E0006FEF0E94A3058A8180938D01F8018481AA
:1014F000813051F028F0823061F440918D010AC0B2
:1015000080918D0140E007C060918D0140E080E056
:1015100003C040E080E060E00E944E0AF801848150
:1015200090E0019663E070E00E94932984830F901D
:101530000F900F90DF91CF911F910F910895CF934E
:10154000DF9300D01F92CDB7DEB79091FF0190FFDF
:101550000AC09E012F5F3F4F0E94A3054B81698106
:101560008A810E944E0A0F900F900F90DF91CF91C9
:101570000895CF93DF93EC01EFEFF1E043816281B7
:101580008C810E949F0A8C818F5F8C83DF91CF9129
:101590000895CF93DF93EC016C8170E080E090E0E0
:1015A0000E94662720E030E04FE753E40E9489263E
:1015B0002BED3FE049E450E40E948F280E94FC2874
:1015C0000E9403272BE43AE34EE25FE30E941C26CD
:1015D00020EF3BEF48ED52E40E948F280E94352710
:1015E000462FEFEFF1E0628181810E949F0A8C819A
:1015F0008F5F8C83DF91CF9108958091FF01282F19
:10160000269530E02115310519F48170826005C0FE
:101610002B32310524F0817084658093FF01089599
:10162000CF92DF92EF92FF926B017C010E94FD0A44
:10163000B701A60188E090E0FF90EF90DF90CF9097
:101640000C9497255F926F927F928F929F92AF92A8
:10165000BF92CF92DF92EF92FF920F931F93CF939F
:10166000DF9300D01F92CDB7DEB7182F762E042F50
:10167000622E9091FF0190FF6DC0E92FE695AE2F8D
:10168000B0E0A35EBE4F8C918093E6019E7F9230C6
:1016900061F49E012F5F3F4F812F0E94A3054B8174
:1016A00069818A810E944E0A43C0823019F40091F8
:1016B00002023EC0863019F41091000239C0893010
:1016C000D9F38931A9F5E9518E2F8170582EE6950D
:1016D000F0E0EE59FD4FA590B4908EE8C82E81E061
:1016E000D82EE12CF12CBB2496E0892E912CAE9CB7
:1016F000C001AF9C900DBE9C900D1124B4010E94BE
:101700007F29812F511002C0860F01C0861B9601D0
:10171000402F672D0E94A3058FEFE81AF80A83E097
:10172000C80ED11C86E0E816F10409F70E94E6070E
:10173000109300027092010200930202662051F0A1
:101740006091FF017091000280910102909102026C
:101750000E94100B0F900F900F90DF91CF911F916F
:101760000F91FF90EF90DF90CF90BF90AF909F9040
:101770008F907F906F905F900895EFEFF1E043813D
:1017800028E0421B08F440E021E0628181810C9452
:10179000220BEFEFF1E0438128E0420F08F44FEF16
:1017A00021E0628181810C94220BEFEFF1E06281F4
:1017B00028E0621B08F460E021E0438181810C9401
:1017C000220BEFEFF1E0628128E0620F08F46FEF87
:1017D00021E0438181810C94220BEFEFF1E08181C4
:1017E00021E04381628188500C94220BEFEFF1E0FD
:1017F000818121E043816281885F0C94220B80917A
:101800000302882319F08150809303026091FF0145
:101810007091000280910102909102020C94100BD1
:1018200080910302833018F48F5F809303026091EC
:10183000FF017091000280910102909102020C94CC
:10184000100B9091FF0190FF36C09170811102C082
:10185000926006C08B3210F0946502C0880F982BFE
:101860009093FF01662351F06091FF017091000297
:1018700080910102909102020E94100B6091FF0181
:10188000669570E04BE050E084E091E00E94BC2956
:10189000892B19F01092E70102C00E94D00781E065
:1018A0008093E30120E04091020260910102809167
:1018B00000020C94220B08958091FF0186958150BF
:1018C00009F48AE261E00C94210C8091FF01869575
:1018D0008F5F8B3208F081E061E00C94210C9091D5
:1018E000FF0190FF04C09695981740F003C0811146
:1018F00005C090E0961710F40C94650C61E00C9410
:10190000210CEFEFF1E083E0808311828FEF82837F
:101910008383148260817181828193810C94100B86
:10192000F894E82FE295EF70F0E031A1282F2F70A6
:1019300081E090E001C0880F2A95EAF7982F9095F2
:10194000932391A392A1892B82A3789408958F92D7
:101950009F92AF92BF92CF92DF92EF92FF920F933E
:101960001F93CF93DF93C8E4D1E006EC11E080E54C
:10197000C82E81E0D82E5801912CEE24E394F12C4E
:10198000BE018881F894E82FE295EF70F0E021A184
:101990008F70A70102C0440F551F8A95E2F7CA0154
:1019A000922F982B91A392A18095892382A378945A
:1019B00050EA5A95F1F7E0E5F1E020E030E0812CC3
:1019C0004191842F82958F7090E0DC0190968C91EC
:1019D00090E04F7002C0959587954A95E2F780FD9B
:1019E00007C08E2D022E01C0880F0A94EAF701C0AD
:1019F00080E0882A2F5F3F4F2730310509F7219675
:101A0000FB0180810E94900CD5018C91881619F001
:101A10008C9281E001C080E0982ABFEFAB1ABB0A2C
:101A2000CC16DD0609F0ACCF992049F081E0809317
:101A30008A010E94C022909389018093880180913D
:101A40008A018823A9F080918801909189010E94E0
:101A5000B122069768F0E8EDF1E08EEC91E0D80154
:101A60002D918D0121938A179B07C9F710928A0146
:101A7000892DDF91CF911F910F91FF90EF90DF9013
:101A8000CF90BF90AF909F908F900895CF93DF93AA
:101A900028E3829FC0011124FC0147E0749FE00D00
:101AA000F11D1124E60FF11DEE0FFF1FE959FD4F47
:101AB000C591D491CE01C238D10569F1B0F4C133DA
:101AC000D10509F475C048F4C932D10509F469C0DB
:101AD000CA32D10509F473C085C0C533D10509F4F4
:101AE00059C0C933D105B9F07DC0C33ED10571F1EC
:101AF00038F4C03ED105B1F0C23ED10511F172C03B
:101B0000C63ED105B9F1C73ED105C9F1C43ED105E4
:101B100009F068C024C02091D20120FD5DC021FDE4
:101B20005BC060C02091D20120FD50C02091D30144
:101B300020FF51C18091D20184FD4BC183EE90E022
:101B40004AC12091D20122FF46C1F4CF8091D20137
:101B500082FD3FC08091D30180FD3EC0EBCF20913C
:101B6000D30121FF38C18091D20184FD32C187EEBB
:101B700090E031C12091D20123FF2DC1F4CF80919B
:101B8000D20183FD2CC08091D30181FFECCF84EE84
:101B900090E021C12091D20125FF1DC189E290E092
:101BA0001AC12091D20125FF16C185E390E013C12F
:101BB0002091D20126FF0FC18AE290E00CC1209152
:101BC000D20126FF08C181E390E005C189E390E0DE
:101BD00002C182EE90E0FFC080EE90E0FCC086EE95
:101BE00090E0F9C0C11551E5D50708F06CC0C115EA
:101BF00020E5D207F0F0CE01F4E096958795FA95AE
:101C0000E1F7282F23703C2F337081E090E002C071
:101C1000880F991F3A95E2F79C68922B2C2F2F7012
:101C20002695269550E2259F90011124822B932B17
:101C3000D2C0C83ED10570F5C03ED10508F0CBC07A
:101C4000C83AD105B8F4C53AD10550F02C2F255A21
:101C5000C22FD0E0C95ADE4F888190E09064BBC0AB
:101C6000C130D10509F4B7C008F4B3C0249708F413
:101C7000B0C0B1C0CF3BD10508F0ABC02C2F285A63
:101C8000C22FD0E0CC0FDD1FC65ADE4F888199816C
:101C90009464A1C0C11540E2D40760F4C11551E0BD
:101CA000D50708F098C0C03FD10508F492C0CE0116
:101CB000906591C0C11580E4D80708F48AC0CE01B0
:101CC0009F70906A88C0C11525E5D20708F040C012
:101CD000C11544E5D40728F09C2F8827846F906AAB
:101CE0007AC0C11553E5D507A8F09E0123703327AC
:101CF00081E090E002C0880F991F2A95E2F72C2F0F
:101D00002695269550E2259F90011124822B932B36
:101D10009A6861C0C11582E5D80728F49C2F8827EE
:101D2000816F906A58C09E012370332781E090E054
:101D300002C0880F991F2A95E2F72C2F2695269529
:101D400040E2249F90011124822B932B9C6843C076
:101D5000C11529E5D207B0F4C11548E5D40728F02C
:101D60009C2F8827806F906A36C0C11556E5D5072D
:101D700080F58C2F0E9439068F7190E0982F88276C
:101D8000906229C0C1158AE5D80790F48C2F8F7016
:101D90000E9439069E0194E0369527959A95E1F7C1
:101DA0002F7030E0322F22273069A901482B0FC055
:101DB000CE0190568115904260F48D2F8F710E9454
:101DC00039069E01332730628F71A901582BCA0151
:101DD00002C080E090E0DF91CF9108958F929F92B2
:101DE000AF92BF92CF92DF92EF92FF920F931F9329
:101DF000CF93DF93CDB7DEB72A970FB6F894DEBF47
:101E00000FBECDBFFC010081D18083819481892BDD
:101E100039F01FEFD11206C091E00F3F19F403C053
:101E200091E001C090E090FD53C57F0185E0DE01A7
:101E3000169601900D928A95E1F7F70122818E8125
:101E40009F81222349F00E94F423182F682F8E814E
:101E50009F810E946D2403C00E944124182F28E313
:101E6000129FF001112437E0D39EE00DF11D1124E3
:101E7000E00FF11DEE0FFF1FE959FD4F0591149181
:101E8000043F8CE5180759F190F4093DECE51E0775
:101E9000E9F00A3DFCE51F07A1F1083D2CE512071A
:101EA000B1F506E221EE41EE68ED7CE514C0063F97
:101EB0003CE5130701F1C8F0073F9CE5190739F528
:101EC00007E225EE46EE67EF7CE505C007E225EE6A
:101ED00045EE69ED7CE5C7010E94500718C206E295
:101EE00021EE40EE64EF7CE5F6CF07E225EE44EE0E
:101EF00065EF7CE5F0CF06E221EE42EE66EF7CE591
:101F0000EACF08E221E045EE6AED7CE5E4CFF70197
:101F10009281992309F43FC11092C4010230FCE57B
:101F20001F0708F422C106312CE5120738F098018A
:101F30002B5F3C452930310508F017C10E9446232C
:101F40009093D3018093D20100313CE5130709F44B
:101F5000C3C008F041C008309CE5190709F49AC0D5
:101F6000F0F40430FCE51F0709F487C068F4023080
:101F70003CE5130709F477C003301C4509F0E5C0C0
:101F80008091D201826076C006309CE5190709F481
:101F90006EC008F07BC08091D20188606BC00C30AD
:101FA000FCE51F0709F485C068F40A303CE5130717
:101FB00009F474C008F079C00E940D1B8091D20111
:101FC000806858C00E309CE5190709F476C008F007
:101FD0007FC08091D2018BC00C3FFCE51F0709F444
:101FE0004FC018F503313CE5130709F47DC078F4C0
:101FF00001319CE5190709F473C002311C4509F051
:10200000A4C00E940D1B8091D2018F7733C005318F
:10201000FCE51F0709F472C008F486C00B3F1C459D
:1020200009F093C08091D3013EC001158DE51807DA
:1020300009F45FC058F40E3FECE51E0709F444C0F4
:1020400008F43FC08091D30182602DC002302DE59D
:10205000120709F475C008F45DC003301D4509F08E
:1020600074C060E06EC08091D201816003C0809135
:10207000D20180618093D20168C08091D20111C0E9
:102080008091D30182608093D3015FC08091D2019F
:102090008062F0CF8091D2018064ECCF8091D20138
:1020A00088608460E7CF8160EECF8091D2018E7F1F
:1020B000E1CF8091D2018D7FDDCF8091D201877FEA
:1020C000D9CF8091D30118C08091D3018D7FDBCF10
:1020D0008091D2018F7ECECF8091D2018F7DCACFE9
:1020E0008091D2018F7BC6CF8091D201877F8B7F79
:1020F000C1CF8091D3018D7F8E7FC5CF8091D201DA
:1021000082FB222720F991E0922790FB82F990FB35
:1021100083F9B0CF8091D301982F909591708E7FE5
:10212000892B90FB81F9AFCF0E940D1B8091D201CA
:1021300087FB222720F991E0922790FB87F99ACF1D
:1021400061E08EE090E00E9485256091D2011091BF
:10215000D30184E090E00E948525612F81E290E028
:102160000E9485250E940D1BD2C0809182020631FB
:102170002CE5120709F58A7A91E009F490E0909332
:10218000C501882311F065E301C069E28CE192E0AA
:102190000E942C230EC006311C4509F0D7C0809147
:1021A000C501882309F492C365E38CE192E00E94A3
:1021B0001F230E94C723ABC08272F801E35CFC4579
:1021C000E431F10508F07CC0EA5AFF4F0C94A729CE
:1021D0008091FF0180FF1BC08E7F8093FF01609183
:1021E000FF017091000280910102909102020E9411
:1021F000100B1092E7019FEFE0E7F2E09150E04012
:10220000F040E1F700C000000E94E60780C0816056
:102210008093FF0161E0869550C04CE55CE065E687
:102220007CE02CC045E65CE06CE57CE027C04DEE30
:102230005BE066EF7BE022C046EF5BE06DEE7BE0AB
:102240001DC045ED5BE061EE7BE018C041EE5BE058
:1022500065ED7BE013C04DEB5BE069EC7BE00EC00D
:1022600049EC5BE06DEB7BE009C04FEF5BE060E1C8
:102270007CE004C040E15CE06FEF7BE00E94CA07B5
:1022800046C061E081E019C065E082E011C068E00D
:1022900086E00EC06EE089E00BC064E18FE008C00C
:1022A00067E185E105C061E088E107C062E289E19C
:1022B0000E946F0C2CC061E083E20E94210C27C0B9
:1022C00001152CE5120739F00F3D1C4509F03EC001
:1022D0000E9457231CC00E940D1B8FEF94E3ECE07B
:1022E00081509040E040E1F700C0000087E797E7A9
:1022F00090930108809300089AE088E10FB6F89463
:10230000A895809360000FBE90936000FFCF8091EE
:102310007F02877009F4DCC2F7018281882309F407
:10232000D7C282E02A960FB6F894DEBF0FBECDBFAB
:10233000DF91CF911F910F91FF90EF90DF90CF90A1
:10234000BF90AF909F908F900C94C724F7010081AD
:102350001181992349F0C8010E94F423D82E682FD7
:10236000C8010E946D2404C0C8010E944124D82ED7
:10237000B8018D2D0E94460D8C01982EF701A58085
:10238000A2942FE0A222D280D110109281028091DB
:102390007F02877099F0DD2089F0812F807F803463
:1023A00021F080E2800F883048F082E00E94C7244C
:1023B00080917F028770CC24C3948111C12CB12EEF
:1023C000B2949FE0B9228B2D90E08C30910508F0FB
:1023D00040C2FC01E659FF4F0C94A729812F807F52
:1023E0001F70882311F01295107FDD20B9F01123A2
:1023F00009F41AC280E2800F883010F0911006C0F4
:1024000080918202182B1093820205C08091810274
:10241000182B109381020E94C72306C2802F0E94AE
:102420002D1B112309F415C2005E1095083010F021
:10243000911006C08091820218231093820205C079
:10244000809181021823109381020E94C72301C248
:10245000812F807F1F70803211F01295107F99209C
:1024600021F0F1E09F16E1F02AC0DD2081F080919B
:102470008302AA2051F001E0A01207C0182B181700
:1024800009F4E7C110938302E4C1812B10C0AA2094
:1024900021F021E0A21609F4DCC10E94C12327C06B
:1024A000DD2041F035E03A1508F4D3C1812F0E94B8
:1024B000231BCFC184E08A1508F4CBC118C0DD20EE
:1024C00049F0AA2099F3F701858180FFADC18F7093
:1024D0008583ECCFAA2059F0093309F0B7C1FFEF8B
:1024E00017EE23E0F15010402040E1F7ADC1812FFD
:1024F0000E94181BAEC1812F86958695837019F0B6
:10250000813059F0A6C1DD2019F0C801937002C0D6
:1025100080E090E00E942E07A2C1DD2019F0C801E2
:10252000937002C080E090E00E94180798C1802F4D
:10253000DD2019F00E94232202C00E945C210E942B
:10254000CC228DC1812F837009F069C0D11085C163
:10255000902F929596959770990F990F802F8F7065
:10256000882E912CA12CB12C092E04C0880C991C0A
:10257000AA1CBB1C0A94D2F704FF12C04FE050E023
:1025800060E070E004C0440F551F661F771F9A95E6
:10259000D2F7DB01CA0180959095A095B09503C054
:1025A00080E090E0DC0116951695412F4370423093
:1025B00019F1C8F4009184021091850220918602DD
:1025C00030918702413059F088299929AA29BB29DD
:1025D000BC01CD0160237123822393230AC0802A8A
:1025E000912AA22AB32ABC01CD01682979298A2916
:1025F0009B290E94012531C188299929AA29BB2933
:102600000091840210918502209186023091870208
:10261000BC01CD016027712782279327EACFDD20F7
:1026200019F0812F817001C08695882309F415C1A6
:10263000902F929596959770990F990F802F8F7084
:10264000882E912CA12CB12C092E04C0880C991C29
:10265000AA1CBB1C0A94D2F704FF12C04FE050E042
:1026600060E070E004C0440F551F661F771F9A9505
:10267000D2F7DB01CA0180959095A095B09503C073
:1026800080E090E0DC0116951695412F43704230B2
:10269000D9F068F50091CE011091CF012091D001C1
:1026A0003091D101413059F088299929AA29BB29B3
:1026B000BC01CD0160237123822393231EC0802A95
:1026C000912AA22AB32A13C088299929AA29BB29A9
:1026D0000091CE011091CF012091D0013091D10114
:1026E000BC01CD01602771278227932706C0BC015A
:1026F000CD01682979298A299B290E949824ADC097
:102700001F70DD2039F0812F0E94E024802F0E946D
:10271000231BA3C0802F0E94181B812F0E94A2247C
:102720009CC0802F32EF931609F440C0391538F061
:1027300090EF991661F0E1EF9E1699F170C0F3EFFA
:102740009F16D9F124EF921609F44EC068C0DD201F
:1027500019F134E03A1508F47CC01F7181E090E073
:10276000A0E0B0E0AC01BD0104C0440F551F661FDE
:10277000771F1A95D2F78091CE019091CF01A09149
:10278000D001B091D1018A019B01082719272A277E
:102790003B27C901B80125C025E02A1508F459C016
:1027A000DCCFDD2029F0812F8F712CC0DD20D9F303
:1027B000812F8F710E94A2244CC0DD2079F01F71FF
:1027C00081E090E0A0E0B0E0BC01CD0104C0660F64
:1027D000771F881F991F1A95D2F703C060E070E039
:1027E000CB010E94982435C0DD2079F01F71812F24
:1027F0000E94E02438E0139FC0011124836080937D
:102800007F02812F0E94E02424C081E00E94C7241F
:1028100081E08A15F0F482E00E94C7241AC0DD200E
:1028200039F0AA2009F4BFCF802F0E94941B11C059
:10283000AA2009F4BDCF893349F49FEFE7EEF3E016
:102840009150E040F040E1F700C00000802F0E946E
:102850002D1B88EF8B0D843010F40E944407CC2090
:10286000A9F080917F0280FD11C0F7011282859549
:10287000859585950E94E024C7010E94EE0E809107
:102880007F028595859585950E94A22485E0F701B4
:10289000DE01119601900D928A95E1F789819A8166
:1028A0000E9441249A8108E3809FF001112417E0DF
:1028B000919FE00DF11D11248981E80FF11DEE0FAC
:1028C000FF1FE959FD4F8591949102C069E26DCCDB
:1028D0002A960FB6F894DEBF0FBECDBFDF91CF9121
:1028E0001F910F91FF90EF90DF90CF90BF90AF902E
:1028F0009F908F900895BC0184E00C942921BC0125
:1029000083E00C9429212091E4003091E50095E6C4
:102910004091EC00842F817040FF23C08091E8003B
:1029200080FD1DC080911202882399F0853099F0B6
:102930008091EB0085FD11C04091E4005091E500CD
:102940002417350729F3915011F09A01E1CF84E063
:10295000089582E0089583E0089581E0089580E07D
:1029600008954091E80042FFDDCF08958091140260
:1029700087FF11C08091E80082FD05C0809112029E
:102980008111F8CF11C08091E8008B770BC0809146
:102990001202882349F08091E80080FFF8CF8091EF
:1029A000E8008E778093E8000895982F973068F5B7
:1029B0009093E900981739F07091EC002091ED00A8
:1029C0005091F00003C0242F762F50E021FD02C06B
:1029D0009F5FECCF3091EB003E7F3093EB00309166
:1029E000ED003D7F3093ED003091EB00316030938E
:1029F000EB007093EC002093ED005093F0002091D9
:102A0000EE0027FDE5CF80E008958F708093E90008
:102A100081E0089520911A0230911B022617370792
:102A200048F06115710539F42091E8002E77209364
:102A3000E80001C0B901FC0120E06115710579F1E0
:102A4000809112028823F1F18530F1F18091E80044
:102A500083FD3CC08091E80082FD2EC08091E8009B
:102A600080FFEBCF2091F3008091F20090E0922B59
:102A70006115710551F08830910538F4219120934A
:102A8000F100615071090196F3CF21E0089709F038
:102A900020E08091E8008E778093E800CECF21116E
:102AA000CFCF0AC080911202882361F0853061F097
:102AB0008091E80083FD0AC08091E80082FFF2CF98
:102AC00080E0089582E0089583E0089581E008950C
:102AD000CF93DF93CDB7DEB760970FB6F894DEBF24
:102AE0000FBECDBF84B7877F84BF0FB6F894A8957B
:102AF00080916000886180936000109260000FBE3A
:102B000090E080E80FB6F8948093610090936100A4
:102B10000FBE85B7806885BF85B7806885BF0E9476
:102B2000711F0E94901F8091E20084608093E200F8
:102B30007894809112028823A1F01091E9001F700F
:102B40009091EC00892F817090FD80E8182B1092F5
:102B5000E9008091E80083FD0E94641C1F701093BF
:102B6000E90082E084BD93E095BD9AEF97BD809324
:102B70006E0008E411E080E5E82E81E0F82EF8010F
:102B800081918F010E94900CE016F106C1F700E5DB
:102B900011E0B7E5EB2EB1E0FB2EF80181918F013A
:102BA0000E94900CE016F106C1F7E6ECF1E0A8ED0A
:102BB000B1E011921D9221E0EE3CF207D1F780E0E6
:102BC00090E00E947F258C3E9E4F11F00E9457237B
:102BD00080E090E00E947F258C3E9E4F11F00E9485
:102BE000572382E090E00E9471258093F5010E94B6
:102BF00046239093D3018093D20183E090E00E941A
:102C00007125682F70E080E090E00E94012580919E
:102C1000D401811136C080E090E00E947F258C3E77
:102C20009E4F21F00E9457230E94810C88E090E083
:102C30000E9479256093FF01709300028093010246
:102C4000909302026E7F71F40E94810C88E090E004
:102C50000E9479256093FF01709300028093010226
:102C6000909302020E94FD0A1092E7018091FF01F9
:102C700080FF04C060E086950E94210C81E0809373
:102C8000D40182E191E09093D6018093D501AAE628
:102C9000EA2EA9E0FA2E80911202853009F057C081
:102CA00080911202843009F441C01092D70120E4CF
:102CB00088E190E00FB6F894A895809360000FBE6D
:102CC000209360001092E70180910502811117C0E6
:102CD00081E0809305028091FF01982F917090937D
:102CE00004028E7F8093FF01FFEF20E732E0F15076
:102CF00020403040E1F700C000000E94E60783B7A3
:102D0000817F846083BF83B7816083BF7894889517
:102D100083B78E7F83BF0FB6F894A895809160002B
:102D2000886180936000109260000FBE8091110254
:102D3000882309F4B0CF0E94A70CE8EDF1E081915F
:102D40008111EAC141E0E03EF407C9F7A4CF0E9437
:102D5000A70CE6EFF1E0A8EDB1E000E010E0302FC5
:102D60002D919191922721F180E0DD24D394492F78
:102D70004D21D1F08F8338872D2181E009F480E047
:102D800089870E94C0228160782F9B878A874F8124
:102D9000588569858B850E947C06F801EA50FE4FB4
:102DA0008081D826D08219C08F5FDD0C8730F9F67C
:102DB0000F5F1F4F0830110591F68FEF8C878D87BD
:102DC0001E860E94C0228160782F988B8F874C8549
:102DD0005D856E8588890E947C068091E701882345
:102DE00009F4ABC08091E601E091FF01E695E81B94
:102DF000E093E201823059F4F0E0E858F64FE491B4
:102E00000E2F10E0F9ECCF2EFAE0DF2E6AC08630EC
:102E100059F4F0E0EB58F64FE4910E2F10E0E9EB97
:102E2000CE2EEAE0DE2E5DC0893061F4E695F0E05A
:102E3000EE58F64FE4910E2F10E074E2C72E7AE0C0
:102E4000D72E4FC08F3061F4E695F0E0E159F64F90
:102E5000E4910E2F10E067EBC62E69E0D62E41C03C
:102E6000853159F4F0E0E459F64FE4910E2F10E06B
:102E700059E6C52E59E0D52E34C08831F1F08332A1
:102E800041F4F701059114914FE5C42E4AE0D42E88
:102E900028C08432C9F08532F1F48E2F63E00E949D
:102EA0006529E92FF0E0E959F64FE4910E2F10E083
:102EB0003CE1C32E38E0D32E14C008E210E020EE2F
:102EC000C22E28E0D22E0DC004EF11E096EAC92EE2
:102ED00098E0D92E06C000ED17E082EAC82E85E002
:102EE000D82E8091E301882389F01092E3010E949B
:102EF000C022980120953095820F931F9093E10195
:102F00008093E0011092E5011092E4018091E001CC
:102F10009091E1010E94B1228017910770F0E09139
:102F2000E001F091E1010E0F1F1F1093E1010093EA
:102F3000E00180EE91E0F601099586E0EEEEF1E029
:102F4000DE01119601900D928A95E1F7C090F00193
:102F5000D090F1010091F2011091F3011092F00173
:102F60001092F1011092F2011092F301C11003C00E
:102F7000DD2009F451C08091EC019091ED010E9497
:102F8000B1229C019091EB01992309F4DBC023331A
:102F9000310508F441C09F3F19F09F5F9093EB010A
:102FA000CC2061F00E9403221C1414F09FEF01C09A
:102FB00091E0899F802D11248093F001DD2061F044
:102FC0000E9403221D1414F09FEF01C091E0899F1D
:102FD000802D11248093F1013091F0013323E1F031
:102FE0002091F1012223C1F045EB3403C0011124EB
:102FF000992319F09093F00103C081E08093F001D0
:1030000035EB2303C0011124992319F09093F101AA
:1030100003C081E08093F101011103C0112309F481
:1030200051C08091E9019091EA010E94B1229C0176
:103030009091E801992309F48AC02536310508F4F6
:1030400041C09F3F19F09F5F9093E801002361F01A
:103050000E94E121101614F09FEF01C091E0899FBA
:10306000802D11248093F201112361F00E94E1214F
:10307000111614F09FEF01C091E0899F802D11245B
:103080008093F3013091F2013323E1F02091F301B9
:103090002223C1F045EB3403C0011124992319F018
:1030A0009093F20103C081E08093F20135EB23039A
:1030B000C0011124992319F09093F30103C081E01A
:1030C0008093F3018091F00181110BC08091F10197
:1030D000811107C08091F201811103C08091F30139
:1030E00081110E94CC22CB82DC820D831E8386E07C
:1030F000FE013196AEEEB1E001900D928A95E1F7B6
:103100000E9444079091F401891709F4C4CD0E94EC
:1031100044078093F401BFCD80E189BD82E189BD80
:1031200009B400FEFDCF8091D8008F7D8093D80038
:103130008091E00082608093E0008091E00081FD5A
:10314000FCCFA9CD2D32314008F027CF65CF2D32ED
:10315000314008F078CFB6CF0F931F93CF93DF9312
:103160008091290282958F7009F05DC080912602BE
:10317000882309F458C080915B0210912A02609163
:10318000240270912502C0912702D091280291E07B
:103190006F3F09F090E0292F06E0811709F443C042
:1031A000209721F07F3F21F030E003C031E001C0E3
:1031B000322F90E030FD34C0089FF001099FF00DE0
:1031C0001124DF01A55DBD4F11963C911197371376
:1031D00027C03C91361324C012963C9112973111AE
:1031E0001FC013964D915C9114974C1B5D0B483C8E
:1031F0005105B0F4809129028F708061809329027B
:10320000E05DFD4F80818F708061808384E292E079
:103210000E94EE0EDF91CF911F910F910C940B2520
:1032200001968770BACFDF91CF911F910F910895CA
:103230000E943624292F2F70E92FE295EF704E2F30
:1032400050E0FA013297EE30F105B8F4EA58FF4F3A
:103250000C94A729803F99F018F4883E70F40FC0B1
:10326000843F59F40CC0883E50F0813F31F407C0D0
:10327000822F869586958695089580E0089581E051
:1032800008959F92AF92BF92CF92DF92EF92FF92FA
:103290000F931F93CF93DF93CDB7DEB761970FB630
:1032A000F894DEBF0FBECDBF8C0185E0F801DE01D2
:1032B0001D9601900D928A95E1F7F8019081818128
:1032C000E2803091240260912502409127025091C2
:1032D00028024115510531F06F3F31F421E03F3FA5
:1032E00019F403C021E001C020E0F22FF1709F2EFD
:1032F00020FD23C1F801C380D48024E2A22E22E065
:10330000B22EF0902602F601E41BF50BFF2009F423
:10331000CEC020912902E83CF10508F099C0422F67
:10332000407F09F051C0681311C039130FC0FE2C43
:10333000E1100CC02F70206120932902C5010E946A
:10334000EE0E80912902F801858337C1CD2831F036
:103350008F3F31F421E09F3F19F403C021E001C009
:1033600020E020FD03C021E02E2502C020E030E057
:10337000F22FF170FF2E20FF1DC020915B024091C3
:103380002A0256E0241709F4F6C030E0529FF001FB
:10339000539FF00D1124E55DFD4F6181861306C03A
:1033A0006081961303C06281E61204C02F5F3F4F15
:1033B0002770E8CFFE2CEE2009F4FFC0809129028F
:1033C00081608093290250C0681307C0391305C07B
:1033D000E11003C0F80125838DC09D878E878D8500
:1033E0009E850E941819882369F1EE2059F12091D9
:1033F0002902822F82958F7090E0029774F080915D
:1034000024029091250298878F831986DB86CA86CD
:103410002C87CE0107960E94EE0E86E0F801A4E20A
:10342000B2E001900D928A95E1F70E94AC180DC0B0
:103430006817E1F09D878E878D859E850E941819FB
:1034400081111EC0C8010E94EE0EFF24F394B5C086
:10345000422F407F69F784E292E00E94EE0E86E000
:10346000F50111928A95E9F7F12CA7C03913E2CF43
:10347000E110E0CFF8012583C8010E94EE0E57C08D
:10348000EE2001F320912902822F82958F7090E027
:1034900002971CF280912402909125029A838983DD
:1034A0001B82DD82CC822E83CE010196B4CFE83C14
:1034B000F105E8F5FE2CEE2029F2681327C0391338
:1034C00025C02091290220FD18C0822F82958F707F
:1034D000482F50E04115510581F0F80125834F3008
:1034E000510541F08F5F982F9295907F822F8F70BA
:1034F000892B8583C8010E94EE0E86E0F801A4E2C4
:10350000B2E001900D928A95E1F757C09D878E87B2
:103510008D859E850E94181981117FCF8091290287
:10352000816080932902C8010E94EE0E46C086E0A9
:10353000F50111928A95E9F740C0EE2009F482CF97
:103540009D878E878D859E850E941819F82E882369
:1035500009F478CF86E0F801A4E2B2E001900D9280
:103560008A95E1F780912402909125020E943624E9
:103570000E94AC1822C09D878E878D859E850E94F3
:103580003624292F22952F70223028F49F7039F08D
:10359000811105C00BC0243028F49F7049F4805E6F
:1035A000883020F0C8010E94EE0E9F2CF92C05C037
:1035B000F8019581907F99F7F9CF8F2D61960FB61D
:1035C000F894DEBF0FBECDBFDF91CF911F910F9159
:1035D000FF90EF90DF90CF90BF90AF909F900895B5
:1035E00010928102109280020E94C723EEEEF1E059
:1035F00086E0DF011D928A95E9F71092EB011092A7
:10360000E80110928C020E94CC2280E090E00E949F
:103610002E0780E090E00C9418071092820286E05A
:10362000EEE1F2E0DF011D928A95E9F70C94F01AC1
:10363000882341F0809590918202892380938202B1
:103640000C94C7230895882339F090918202892B26
:10365000809382020C94C7230895882309F463C0E1
:10366000823869F40E94440781FF5DC069E38CE100
:1036700092E00E942C230E94C72369E30EC0833886
:1036800091F40E94440780FF4EC063E58CE192E014
:103690000E942C230E94C72363E58CE192E00E94E4
:1036A0001F230C94C723843869F40E94440782FFC7
:1036B0003AC067E48CE192E00E942C230E94C72369
:1036C00067E4EBCF9CEF980F913A10F4682FE5CFA9
:1036D00090E2980F983088F4877021E030E0A901DB
:1036E00002C0440F551F8A95E2F7CA018095909158
:1036F0008202892380938202D4CF9BE5980F933076
:1037000020F480E090E00C942E0798E5980F973114
:1037100020F480E090E00C941807803F20F00E9495
:103720005C210C94CC220895CF93882309F49EC089
:10373000C82F8238B1F40E94440781FD97C069E325
:103740008CE192E00E942C230E94C7232FEF81EE90
:1037500094E0215080409040E1F700C0000069E310
:1037600017C08338E1F40E94440780FD7FC063E501
:103770008CE192E00E942C230E94C7232FEF81EE60
:1037800094E0215080409040E1F700C0000063E5E4
:103790008CE192E00E941F23CF910C94C7238438C0
:1037A000B1F40E94440782FD61C067E48CE192E0BD
:1037B0000E942C230E94C7232FEF81EE94E021501A
:1037C00080409040E1F700C0000067E4E1CF8CEF5B
:1037D0008C0F813A80F4EEE1F2E084E292E02191F4
:1037E000C217E1F18E179F07D1F76C2F8CE192E0A1
:1037F0000E942C23D1CF80E28C0F883068F4C770F0
:1038000081E090E001C0880FCA95EAF790918202AA
:10381000892B80938202C0CFEBE5EC0FE33040F4BC
:10382000F0E0E95AFE4F808190E0CF910C942E0792
:10383000E8E5EC0FE73150F4F0E0EE0FFF1FE65A39
:10384000FE4F80819181CF910C941807C03F70F09A
:103850008C2F0E942322CF910C94CC226C2F8CE1D0
:1038600092E00E941F230E94C723BFCFCF910895EB
:10387000EF92FF920F931F93CF93DF937C018B0105
:103880000E948314811119C0E70101151105A1F0EF
:103890008091E80085FD0AC08091E8008E778093D2
:1038A000E8000E948314882381F307C089918093E4
:1038B000F10001501109E9CF80E0DF91CF911F9114
:1038C0000F91FF90EF9008951F93CF93DF93CDB7A3
:1038D000DEB7AA970FB6F894DEBF0FBECDBFE4E106
:1038E000F2E08091F100819322E0EC31F207C9F718
:1038F00080911502833009F460C030F4813071F09A
:10390000823009F49AC0B1C08A3009F486C08B3085
:1039100009F46BC0893009F0A8C020C0809114025E
:10392000813A09F0A2C08091E800877F8093E80087
:103930008091180290911902892B21F468E088E0A7
:1039400092E003C060E080E090E070E00E940A1521
:103950008091E8008B778093E80087C08091140203
:10396000813209F082C08091180290911902029769
:1039700008F07BC08091E800877F8093E800809109
:10398000E80082FD05C0809112028111F8CF6DC060
:103990002091F3008091F20090E0922B029729F49D
:1039A0008091F1008B7F813021F48091F100809330
:1039B00007028091E8008B7754C080911402813A0D
:1039C00009F053C08091180290911902892B09F0D7
:1039D0004CC08091E800877F8093E8008091E800E8
:1039E00080FFFCCF80911C0137C08091140281328E
:1039F000E1F58091180290911902892BB1F580911F
:103A0000E800877F8093E8000E94B6148091160238
:103A100080931C010E940D1B28C0809114028132EA
:103A200021F58091E800877F8093E8000E94B6141A
:103A3000809117028093060218C080911402813A87
:103A4000A1F48091E800877F8093E8008091E800EE
:103A500080FFFCCF809106028093F1008091E80006
:103A60008E778093E8000E94B6148091E80083FF6F
:103A7000CCC18091140290911502492F50E04A3038
:103A8000510508F0C2C1FA01EC57FF4F0C94A72969
:103A9000803821F0823809F0B8C108C08091100246
:103AA00090911102992389F082600FC080911802D1
:103AB0008F70873008F0A9C18093E9008091EB00F6
:103AC00085FB882780F91092E9009091E800977FA4
:103AD0009093E8008093F1001092F10065C1282FC7
:103AE0002D7F09F092C1882319F0823061F08DC1D9
:103AF00080911602813009F088C1933009F080E08E
:103B0000809311022EC08091160281112AC08091EB
:103B100018028F702FEF280F263008F076C180939F
:103B2000E9002091EB0020FF1CC0933021F480912C
:103B3000EB00806214C09091EB0090619093EB00D9
:103B400021E030E0A90102C0440F551F8A95E2F739
:103B50004093EA001092EA008091EB008860809325
:103B6000EB001092E9008091E800877F20C181116D
:103B70004CC1109116021F778091E3008078812B51
:103B80008093E3008091E800877F8093E8000E94A3
:103B9000B6148091E80080FFFCCF8091E30080683C
:103BA0008093E300111102C082E001C083E08093A2
:103BB00012022BC18058823008F027C18091160272
:103BC000909117028C3D53E0950779F583E08A8345
:103BD0008AE289834FB7F894DE01139620E03EE035
:103BE00051E2E32FF0E050935700E49120FF03C02F
:103BF000E295EF703F5FEF708E2F90E0EA3010F0AB
:103C0000C79601C0C0968D939D932F5F243149F7CD
:103C10004FBF8091E800877F8093E8006AE270E000
:103C2000CE0101960E940A15AEC040911802509133
:103C30001902292F332723303105A9F068F42130E8
:103C4000310509F4F1C02230310509F0DEC08BE303
:103C500090E0EDE3FAE044C02132310521F1223257
:103C6000310571F1D2C0992781309105A1F058F04A
:103C7000029709F0CAC0EAE8FAE0E4918E2F90E0DA
:103C8000EAE8FAE02AC0EEEAFAE0E4918E2F90E04A
:103C9000EEEAFAE022C0E6E9FAE0E4918E2F90E045
:103CA000E6E9FAE01AC04115510509F4C2C04130F5
:103CB000510509F0AAC089E090E0E8E6FAE010C0FA
:103CC0004115510509F4BAC04130510509F09DC0B4
:103CD00081E890E0ECE7F9E003C0009709F495C0B3
:103CE0002091E800277F2093E80020911A0230916C
:103CF0001B028217930708F49C0140E0211531054F
:103D000089F180911202882309F43DC08530D9F1F0
:103D10008091E80083FD37C08091E80082FD2FC0CC
:103D20008091E80080FFEACF4091F3008091F2009B
:103D300090E0942B2115310559F08830910540F41D
:103D400044914093F1003196215031090196F2CF10
:103D500041E0089709F040E08091E8008E77809379
:103D6000E800CCCF4111CDCF0AC080911202882348
:103D700051F0853041F08091E80083FD04C08091CE
:103D8000E80082FFF2CF8091E8008B778093E80013
:103D90003CC08038D1F58091E800877F8093E800AF
:103DA000809113028093F1008091E8008E778093D8
:103DB000E8000E94B61429C0811127C08091160224
:103DC000909117029927029704F58091E800877F68
:103DD0008093E80010911602109313020E94B6140B
:103DE000111106C08091E30087FD02C081E001C08F
:103DF00084E08093120242E061EC81E00E94D514DD
:103E000042E261EC82E00E94D5148091E80083FFD9
:103E10001AC08091E800877F8093E8008091EB00D2
:103E200080628093EB000FC082E190E0E8E7FAE067
:103E300057CF89E090E0EFE4FAE052CF80E490E0E1
:103E4000EDEFF9E04DCFAA960FB6F894DEBF0FBEA6
:103E5000CDBFDF91CF911F9108951F920F920FB6A2
:103E60000F9211242F933F934F935F936F937F9300
:103E70008F939F93AF93BF93CF93DF93EF93FF9372
:103E8000C091E900CF708091EC00D82FD17080FDF7
:103E9000D0E81092E9008091F000877F8093F000D5
:103EA00078940E94641C1092E9008091F000886070
:103EB0008093F000CD2BCF70C093E900FF91EF917C
:103EC000DF91CF91BF91AF919F918F917F916F9132
:103ED0005F914F913F912F910F900FBE0F901F90C8
:103EE0001895E8EDF0E080818E7F80831092E200EB
:103EF0001092DA001092E100A0EEB0E08C918160A7
:103F00008C9380818F77808319BCA7EDB0E08C9172
:103F10008E7F8C9380818F7E80831092FE01089526
:103F2000CF92DF92EF92FF920F931F93CF93DF9385
:103F3000C8EDD0E088818F7E8883E7EDF0E0808156
:103F40008160808384E082BF81E08093FE0188816C
:103F50008E7F888302EE10E0F80110821092DA0062
:103F600081EEC82ED12CF601108288818F7788834C
:103F700088818068888388818F7D888319BC1092AE
:103F8000120210921302109211021092100290EE7F
:103F9000E92EF12CF70180818B7F808388818160FD
:103FA000888342E060E080E00E94D514F6018081C1
:103FB0008E7F8083F801808181608083808188602A
:103FC0008083F70180818E7F8083888180618883F0
:103FD000DF91CF911F910F91FF90EF90DF90CF90E5
:103FE00008951F920F920FB60F9211242F933F93B3
:103FF0004F935F936F937F938F939F93AF93BF93F1
:10400000EF93FF938091E10082FF09C08091E2006D
:1040100082FF05C08091E1008B7F8093E100809159
:10402000DA0080FF2AC08091D80080FF26C08091EE
:10403000DA008E7F8093DA008091D90080FF18C06B
:1040400080E189BD82E189BD09B400FEFDCF81E038
:10405000809312028091FE0181110FC00E94711F96
:104060000E94901F8091E20084608093E20005C06E
:1040700019BC109212021092FE018091E10080FFA3
:1040800017C08091E20080FF13C08091E2008E7F14
:104090008093E2008091E20080618093E200809151
:1040A000D80080628093D80019BC85E0809312020A
:1040B0008091E10084FF43C08091E20084FF3FC013
:1040C00080E189BD82E189BD09B400FEFDCF809108
:1040D000D8008F7D8093D8008091E1008F7E8093FF
:1040E000E1008091E2008F7E8093E2008091E20007
:1040F00081608093E20080911302882311F084E0B4
:1041000007C08091E30087FD02C081E001C083E029
:10411000809312020E940D1B0E9444071092050218
:1041200080910402882349F08091FF01816080938F
:10413000FF0160E086950E94210C0E94D0078091CB
:10414000E10083FF27C08091E20083FF23C08091BC
:10415000E100877F8093E10082E080931202109259
:1041600013028091E1008E7F8093E1008091E20054
:104170008E7F8093E2008091E20080618093E20074
:1041800042E060E080E00E94D5148091F0008860F9
:104190008093F000FF91EF91BF91AF919F918F912C
:1041A0007F916F915F914F913F912F910F900FBE33
:1041B0000F901F90189580910702089522E0209398
:1041C000E9002FEF3091E800215035FD06C035EDB4
:1041D0003A95F1F700002111F5CF2091E80025FF75
:1041E0000BC040E050E066E070E00E94381C809117
:1041F000E8008E778093E8000895CF93DF9321E065
:104200002093E9002FEF3091E800215035FD06C0E2
:1042100035ED3A95F1F700002111F5CF2091E80036
:1042200025FF14C0EC0140E050E068E070E00E941F
:10423000381C8091E8008E778093E80088E0FE01CA
:10424000A8E0B2E001900D928A95E1F7DF91CF915D
:104250000895CF93DF9300D01F92CDB7DEB7909132
:104260001202943019F589837B836A8382E08093FC
:10427000E9008FEF9091E800815095FD06C095ED23
:104280009A95F1F700008111F5CF8091E80085FF44
:104290000DC040E050E063E070E0CE0101960E9466
:1042A000381C8091E8008E778093E8000F900F9083
:1042B0000F90DF91CF910895803F39F48091F10103
:1042C00087FF6AC01092F10167C0813F29F4809195
:1042D000F1011816BCF360C09091F001823F29F4FF
:1042E00097FF5AC01092F00157C0833F19F4191676
:1042F000CCF352C09091F201893F31F419160CF0C1
:104300004BC01092F20148C08A3F19F497FF44C095
:10431000F8CF8B3F39F48091F30187FF3DC01092B5
:10432000F3013AC08C3F29F48091F3011816BCF3D5
:1043300033C0843F21F48091EF018E7F17C0853F09
:1043400021F48091EF018D7F11C0863F21F480918F
:10435000EF018B7F0BC0873F21F48091EF01877FB6
:1043600005C0883F31F48091EF018F7E8093EF018B
:1043700013C08D3F21F480918C028E7F0BC08E3F45
:1043800021F480918C028D7F05C08F3F29F48091AC
:104390008C028B7F80938C028091F001811106C08A
:1043A0008091F101811102C01092EB018091F20124
:1043B000811106C08091F301811102C01092E801C1
:1043C000089580918C0280FD16C081FD16C082FD8B
:1043D00018C08091E801882391F0883290F428E099
:1043E000829FC001112468E270E00E949329862F09
:1043F000672B29F007C082E0089584E0089581E0EA
:10440000089588E0089580918C0280FD14C081FD9C
:1044100014C082FD16C08091EB01882381F08431A5
:1044200080F422E3829FC001112464E170E00E94C5
:104430009329862F08958CE0089589E1089585E0F9
:10444000089582E30895803F21F40E94032281951C
:1044500004C0813F29F40E9403228093F101089552
:10446000823F21F40E940322819504C0833F29F4F6
:104470000E9403228093F0010895893F19F40E945D
:10448000E12105C08A3F31F40E94E12181958093AA
:10449000F20108958B3F21F40E94E121819504C02F
:1044A0008C3F29F40E94E1218093F3010895843F19
:1044B00021F48091EF01816017C0853F21F4809144
:1044C000EF01826011C0863F21F48091EF0184608A
:1044D0000BC0873F21F48091EF01886005C0883FC1
:1044E00031F48091EF0180618093EF0108958D3F59
:1044F00021F480918C0281600BC08E3F21F4809169
:104500008C02826005C08F3F29F480918C02846008
:1045100080938C02089578941F920F920FB60F9299
:1045200011248F939F93AF93BF93809188029091B2
:104530008902A0918A02B0918B020196A11DB11D42
:104540008093880290938902A0938A02B0938B0291
:10455000BF91AF919F918F910F900FBE0F901F90C1
:1045600018959C014FB7F894809188029091890228
:10457000A0918A02B0918B024FBF821B930B0895CA
:104580002FB7F8948091880290918902A0918A02B5
:10459000B0918B022FBF08950E94C0222091F0019C
:1045A000211104C02091F101222321F09093ED010B
:1045B0008093EC012091F201211104C02091F301BC
:1045C000222321F09093EA018093E901E091D50143
:1045D000F091D601309749F082E08093EE0104809B
:1045E000F581E02D8EEE91E0099408951F920F92CF
:1045F0000FB60F9211248F939F93AF93BF93809127
:10460000D701811113C08091880290918902A091F5
:104610008A02B0918B024196A11DB11D8093880240
:1046200090938902A0938A02B0938B02BF91AF91BD
:104630009F918F910F900FBE0F901F9018959C0126
:104640002A5F3F4FFC014281461301C0128201964E
:1046500082179307B9F708959C01FC0132969FEFEA
:1046600080E04191461789F09F3F19F4411101C044
:10467000982F8F5F8630A9F79F3F39F0F901E90F36
:10468000F11D97FDFA95628308950895CF9384E014
:1046900090E00E947125C82F81E290E00E94712570
:1046A0002C2F30E0A901582BCA01CF9108956CEE50
:1046B0007EEF80E090E00E94A32560E082E090E041
:1046C0000E94852560E083E090E00E94852510929D
:1046D000840210928502109286021092870260E096
:1046E00084E090E00E94852560E081E290E00E94F5
:1046F000852560E085E090E00E94852560E086E009
:1047000090E00E9485256FEF87E090E00E9485256C
:1047100040E050E0BA0188E090E00E94972560E018
:104720008DE090E00E94852540E050E0BA0188E1EC
:1047300090E00E94972560E087E190E00E94852547
:1047400040E050E0BA018CE190E00E94972560E0E3
:1047500080E290E00E94852540E050E0BA0188E1C7
:1047600090E00E94972540E050E0BA018FE090E091
:104770000E94972540E050E0BA0183E190E00C945C
:104780009725809183028111109283020895909160
:10479000820280918102892B20918002982F922B96
:1047A00090931C0280918302882389F0892B809347
:1047B0001C02EEE1F2E097E080E0915029F02191B7
:1047C0002223D9F38F5FF9CF81110E94C123E09199
:1047D000D501F091D601309731F00280F381E02DC0
:1047E0008CE192E009940895BF92CF92DF92EF920C
:1047F000FF920F931F93CF93DF938C01C090CE0154
:10480000D090CF01E090D001F090D101809184024E
:1048100090918502A0918602B0918702C82AD92A78
:10482000EA2AFB2ACFE1D0E0D701C6010C2E04C052
:10483000B695A795979587950A94D2F780FD04C001
:10484000219790F7B12C07C0BC2EB8018C2F0E9485
:10485000460D0197A9F38B2DDF91CF911F910F91F9
:10486000FF90EF90DF90CF90BF900895CF93DF93AC
:10487000EC010E94F423BE010E94460DDF91CF910E
:10488000089527E0929F800D1124682F6695669504
:104890006695982F977085E0689FB001112440E0DD
:1048A00050E080E0FB01E40FF51FE45AFD4F20814A
:1048B00030E0092E02C0369527950A94E2F7217060
:1048C0003327042E01C0220F0A94EAF7822B4F5F90
:1048D0005F4F4530510531F7089527E0929F800DD5
:1048E0001124E82FE695E695E695877051E001C022
:1048F000550F8A95EAF785E0E89FF0011124E45A04
:10490000FD4F20E030E070E04081CB01022E02C07C
:10491000969587950A94E2F781708195842785237F
:10492000842781932F5F3F4F2530310569F7089524
:104930006093CE017093CF018093D0019093D10109
:104940000C94F01A0F931F9341E050E060E070E088
:1049500004C0440F551F661F771F8A95D2F74095F4
:104960005095609570958091CE019091CF01A09166
:10497000D001B091D1018A019B01082319232A2378
:104980003B23C901B8011F910F910C9498242091E9
:104990007F028095822380937F02982F977079F40D
:1049A00030E0482F082E000C550B2417350739F03E
:1049B0008595859585950E94A22410927F02089581
:1049C0000F931F9341E050E060E070E004C0440F9B
:1049D000551F661F771F8A95D2F78091CE0190915F
:1049E000CF01A091D001B091D1018A019B01082B88
:1049F000192B2A2B3B2BC901B8011F910F910C9445
:104A00009824609384027093850280938602909329
:104A100087020C94F01A80915B0290912A02891708
:104A200019F08F5F8770FBCF08958F929F92AF929E
:104A3000BF92CF92DF92EF92FF92CF93DF93EC0180
:104A4000688179818A819B81611571058105910554
:104A500021F464E279ED8BE597E02DE133EF41E05D
:104A600050E00E94B92549015A019B01AC01A7EA17
:104A7000B1E40E94D8256B017C01ACEEB4EFA50136
:104A800094010E94E625DC01CB018C0D9D1DAE1D1D
:104A9000BF1DB7FF03C00197A109B0488883998360
:104AA000AA83BB839F77DF91CF91FF90EF90DF9038
:104AB000CF90BF90AF909F908F9008950E94152542
:104AC000089580E091E00E9415250895A0E0B0E0EF
:104AD0008093000190930101A0930201B093030120
:104AE0000895F999FECF92BD81BDF89A992780B5B6
:104AF0000895A6E1B0E044E050E00C94AB25A8E1B5
:104B0000B0E042E050E00C94AB25262FF999FECF9F
:104B100092BD81BDF89A019700B4021639F01FBA10
:104B200020BD0FB6F894FA9AF99A0FBE089503962D
:104B3000272F0E9486250E948525252F0E948625E5
:104B4000242F0C9486250196272F0E9486250C94ED
:104B50008525DC01CB01FC01F999FECF06C0F2BD31
:104B6000E1BDF89A319600B40D9241505040B8F72B
:104B70000895052E97FB1EF400940E94D02557FD42
:104B800007D00E94EB2507FC03D04EF40C94D025EF
:104B900050954095309521953F4F4F4F5F4F089569
:104BA00090958095709561957F4F8F4F9F4F089599
:104BB0000E940D26A59F900DB49F900DA49F800D7F
:104BC000911D11240895B7FF0C94D8250E94D82573
:104BD000821B930B0895A1E21A2EAA1BBB1BFD0199
:104BE0000DC0AA1FBB1FEE1FFF1FA217B307E407CC
:104BF000F50720F0A21BB30BE40BF50B661F771F24
:104C0000881F991F1A9469F7609570958095909503
:104C10009B01AC01BD01CF010895A29FB001B39FDC
:104C2000C001A39F700D811D1124911DB29F700DB5
:104C3000811D1124911D08955058BB27AA270E9459
:104C400034260C94DF270E94D12738F00E94D82701
:104C500020F039F49F3F19F426F40C94A7270EF4A2
:104C6000E095E7FB0C94A127E92F0E94F02758F369
:104C7000BA17620773078407950720F079F4A6F541
:104C80000C9412280EF4E0950B2EBA2FA02D0B01D8
:104C9000B90190010C01CA01A0011124FF27591B81
:104CA00099F0593F50F4503E68F11A16F040A22F87
:104CB000232F342F4427585FF3CF469537952795F8
:104CC000A795F0405395C9F77EF41F16BA0B620BF7
:104CD000730B840BBAF09150A1F0FF0FBB1F661F3E
:104CE000771F881FC2F70EC0BA0F621F731F841F81
:104CF00048F4879577956795B795F7959E3F08F0A7
:104D0000B0CF9395880F08F09927EE0F9795879568
:104D100008950E949D260C94DF270E94D82758F002
:104D20000E94D12740F029F45F3F29F00C94A1277D
:104D300051110C9413280C94A7270E94F02768F3B4
:104D40009923B1F3552391F3951B550BBB27AA2744
:104D500062177307840738F09F5F5F4F220F331F7E
:104D6000441FAA1FA9F335D00E2E3AF0E0E832D046
:104D700091505040E695001CCAF72BD0FE2F29D049
:104D8000660F771F881FBB1F261737074807AB071B
:104D9000B0E809F0BB0B802DBF01FF2793585F4F90
:104DA0003AF09E3F510578F00C94A1270C941328FB
:104DB0005F3FE4F3983ED4F3869577956795B79572
:104DC000F7959F5FC9F7880F911D9695879597F97D
:104DD0000895E1E0660F771F881FBB1F62177307F6
:104DE0008407BA0720F0621B730B840BBA0BEE1F0B
:104DF00088F7E095089529F416F00C94A1270C94F7
:104E000012280C94A7270E94F827A8F39638A0F739
:104E100007F80F92E8942BE33AEA48EB5FE70E9429
:104E2000A5280F920F920F924DB75EB70F920E9476
:104E30005B28ECE1F1E00E94AA274F915F91EF918E
:104E4000FF91E595EE1FFF1F49F0FE57E0684427EC
:104E5000EE0F441FFA95E1F74195550B0E94252866
:104E60000F9007FE0C94192808950E94F82788F0E7
:104E70009F5798F0B92F9927B751B0F0E1F0660F1E
:104E8000771F881F991F1AF0BA95C9F714C0B1305F
:104E900091F00E941228B1E008950C941228672F17
:104EA000782F8827B85F39F0B93FCCF3869577958E
:104EB0006795B395D9F73EF4909580957095619577
:104EC0007F4F8F4F9F4F0895E89409C097FB3EF4A2
:104ED00090958095709561957F4F8F4F9F4F992347
:104EE000A9F0F92F96E9BB279395F69587957795C5
:104EF0006795B795F111F8CFFAF4BB0F11F460FF85
:104F00001BC06F5F7F4F8F4F9F4F16C0882311F0DC
:104F100096E911C0772321F09EE8872F762F05C0F0
:104F2000662371F096E8862F70E060E02AF09A958B
:104F3000660F771F881FDAF7880F9695879597F980
:104F4000089597F99F6780E870E060E008959FEF0B
:104F500080EC0895DF93CF931F930F93FF92EF920E
:104F6000DF927B018C01689406C0DA2EEF010E946B
:104F7000A228FE01E894A59125913591459155917E
:104F8000A6F3EF010E943426FE019701A801DA94EE
:104F900069F7DF90EF90FF900F911F91CF91DF9114
:104FA000089500240A94161617061806090608958F
:104FB00000240A9412161306140605060895092EF5
:104FC0000394000C11F4882352F0BB0F40F4BF2B64
:104FD00011F460FF04C06F5F7F4F8F4F9F4F0895A4
:104FE00057FD9058440F551F59F05F3F71F047959A
:104FF000880F97FB991F61F09F3F79F0879508957F
:10500000121613061406551FF2CF4695F1DF08C09D
:10501000161617061806991FF1CF869571056105BA
:1050200008940895E894BB2766277727CB0197F962
:1050300008959B01AC0160E070E080E89FE30C9470
:1050400089260C94A1270C9404290E94F827D8F3F0
:105050009923C9F3940F511DA3F39150504094F03C
:1050600059F0882332F0660F771F881F9150504007
:10507000C1F79E3F51052CF7880F911D9695879596
:1050800097F908955F3FACF0983E9CF0BB2786955A
:1050900077956795B79508F4B1609395C1F7BB0F05
:1050A00058F711F460FFE8CF6F5F7F4F8F4F9F4F2E
:1050B000E3CF0C941328FA01DC01AA0FBB1F9B015C
:1050C000AC01BF5728F4222733274427507820C04B
:1050D000B75190F4AB2F0024469537952795011CC6
:1050E000A395D2F3002071F0220F331F441FB39514
:1050F000DAF30ED00C941C2661307105A0E88A0703
:10510000B94630F49B01AC01662777278827907851
:10511000309621F0208331834283538308950E9487
:10512000A2280C94DF270E94D12738F00E94D827AC
:1051300020F0952311F00C94A1270C94A72711249B
:105140000C9413280E94F02770F3959FC1F3950FDC
:1051500050E0551F629FF001729FBB27F00DB11DFB
:10516000639FAA27F00DB11DAA1F649F6627B00D8B
:10517000A11D661F829F2227B00DA11D621F739F74
:10518000B00DA11D621F839FA00D611D221F749F82
:105190003327A00D611D231F849F600D211D822FC9
:1051A000762F6A2F11249F5750409AF0F1F08823F0
:1051B0004AF0EE0FFF1FBB1F661F771F881F91501D
:1051C0005040A9F79E3F510580F00C94A1270C9404
:1051D00013285F3FE4F3983ED4F38695779567955F
:1051E000B795F795E7959F5FC1F7FE2B880F911D47
:1051F0009695879597F908959F930E9414290F908B
:1052000007FCEE5F0C943D299F3F31F0915020F454
:10521000879577956795B795880F911D9695879592
:1052200097F908950C94A7270E94F827D8F3E894DB
:10523000E0E0BB279F57F0F02AED3FE049EC06C0C5
:10524000EE0FBB0F661F771F881F28F0B23A620768
:105250007307840728F0B25A620B730B840BE39533
:105260009A9572F7803830F49A95BB0F661F771FB6
:10527000881FD2F790480C940629EF93E0FF07C0EF
:10528000A2EA2AED3FE049EC5FEB0E9434260E943F
:10529000DF270F90039401FC9058E4E4F1E00C94B4
:1052A00051299F938F937F936F93FF93EF939B016C
:1052B000AC010E948F28EF91FF910E94AA272F91A5
:1052C0003F914F915F910C948F28991B79E004C016
:1052D000991F961708F0961B881F7A95C9F7809535
:1052E000089587FB082E062687FD819567FD619549
:1052F0000E9465290EF4919507FC81950895AA1BDB
:10530000BB1B51E107C0AA1FBB1FA617B70710F0B0
:10531000A61BB70B881F991F5A95A9F780959095E2
:10532000BC01CD01089597FB072E16F4009407D019
:1053300077FD09D00E947F2907FC05D03EF49095A7
:1053400081959F4F0895709561957F4F0895EE0F59
:10535000FF1F0590F491E02D09940E940D26332340
:1053600012F48A1B9B0B0C94B7290E940D26B7FFE1
:105370000895821B930B0895FC014150504030F07A
:1053800001900616D1F73197CF0108958827992704
:065390000895F894FFCF20
:105396000100000001191A1B1C1D1E1F20212201DD
:1053A6000201DB20FD20DE207F147B1401000102B8
:1053B6000202020606060909090909090F0F0F0F5D
:1053C6000F0F151515181919191919191919191968
:1053D60023242525252525253534C69766949091C1
:1053E600933331F7F6F5F4818283E200E900EA00AF
:1053F600B500B600B700CD008301CC008A0192014A
:1054060094012102230224022502260227022A02EF
:08541600B300B4006F00700048
:00000001FF
